:100000000C9436000C945E000C945E000C945E0020
:100010000C945E000C945E000C945E000C945E00E8
:100020000C945E000C945E000C945E000C945E00D8
:100030000C945E000C945E000C945E000C945E00C8
:100040000C9449040C945E000C9417040C94F10376
:100050000C945E000C945E000C945E000C945E00A8
:100060000C945E000C945E009304EA0711241FBEFA
:10007000CFEFD8E0DEBFCDBF11E0A0E0B1E0E2E518
:10008000FFE102C005900D92A43BB107D9F722E031
:10009000A4EBB1E001C01D92A438B207E1F710E073
:1000A000C5E3D0E004C02197FE010E94FA0AC433E0
:1000B000D107C9F70E94E3040C949C0F0C94000034
:1000C0000895AF92BF92CF92DF92EF92FF920F937B
:1000D0001F93CF93DF936C017B018B01040F151FDE
:1000E000EB015E01AE18BF08C017D10759F0699146
:1000F000D601ED91FC910190F081E02DC6010995AA
:10010000892B79F7C501DF91CF911F910F91FF9056
:10011000EF90DF90CF90BF90AF900895FC01538D8A
:10012000448D252F30E0842F90E0821B930B5417D1
:1001300010F0CF96089501970895FC01918D828D5E
:10014000981761F0A28DAE0FBF2FB11D5D968C91F7
:10015000928D9F5F9F73928F90E008958FEF9FEF36
:100160000895FC01918D828D981731F0828DE80FF2
:10017000F11D858D90E008958FEF9FEF0895FC01AC
:10018000918D228D892F90E0805C9F4F821B910979
:100190008F739927089587ED91E00E94BF0021E0B9
:1001A000892B09F420E0822F089580E090E0892BCC
:1001B00029F00E94CB0081110C9400000895FC01ED
:1001C000A48DA80FB92FB11DA35ABF4F2C91848DB8
:1001D00090E001968F739927848FA689B7892C9315
:1001E000A089B1898C91837080648C93938D848D68
:1001F000981306C00288F389E02D80818F7D80836B
:100200000895EF92FF920F931F93CF93DF93EC012A
:1002100081E0888F9B8D8C8D98131AC0E889F989AD
:10022000808185FF15C09FB7F894EE89FF896083B0
:10023000E889F98980818370806480839FBF81E031
:1002400090E0DF91CF911F910F91FF90EF90089573
:10025000F62E0B8D10E00F5F1F4F0F731127E02E4E
:100260008C8D8E110CC00FB607FCFACFE889F98986
:10027000808185FFF5CFCE010E94DF00F1CFEB8DAD
:10028000EC0FFD2FF11DE35AFF4FF0829FB7F8945A
:100290000B8FEA89FB8980818062CFCFCF93DF9378
:1002A000EC01888D8823B9F0AA89BB89E889F9898E
:1002B0008C9185FD03C0808186FD0DC00FB607FCC3
:1002C000F7CF8C9185FFF2CF808185FFEDCFCE01F6
:1002D0000E94DF00E9CFDF91CF9108953FB7F894F6
:1002E0008091B9019091BA01A091BB01B091BC017C
:1002F00026B5A89B05C02F3F19F00196A11DB11D81
:100300003FBFBA2FA92F982F8827BC01CD01620FBC
:10031000711D811D911D42E0660F771F881F991F77
:100320004A95D1F708958F929F92AF92BF92CF9244
:10033000DF92EF92FF926B017C010E946E014B01F4
:100340005C01C114D104E104F104B9F00E946E0112
:10035000681979098A099B09683E734081059105EE
:1003600080F321E0C21AD108E108F10888EE880E76
:1003700083E0981EA11CB11CE4CFFF90EF90DF90AA
:10038000CF90BF90AF909F908F9008952FB7F89423
:100390006091B5017091B6018091B7019091B8015B
:1003A0002FBF08950F931F930E94C6016093DF0132
:1003B0007093E0018093E1019093E20187ED91E079
:1003C0000E94B10097FF1DC00E94C6010091DF018D
:1003D0001091E0012091E1013091E201601B710B6D
:1003E000820B930B0091DB011091DC012091DD0168
:1003F0003091DE016017710782079307F8F28FEFE3
:100400009FEF1F910F910895FC0101900020E9F7E3
:100410003197AF01481B590BBC0187ED91E00C945B
:1004200061008F929F92AF92BF920F931F93CF93D1
:10043000DF93CDB7DEB7A1970FB6F894DEBF0FBE3E
:10044000CDBF19A2423008F44AE08E010F5D1F4F64
:10045000842E912CB12CA12CA50194010E94230A79
:10046000E62FB901CA01EA30F4F4E05DD801EE9359
:100470008D01232B242B252B79F790E080E010971A
:1004800019F0CD010E940402A1960FB6F894DEBFC8
:100490000FBECDBFDF91CF911F910F91BF90AF9055
:1004A0009F908F900895E95CE1CFCF92DF92EF9219
:1004B000FF92CF93DF936B017C01F7FE1FC06DE2CB
:1004C00087ED91E00E940101EC0166277727CB01BF
:1004D0006C197D098E099F094AE00E941102C80F1C
:1004E000D91F8EE191E00E9404028C0F9D1FDF91C5
:1004F000CF91FF90EF90DF90CF9008954AE00E9457
:100500001102EC01EECF4F925F926F927F928F9229
:100510009F92AF92BF92CF92DF92EF92FF926B01C8
:100520007C01AC019B010E94F50A8823C1F081E2A5
:1005300091E00E9404027C018EE191E00E9404029D
:100540008E0D9F1DFF90EF90DF90CF90BF90AF90EA
:100550009F908F907F906F905F904F90089546018D
:100560005701E894B7F82FEF3FEF4FE75FE7C5017A
:10057000B4010E94F50A81110DC02FEF3FEF4FE744
:100580005FE7C501B4010E94960818161CF485E2C5
:1005900091E0CFCF2FEF3FEF4FE75FE4C701B60108
:1005A0000E94F00A18161CF489E291E0C2CF2FEFE6
:1005B0003FEF4FE75FECC701B6010E94960887FD49
:1005C000F3CF20E030E0A901C701B6010E949608F0
:1005D000B12CA12C87FF0AC06DE287ED91E00E944B
:1005E00001015C01F7FAF094F7F8F0942AE037ED96
:1005F00043EA5BE3C701B6010E94550A2B013C01A7
:100600000E94C10A6B017C010E949B089B01AC0106
:10061000C301B2010E94540A2B013C014AE0C70108
:10062000B6010E9411027C01EA0CFB1C6EE287ED10
:1006300091E00E940101E80EF91E20E030E040E266
:1006400051E4C301B2010E94FC082B013C010E944D
:10065000C10A4B01B12CA12C4AE0C501B4010E9492
:100660001102E80EF91EC501B4010E949B089B010E
:10067000AC01C301B2010E94540A20E030E040E224
:1006800051E40E94FC080E94C10A90E080E04AE028
:100690000E941102E80EF91E4FCFFC01808191816A
:1006A000009711F00C949C0B0895EF92FF920F931A
:1006B0001F93CF93DF93EC017B018A01888199819D
:1006C000009729F02A813B812417350788F4B80167
:1006D0006F5F7F4F0E94250C009791F0998388836C
:1006E0001B830A832C813D81232B11F4FC01108292
:1006F0001D830C83B701888199810E94F40C0CC082
:1007000088819981009711F00E949C0B19821882B0
:100710001D821C821B821A82CE01DF91CF911F9114
:100720000F91FF90EF900895FC0101900020E9F7F0
:100730003197AF01481B590BBC018AE792E00C943A
:100740005503CF93DF93EC0199B189B1933A11F03E
:10075000813A01F58DE291E00E949403198218829A
:100760001B821A821D821C8282E0CA37D80771F070
:1007700060917A0270917B026115710539F04091A8
:100780007E0250917F02CE010E945503CE01DF917F
:10079000CF91089599B189B1933B11F0813B19F440
:1007A00084E391E0D9CF99B189B1933C11F0813CB8
:1007B00019F481E491E0D0CF99B189B1913611F06B
:1007C000833619F486E491E0C7CF99B189B1913F9E
:1007D00011F08F3E19F48BE391E0BECF8CE491E0F1
:1007E000BBCF1F920F920FB60F9211242F933F93FE
:1007F0004F935F936F937F938F939F93AF93BF9329
:10080000EF93FF9387ED91E00E94DF00FF91EF915E
:10081000BF91AF919F918F917F916F915F914F9118
:100820003F912F910F900FBE0F901F9018951F9220
:100830000F920FB60F9211242F938F939F93EF93E4
:10084000FF93E091E701F091E8018081E091ED01F3
:10085000F091EE0182FD1BC090818091F0018F5FCD
:100860008F732091F101821741F0E091F001F0E0E7
:10087000E952FE4F958F8093F001FF91EF919F9188
:100880008F912F910F900FBE0F901F901895808120
:10089000F4CF1F920F920FB60F9211242F933F9314
:1008A0008F939F93AF93BF938091B5019091B601C1
:1008B000A091B701B091B8013091B40123E0230FAA
:1008C0002D3758F50196A11DB11D2093B4018093D9
:1008D000B5019093B601A093B701B093B801809190
:1008E000B9019091BA01A091BB01B091BC010196F0
:1008F000A11DB11D8093B9019093BA01A093BB01D2
:10090000B093BC01BF91AF919F918F913F912F9177
:100910000F900FBE0F901F90189526E8230F029698
:10092000A11DB11DD2CFE7EDF1E01382128288EE56
:1009300093E0A0E0B0E084839583A683B78380E151
:1009400091E09183808385EC90E09587848784ECA7
:1009500090E09787868780EC90E0918B808B81EC8C
:1009600090E0938B828B82EC90E0958B848B86EC6D
:1009700090E0978B868B118E128E138E148E0E94B0
:10098000C6010E94C6010E94C601EAE7F2E0118298
:100990001082138212821582148250E040E060E2DD
:1009A00071E0CF010E945503E4E7F2E0118210826A
:1009B000138212821582148250E040E060E271E0FE
:1009C000CF010C945503CF93DF93CDB7DEB7649777
:1009D0000FB6F894DEBF0FBECDBF789484B58260A9
:1009E00084BD84B5816084BD85B5826085BD85B5D3
:1009F000816085BD80916E00816080936E00109251
:100A000081008091810082608093810080918100CB
:100A1000816080938100809180008160809380005C
:100A20008091B10084608093B1008091B0008160BA
:100A30008093B00080917A00846080937A008091E6
:100A40007A00826080937A0080917A00816080933E
:100A50007A0080917A00806880937A001092C100B9
:100A6000E091E701F091E80182E08083E091E30109
:100A7000F091E4011082E091E501F091E60180E15E
:100A800080831092EF01E091EB01F091EC0186E0A0
:100A90008083E091E901F091EA01808180618083A7
:100AA000E091E901F091EA01808188608083E09122
:100AB000E901F091EA01808180688083E091E90199
:100AC000F091EA0180818F7D808387ED91E00E9423
:100AD0009D0081E591E00E9404028EE191E00E9478
:100AE00004021AB887E084B915B881EE8BB910E01A
:100AF00000E05801AA0CBB1CAA0CBB1C81E090E0D2
:100B00008C0F9D1FA80EB91E87ED91E00E94BF00BB
:100B10001816190674F70E94D201FC0197FD23C133
:100B20008D32910509F04CC0412C512C50E8652EB6
:100B30005FE3752EC12CD12C7601912C812CE130F4
:100B4000F10559F1ED32F10509F447C0EE32F10536
:100B500009F446C0CF01C0970A97F8F4AAE0B0E0C4
:100B6000A70196010E94D9096F01FF0FEE08FF0847
:100B7000C60ED71EE81EF91E90E3C91AD108E10877
:100B8000F108992051F02DEC3CEC4CEC5DE3C301F5
:100B9000B2010E94FC082B013C0187ED91E00E940C
:100BA0009D000E94D201FC01C0970A9740F2EE32EC
:100BB000F105C9F4992019F2982C81101AC027C0A8
:100BC000C0970A9708F4B0CFEE32F10509F4ACCF24
:100BD00087ED91E00E949D009ECF88248394DDCF15
:100BE00099249394DACFE130F10509F4A8CF882055
:100BF00041F0F094E094D094C094C11CD11CE11C4D
:100C0000F11CC701B6010E949D08992041F0C7015F
:100C1000B6010E949D08A30192010E94FC08D50123
:100C20006D937D938D939D935D010F5F1F4F0430F6
:100C300011050CF469CF49805A806B807C8040920A
:100C4000C5015092C6016092C7017092C8018D80A3
:100C50009E80AF80B8848092C1019092C201A09220
:100C6000C301B092C401C984DA84EB84FC84C092CD
:100C7000BD01D092BE01E092BF01F092C0018D850E
:100C80009E85AF85B889898B9A8BAB8BBC8B84E6AC
:100C900091E00E940402C301B2010E9483028FE628
:100CA00091E00E940402C501B4010E9483028AE718
:100CB00091E00E940402C701B6010E94830285E808
:100CC00091E00E94040269897A898B899C890E943B
:100CD00083020E94C6016B017C01C114D104E104AE
:100CE000F10411F00E948D0882E991E00E94040253
:100CF000C701B6010E94550281E090E09093D601B1
:100D00008093D50187ED91E00E949D0087ED91E0F1
:100D10000E949D0028E9422E21E0522E39EC632EDC
:100D200031E0732E42E0E42EF12C01E010E090E07F
:100D3000892E90E0992E3324339484E0282E8091DC
:100D4000D5019091D6018130910589F0029709F47F
:100D50006EC08114910499F30E94CB00882359F34B
:100D60000E940000E4CF60E070E0CB0158CFCE01DC
:100D700001960E94A1038D819E81892B51F06DE225
:100D800071E089819A810E94EB0CDD24D394892B38
:100D900009F0D12CCE0101960E944D03DD20C9F24D
:100DA0000E946E016093D1017093D2018093D301B0
:100DB0009093D40192E095B96091BD017091BE010C
:100DC0008091BF019091C0010E94C10A0E949301CD
:100DD00015B88091CF019091D00101969093D001E8
:100DE0008093CF019F938F935F924F927F926F92E8
:100DF0000E94FB0C89EC91E00E9404028EE991E0D4
:100E00000E9404026091D1017091D2018091D301BE
:100E10009091D4010E945502F092D601E092D50142
:100E20000F900F900F900F900F900F9092CFCE01D8
:100E300001960E94A103809174029091750200971F
:100E400009F475C069817A816115710509F46DC075
:100E500040917602509177022D813E8142175307CF
:100E600008F463C00E94F40C8D819E8190937902F6
:100E7000809378021E821D82CE0101960E944D034E
:100E8000A0907802B0907902A114B10459F061E405
:100E900071E080917402909175020E94EB0C21E048
:100EA000892B09F020E0C0900001D090010141E0C1
:100EB00050E0A1E0CA16D10411F450E040E0822FC6
:100EC00090E084239523892B09F448C00E946E0189
:100ED0006093D1017093D2018093D3019093D40198
:100EE000109301010093000135B86091C501709124
:100EF000C6018091C7019091C8010E94C10A0E9459
:100F0000930115B886EA91E00E9404026091D10134
:100F10007091D2018091D3019091D4010E94550229
:100F20001093D6010093D50114CF0E949C0B8981A8
:100F30009A8190937502809374028B819C81909327
:100F40007702809376028D819E81909379028093BF
:100F500078021A8219821C821B828CCFAB2859F02E
:100F600066E471E080917402909175020E94EB0C2E
:100F700021E0892B09F020E041E050E0B2E0CB16FF
:100F8000D10411F450E040E0822F90E084239523B7
:100F9000892B09F4DECE0E946E016093D10170931B
:100FA000D2018093D3019093D401F0920101E09299
:100FB000000125B86091C1017091C2018091C30107
:100FC0009091C4010E94C10A0E94930115B88CEA55
:100FD00091E09ACF84E792E00E944D038AE792E085
:100FE0000C944D038F929F92AF92BF92CF92DF925B
:100FF000EF92FF92CF93DF93EC01688179818A8130
:101000009B81611571058105910521F464E279EDFB
:101010008BE597E02DE133EF41E050E00E94BA0903
:1010200049015A019B01AC01A7EAB1E40E94D90928
:101030006B017C01ACEEB4EFA50194010E94E709BD
:10104000C60ED71EE81EF91EF7FE06C081E0C81ABC
:10105000D108E10880E8F80AC882D982EA82FB82D6
:10106000C701B6019F77DF91CF91FF90EF90DF909E
:10107000CF90BF90AF909F908F9008958F929F9246
:10108000AF92BF92CF92DF92EF92FF9260910201F6
:101090007091030180910401909105016115710522
:1010A0008105910521F464E279ED8BE597E02DE16E
:1010B00033EF41E050E00E94BA0949015A019B0117
:1010C000AC01A7EAB1E40E94D9096B017C01ACEE46
:1010D000B4EFA50194010E94E709C60ED71EE81ED1
:1010E000F91EF7FE06C081E0C81AD108E10880E8C1
:1010F000F80AC0920201D0920301E0920401F0923A
:101100000501C701B6019F77FF90EF90DF90CF9068
:10111000BF90AF909F908F9008956093020170935D
:101120000301809304019093050108950E94D8085B
:1011300008F481E00895E89409C097FB3EF4909587
:101140008095709561957F4F8F4F9F4F9923A9F0A0
:10115000F92F96E9BB279395F6958795779567952F
:10116000B795F111F8CFFAF4BB0F11F460FF1BC073
:101170006F5F7F4F8F4F9F4F16C0882311F096E906
:1011800011C0772321F09EE8872F762F05C06623B4
:1011900071F096E8862F70E060E02AF09A95660F6D
:1011A000771F881FDAF7880F9695879597F9089526
:1011B000990F0008550FAA0BE0E8FEEF1616170668
:1011C000E807F907C0F012161306E407F50798F0D0
:1011D000621B730B840B950B39F40A2661F0232BE9
:1011E000242B252B21F408950A2609F4A140A69565
:1011F0008FEF811D811D08950E940F090C948009B5
:101200000E94720938F00E94790920F0952311F0AC
:101210000C9469090C946F0911240C94B4090E9470
:10122000910970F3959FC1F3950F50E0551F629F90
:10123000F001729FBB27F00DB11D639FAA27F00D2F
:10124000B11DAA1F649F6627B00DA11D661F829F56
:101250002227B00DA11D621F739FB00DA11D621F3B
:10126000839FA00D611D221F749F3327A00D611D58
:10127000231F849F600D211D822F762F6A2F11243A
:101280009F5750409AF0F1F088234AF0EE0FFF1F6D
:10129000BB1F661F771F881F91505040A9F79E3FC4
:1012A000510580F00C9469090C94B4095F3FE4F394
:1012B000983ED4F3869577956795B795F795E7951A
:1012C0009F5FC1F7FE2B880F911D9695879597F923
:1012D000089597F99F6780E870E060E008959FEFB8
:1012E00080EC089500240A941616170618060906BD
:1012F000089500240A94121613061406050608958C
:10130000092E0394000C11F4882352F0BB0F40F413
:10131000BF2B11F460FF04C06F5F7F4F8F4F9F4F53
:10132000089557FD9058440F551F59F05F3F71F0D5
:101330004795880F97FB991F61F09F3F79F087953C
:101340000895121613061406551FF2CF4695F1DFC5
:1013500008C0161617061806991FF1CF8695710555
:10136000610508940895E894BB2766277727CB0189
:1013700097F90895052E97FB1EF400940E94D10959
:1013800057FD07D00E94230A07FC03D04EF40C94AB
:10139000D10950954095309521953F4F4F4F5F4F64
:1013A000089590958095709561957F4F8F4F9F4FD1
:1013B00008950E94450AA59F900DB49F900DA49F8B
:1013C000800D911D11240895B7FF0C94D9090E9436
:1013D000D909821B930B08952F923F924F925F92EF
:1013E0006F927F928F929F92AF92BF92CF92DF9235
:1013F000EF92FF920F931F93CF93DF93CDB7DEB79A
:10140000CA1BDB0B0FB6F894DEBF0FBECDBF09942D
:101410002A88398848885F846E847D848C849B8484
:10142000AA84B984C884DF80EE80FD800C811B8192
:10143000AA81B981CE0FD11D0FB6F894DEBF0FBEC1
:10144000CDBFED010895A1E21A2EAA1BBB1BFD0121
:101450000DC0AA1FBB1FEE1FFF1FA217B307E40793
:10146000F50720F0A21BB30BE40BF50B661F771FEB
:10147000881F991F1A9469F76095709580959095CB
:101480009B01AC01BD01CF010895A29FB001B39FA4
:10149000C001A39F700D811D1124911DB29F700D7D
:1014A000811D1124911D08955058BB27AA270E9421
:1014B0006C0A0C9480090E94720938F00E94790924
:1014C00020F039F49F3F19F426F40C946F090EF4C0
:1014D000E095E7FB0C946909E92F0E94910958F304
:1014E000BA17620773078407950720F079F4A6F509
:1014F0000C94B3090EF4E0950B2EBA2FA02D0B011E
:10150000B90190010C01CA01A0011124FF27591B48
:1015100099F0593F50F4503E68F11A16F040A22F4E
:10152000232F342F4427585FF3CF469537952795BF
:10153000A795F0405395C9F77EF41F16BA0B620BBE
:10154000730B840BBAF09150A1F0FF0FBB1F661F05
:10155000771F881FC2F70EC0BA0F621F731F841F48
:1015600048F4879577956795B795F7959E3F08F06E
:10157000B0CF9395880F08F09927EE0F9795879530
:1015800008950E94990988F09F5798F0B92F9927DC
:10159000B751B0F0E1F0660F771F881F991F1AF05E
:1015A000BA95C9F714C0B13091F00E94B309B1E007
:1015B00008950C94B309672F782F8827B85F39F006
:1015C000B93FCCF3869577956795B395D9F73EF4F7
:1015D00090958095709561957F4F8F4F9F4F08959F
:1015E0000E94D80808F48FEF08950E94D808880B4D
:1015F000990B0895EE0FFF1F0590F491E02D0994CB
:101600000F931F93CF93DF938230910510F482E004
:1016100090E0E0918202F091830230E020E0B0E0BF
:10162000A0E0309799F42115310509F44AC0281B30
:10163000390B24303105D8F58A819B8161157105FC
:1016400089F1FB0193838283FE0111C040815181A6
:101650000281138148175907E0F04817590799F498
:10166000109761F012960C93129713961C93329672
:10167000CF01DF91CF911F910F91089500938202C6
:1016800010938302F4CF2115310551F0421753070F
:1016900038F0A901DB019A01BD01DF01F801C1CFDA
:1016A000EF01F9CF9093830280938202CDCFFE01A8
:1016B000E20FF31F819391932250310939832883DC
:1016C000D7CF2091800230918102232B41F42091C9
:1016D000080130910901309381022093800220910A
:1016E0000601309107012115310541F42DB73EB7B0
:1016F00040910A0150910B01241B350BE0918002AF
:10170000F0918102E217F307A0F42E1B3F0B28177C
:10171000390778F0AC014E5F5F4F2417350748F06A
:101720004E0F5F1F509381024093800281939193EB
:101730009FCFF0E0E0E09CCFCF93DF930097E9F0FC
:10174000FC01329713821282A0918202B09183022F
:10175000ED0130E020E01097A1F420813181820F6B
:10176000931F20918002309181022817390709F0D8
:1017700061C0F0938102E0938002DF91CF910895E0
:10178000EA01CE17DF07E8F54A815B819E0141152A
:101790005105B1F7E901FB83EA8349915991C40FDF
:1017A000D51FEC17FD0761F4808191810296840FAB
:1017B000951FE90199838883828193819B838A8322
:1017C000F0E0E0E012968D919C9113970097B9F5A7
:1017D0002D913C911197CD010296820F931F20917C
:1017E0008002309181022817390739F6309751F578
:1017F0001092830210928202B0938102A093800221
:10180000BCCFD383C28340815181840F951FC817F9
:10181000D90761F44E5F5F4F88819981480F591F46
:10182000518340838A819B81938382832115310573
:1018300009F0B0CFF0938302E09382029ECFFD01C6
:10184000DC01C0CF13821282D7CFB0E0A0E0EBE280
:10185000FCE00C94EE098C01009751F4CB010E943E
:10186000000B8C01C801CDB7DEB7E0E10C940A0A89
:10187000FC01E60FF71F9C0122503109E217F30724
:1018800008F49DC0D901CD91DC911197C617D707F7
:1018900098F0C530D10530F3CE010497861797072D
:1018A00008F3C61BD70B2297C193D1936D937C93FA
:1018B000CF010E949C0BD6CF5B01AC1ABD0A4C0134
:1018C0008C0E9D1EA0918202B0918302512C412C5E
:1018D000F12CE12C109731F58091800290918102DA
:1018E0008815990509F05CC04616570608F058C0DF
:1018F0008091060190910701009741F48DB79EB742
:1019000040910A0150910B01841B950BE817F907D0
:1019100008F055C0F0938102E0938002F9017183D1
:101920006083A0CF8D919C91119712966C90129725
:1019300013967C901397A815B90559F56C0142E0F0
:10194000C40ED11CCA14DB0420F1AC014A195B0996
:10195000DA011296159780F0628273825183408378
:10196000D9016D937C93E114F10471F0D7011396C2
:10197000FC93EE93129776CF22968C0F9D1FF90160
:1019800091838083F301EFCFF0938302E09382028F
:1019900069CF4816590608F42C017D01D3019ACF6E
:1019A000CB010E94000B7C01009749F0AE01B80109
:1019B0000E94E20CC8010E949C0B870153CF10E0EB
:1019C00000E050CFFB01DC0102C001900D924150BC
:1019D0005040D8F70895FB01DC018D9101908019EA
:1019E0000110D9F3990B0895FB01DC0101900D92D0
:1019F0000020E1F70895AEE0B0E0E1E0FDE00C94F6
:101A0000FA090D891E8986E08C831A8309838FEF7A
:101A10009FE79E838D83AE01475E5F4F6F89788D10
:101A2000CE0101960E941E0D2F813885020F131FD3
:101A3000F80110822E96E4E00C94160AABE0B0E0B8
:101A4000E4E2FDE00C94EC097C013B018A01FC011D
:101A500017821682838181FFC8C1CE0101965C0185
:101A6000F7019381F30193FD859193FF81913F01EC
:101A7000882309F453C1853239F493FD859193FF8E
:101A800081913F01853229F4B70190E00E940E0F49
:101A9000E7CF912C212C312CFFE1F31538F08B325C
:101AA00011F190F4803209F1833229F137FC3CC006
:101AB00020ED280F2A3050F536FE20C08AE0989E8F
:101AC000200D1124922E06C08D3291F0803371F7D3
:101AD000689430F8F30193FD859193FF81913F0164
:101AE0008111DACF21C0689431F8689432F8F2CFCE
:101AF000689433F8EFCF689434F8ECCFEAE02E9E88
:101B0000200D1124222E689435F8E4CF8E3229F46A
:101B100036FC04C1689436F8DDCF8C3619F468942D
:101B200037F8D8CF8836B1F2982F9F7D95549330EF
:101B3000E0F08336A1F18337C1F1833509F063C04A
:101B40002801F2E04F0E511CF801C080D180692DB0
:101B500070E036FC02C06FEF7FEFC6010E94F80E06
:101B60004C01689437F882010AC00C5F1F4FFFE3F5
:101B7000F98388248394912C6501E89437F833FE27
:101B80002DC0522C8114910471F5552009F468CFB1
:101B9000B70180E290E00E940E0F5A94F6CFF80150
:101BA000808189830E5F1F4FE4CF2801F2E04F0E42
:101BB000511CF801C080D180692D70E036FC02C054
:101BC0006FEF7FEFC6010E94030F4C018201D5CF5A
:101BD000B70180E290E00E940E0F2A9428141904A5
:101BE00009F0B0F7CECFF60137FC859137FE819131
:101BF0006F01B70190E00E940E0F51105A94F1E06E
:101C00008F1A9108BFCF843619F0893609F077C052
:101C1000F80137FE6BC060817181828193810C5F16
:101C20001F4FF32DFF763F2E97FF09C090958095AB
:101C3000709561957F4F8F4F9F4F689437F82AE0DA
:101C400030E0A5010E943E0FC82ECA188C2C432CF0
:101C500036FE0CC0E89440F8C91440F434FE05C0C8
:101C600032FC03C0F32DFE7E4F2E892C44FE95C01E
:101C7000FE01EC0DF11D8081803309F087C0242D19
:101C8000297E422E842D8870582E43FC95C040FE3C
:101C90008FC09C2C821418F42C0C922C981844FEA3
:101CA00091C0B70180E390E00E940E0F42FE09C090
:101CB00088E790E041FE02C088E590E0B7010E940D
:101CC0000E0FC91408F48AC0CA94D12C9FEFC91A08
:101CD000D90ACA0CDB1CF60182916F01B70190E0B2
:101CE0000E940E0FAC14BD04B1F74FCF608171811B
:101CF000072E000C880B990B0E5F1F4F92CFD32C31
:101D0000E894D4F82AE030E0853739F1232D297F93
:101D1000D22E8F3601F148F48835A9F0F70186817B
:101D200097812B96E2E10C94080A803749F08837B6
:101D3000A9F7D4FE02C06894D2F820E130E00DC0CB
:101D40006894D4F8F6CF34FE03C0822F8660D82E74
:101D500020E132E002C028E030E0F801D7FE0FC0F9
:101D600060817181828193810C5F1F4FA5010E9468
:101D70003E0FC82ECA183D2CE89437F867CF608113
:101D8000718190E080E00E5F1F4FF0CF42FC02C0F7
:101D9000839478CF8394839475CF842D867809F4C7
:101DA00071CFF6CFB70180E290E00E940E0F8394CE
:101DB0008214C0F3512C73CF522C5818821408F49B
:101DC0006ECFF8CF842D867809F47BCF8BE241FE6D
:101DD00080E247FC8DE2B70190E071CFB70180E36C
:101DE00090E00E940E0F9A946CCF8FEF9FEF99CFE7
:101DF000FC010590615070400110D8F780959095D6
:101E00008E0F9F1F0895FC016150704001900110DA
:101E1000D8F7809590958E0F9F1F08950F931F936D
:101E2000CF93DF93182F092FEB018B8181FD09C020
:101E30001FEF0FEF812F902FDF91CF911F910F9107
:101E4000089582FF14C02E813F818C819D812817C7
:101E500039073CF4E881F981CF01019699838883A1
:101E600010838E819F8101969F838E83E3CFE885C7
:101E7000F985812F0995892BA1F3DACFFA01AA27D9
:101E8000283051F1203181F1E8946F936E7F6E5FBD
:101E90007F4F8F4F9F4FAF4FB1E03ED0B4E03CD06B
:101EA000670F781F891F9A1FA11D680F791F8A1F4E
:101EB000911DA11D6A0F711D811D911DA11D20D0B5
:101EC00009F468943F912AE0269F11243019305D6F
:101ED0003193DEF6CF010895462F4770405D419360
:101EE000B3E00FD0C9F7F6CF462F4F70405D4A33AD
:101EF00018F0495D31FD4052419302D0A9F7EACF75
:101F0000B4E0A6959795879577956795BA95C9F7A3
:101F100000976105710508959B01AC010A2E069496
:101F20005795479537952795BA95C9F7620F731F4F
:101F3000841F951FA01D089510E0C5E3D0E004C0E4
:101F4000FE010E94FA0A2196C633D107C9F7F89418
:021F5000FFCFC1
:101F52006300010000000000840280000000000015
:101F6200010161008E004E01BF009D00B1000D0A0B
:101F7200006E616E00696E66006F76660063656E64
:101F82007465720063656E7465725F617564696F12
:101F9200006C656674007269676874006E6F6E65C6
:101FA2000073657269616C5F65737461626C6973F9
:101FB2006865640052455754494D455F4C200052B4
:101FC200455754494D455F52200052455754494D9B
:101FD200455F432000524557494E54455256414CA5
:101FE20020005345454420002530346420004345F9
:101FF2004E54455220004C45465420005249474811
:042002005420000066
:00000001FF
