:100000000C9436000C945E000C945E000C945E0020
:100010000C945E000C945E000C945E000C945E00E8
:100020000C945E000C945E000C945E000C945E00D8
:100030000C945E000C945E000C945E000C945E00C8
:100040000C94CB040C945E000C9499040C947304EF
:100050000C945E000C945E000C945E000C945E00A8
:100060000C945E000C945E0015058B0B11241FBED2
:10007000CFEFD8E0DEBFCDBF12E0A0E0B1E0EAEA0A
:10008000F6E202C005900D92A436B107D9F723E03D
:10009000A4E6B2E001C01D92A035B207E1F710E07E
:1000A000C5E3D0E004C02197FE010E94A60EC43330
:1000B000D107C9F70E944D050C9448130C94000019
:1000C0000895AF92BF92CF92DF92EF92FF920F937B
:1000D0001F93CF93DF936C017B018B01040F151FDE
:1000E000EB015E01AE18BF08C017D10759F0699146
:1000F000D601ED91FC910190F081E02DC6010995AA
:10010000892B79F7C501DF91CF911F910F91FF9056
:10011000EF90DF90CF90BF90AF900895FC01538D8A
:10012000448D252F30E0842F90E0821B930B5417D1
:1001300010F0CF96089501970895FC01918D828D5E
:10014000981761F0A28DAE0FBF2FB11D5D968C91F7
:10015000928D9F5F9F73928F90E008958FEF9FEF36
:100160000895FC01918D828D981731F0828DE80FF2
:10017000F11D858D90E008958FEF9FEF08952FB7C3
:10018000F8948091990290919A02A0919B02B0916B
:100190009C022FBF8093A5029093A602A093A70272
:1001A000B093A8028DE992E00E94B10097FF26C0AB
:1001B0002FB7F8948091990290919A02A0919B0296
:1001C000B0919C022FBF4091A5025091A602609170
:1001D000A7027091A802841B950BA60BB70B409148
:1001E000A1025091A2026091A3027091A40284170F
:1001F0009507A607B707B0F28FEF9FEF0895FC01B0
:10020000918D228D892F90E0805C9F4F821B9109F8
:100210008F73992708958DE992E00E94FF0021E0F5
:10022000892B09F420E0822F089580E090E0892B4B
:1002300029F00E940B0181110C9400000895FC012B
:10024000A48DA80FB92FB11DA35ABF4F2C91848D37
:1002500090E001968F739927848FA689B7892C9394
:10026000A089B1898C91837080648C93938D848DE7
:10027000981306C00288F389E02D80818F7D8083EA
:100280000895EF92FF920F931F93CF93DF93EC01AA
:1002900081E0888F9B8D8C8D98131AC0E889F9892D
:1002A000808185FF15C09FB7F894EE89FF89608330
:1002B000E889F98980818370806480839FBF81E0B1
:1002C00090E0DF91CF911F910F91FF90EF900895F3
:1002D000F62E0B8D10E00F5F1F4F0F731127E02ECE
:1002E0008C8D8E110CC00FB607FCFACFE889F98906
:1002F000808185FFF5CFCE010E941F01F1CFEB8DEC
:10030000EC0FFD2FF11DE35AFF4FF0829FB7F894D9
:100310000B8FEA89FB8980818062CFCFCF93DF93F7
:10032000EC01888D8823B9F0AA89BB89E889F9890D
:100330008C9185FD03C0808186FD0DC00FB607FC42
:10034000F7CF8C9185FFF2CF808185FFEDCFCE0175
:100350000E941F01E9CFDF91CF9108953FB7F89434
:100360008091650290916602A0916702B091680247
:1003700026B5A89B05C02F3F19F00196A11DB11D00
:100380003FBFBA2FA92F982F8827BC01CD01620F3C
:10039000711D811D911D42E0660F771F881F991FF7
:1003A0004A95D1F708958F929F92AF92BF92CF92C4
:1003B000DF92EF92FF926B017C010E94AE014B0134
:1003C0005C01C114D104E104F104B9F00E94AE0152
:1003D000681979098A099B09683E7340810591056E
:1003E00080F321E0C21AD108E108F10888EE880EF6
:1003F00083E0981EA11CB11CE4CFFF90EF90DF902A
:10040000CF90BF90AF909F908F900895FC01019086
:100410000020E9F73197AF01481B590BBC018DE96A
:1004200092E00C9461008F929F92AF92BF920F93D3
:100430001F93CF93DF93CDB7DEB7A1970FB6F89494
:10044000DEBF0FBECDBF19A2423008F44AE08E01D4
:100450000F5D1F4F842E912CB12CA12CA50194016E
:100460000E94C80DE62FB901CA01EA30F4F4E05D3C
:10047000D801EE938D01232B242B252B79F790E0C7
:1004800080E0109719F0CD010E940602A1960FB6E8
:10049000F894DEBF0FBECDBFDF91CF911F910F91BA
:1004A000BF90AF909F908F900895E95CE1CFCF927D
:1004B000DF92EF92FF92CF93DF936B017C016DE2AD
:1004C0008DE992E00E944101EC0166277727CB017C
:1004D0006C197D098E099F094AE00E9413028C0F56
:1004E0009D1FDF91CF91FF90EF90DF90CF90089507
:1004F000CF93DF93BC01990F880B990B97FF0CC02A
:100500000E945702EC0182E291E00E9406028C0FE9
:100510009D1FDF91CF9108954AE00E941302F2CF10
:100520000C9406024F925F926F927F928F929F92ED
:10053000AF92BF92CF92DF92EF92FF926B017C015C
:10054000AC019B010E94A10E8823C1F085E291E0DD
:100550000E9406027C0182E291E00E9406028E0D5A
:100560009F1DFF90EF90DF90CF90BF90AF909F9036
:100570008F907F906F905F904F9008954601570144
:10058000E894B7F82FEF3FEF4FE75FE7C501B401FD
:100590000E94A10E81110DC02FEF3FEF4FE75FE7E3
:1005A000C501B4010E943B0C18161CF489E291E0CD
:1005B000CFCF2FEF3FEF4FE75FE4C701B6010E94B7
:1005C0009C0E18161CF48DE291E0C2CF2FEF3FEF86
:1005D0004FE75FECC701B6010E943B0C87FDF3CFEC
:1005E00020E030E0A901C701B6010E943B0CB12C0C
:1005F000A12C87FF0AC06DE28DE992E00E944101C3
:100600005C01F7FAF094F7F8F0942AE037ED43EA4A
:100610005BE3C701B6010E94FA0D2B013C010E9469
:100620006D0E6B017C010E94400C9B01AC01C3016B
:10063000B2010E94F90D2B013C014AE0C701B6014D
:100640000E9413027C01EA0CFB1C6EE28DE992E031
:100650000E944101E80EF91E20E030E040E251E442
:10066000C301B2010E94A10C2B013C010E946D0E3E
:100670004B01B12CA12C4AE0C501B4010E94130228
:10068000E80EF91EC501B4010E94400C9B01AC01AB
:10069000C301B2010E94F90D20E030E040E251E4D4
:1006A0000E94A10C0E946D0E90E080E04AE00E9442
:1006B0001302E80EF91E4FCFCF93DF9397FF0CC0C4
:1006C0000E945702EC0182E291E00E9406028C0F28
:1006D0009D1FDF91CF9108954AE00E941302F2CF4F
:1006E000CF93DF93EC0180913A0390913B03009705
:1006F000E9F06881798161157105B1F040913C03A1
:1007000050913D032C813D814217530768F00E94B0
:10071000A0108C819D8190933F0380933E031D82A6
:100720001C82DF91CF9108950E94480F88819981A2
:1007300090933B0380933A038A819B8190933D037E
:1007400080933C038C819D8190933F0380933E0373
:10075000198218821B821A82E2CFFC01808191816A
:10076000009711F00C94480F0895FC012481358105
:10077000232B39F421E0FB018081882349F020E01C
:1007800007C0808191810E94971021E0892BB9F7E1
:10079000822F0895EF92FF920F931F93CF93DF93D1
:1007A000EC017B018A0188819981009729F02A81D7
:1007B0003B812417350788F4B8016F5F7F4F0E9493
:1007C000D10F009791F0998388831B830A832C8132
:1007D0003D81232B11F4FC0110821D830C83B70192
:1007E000888199810E94A0100CC08881998100970E
:1007F00011F00E94480F198218821D821C821B82F0
:100800001A82CE01DF91CF911F910F91FF90EF904F
:100810000895FC01118210821382128215821482C3
:1008200050E040E064E271E00C94CA03FC010190E6
:100830000020E9F73197AF01481B590BBC0186E452
:1008400093E00C94CA03CF93DF93EC0199B189B183
:10085000933A11F0813A01F581E391E00E94160488
:10086000198218821B821A821D821C8283E0C63480
:10087000D80771F0609146037091470361157105C7
:1008800039F040914A0350914B03CE010E94CA03B4
:10089000CE01DF91CF91089599B189B1933B11F0C9
:1008A000813B19F488E391E0D9CF99B189B1933CA8
:1008B00011F0813C19F485E491E0D0CF99B189B170
:1008C000913611F0833619F48AE491E0C7CF99B1DB
:1008D00089B1913F11F08F3E19F48FE391E0BECFC3
:1008E00080E591E0BBCF1F920F920FB60F921124BB
:1008F0002F933F934F935F936F937F938F939F9328
:10090000AF93BF93EF93FF938DE992E00E941F0195
:10091000FF91EF91BF91AF919F918F917F916F91D7
:100920005F914F913F912F910F900FBE0F901F90AD
:1009300018951F920F920FB60F9211242F938F9339
:100940009F93EF93FF93E091AD02F091AE0280810F
:10095000E091B302F091B40282FD1BC090818091BE
:10096000B6028F5F8F732091B702821741F0E0913A
:10097000B602F0E0E356FD4F958F8093B602FF91EB
:10098000EF919F918F912F910F900FBE0F901F901D
:1009900018958081F4CF1F920F920FB60F921124F9
:1009A0002F933F938F939F93AF93BF93809199021F
:1009B00090919A02A0919B02B0919C0230916402A6
:1009C00023E0230F2D3758F50196A11DB11D20936B
:1009D00064028093990290939A02A0939B02B09331
:1009E0009C028091650290916602A0916702B0918D
:1009F00068020196A11DB11D809365029093660265
:100A0000A0936702B0936802BF91AF919F918F91BD
:100A10003F912F910F900FBE0F901F90189526E8D1
:100A2000230F0296A11DB11DD2CFEDE9F2E0138292
:100A3000128288EE93E0A0E0B0E084839583A683E1
:100A4000B78384E191E09183808385EC90E0958782
:100A5000848784EC90E09787868780EC90E0918B88
:100A6000808B81EC90E0938B828B82EC90E0958B75
:100A7000848B86EC90E0978B868B118E128E138E72
:100A8000148E86E493E00E94090480E493E00E94BF
:100A900009048AE393E00C940904CF93DF93CDB764
:100AA000DEB764970FB6F894DEBF0FBECDBF789463
:100AB00084B5826084BD84B5816084BD85B5826063
:100AC00085BD85B5816085BD80916E008160809314
:100AD0006E0010928100809181008260809381007D
:100AE000809181008160809381008091800081608D
:100AF000809380008091B10084608093B1008091E8
:100B0000B00081608093B00080917A00846080930F
:100B10007A0080917A00826080937A0080917A00D6
:100B2000816080937A0080917A00806880937A0057
:100B30001092C100E091AD02F091AE0282E080839C
:100B4000E091A902F091AA021082E091AB02F0912B
:100B5000AC0280E180831092B502E091B102F09185
:100B6000B20286E08083E091AF02F091B002808112
:100B700080618083E091AF02F091B0028081886053
:100B80008083E091AF02F091B00280818068808321
:100B9000E091AF02F091B00280818F7D80838DE97A
:100BA00092E00E949D0085E591E00E94060282E2AB
:100BB00091E00E9406021AB887E084B915B881EE68
:100BC0008BB910E000E05801AA0CBB1CAA0CBB1C9E
:100BD00021E030E02C0F3D1FA20EB31E8DE992E004
:100BE0000E94FF001816190674F70E94BF00FC014E
:100BF00097FD36C18D32910509F04CC0412C512C26
:100C000020E8622E2FE3722EC12CD12C7601912C7C
:100C1000812CE130F10559F1ED32F10509F447C0BD
:100C2000EE32F10509F446C0CF01C0970A97F8F4F7
:100C3000AAE0B0E0A70196010E947E0D6F01FF0FB0
:100C4000EE08FF08C60ED71EE81EF91E30E3C31AD1
:100C5000D108E108F108992051F02DEC3CEC4CEC66
:100C60005DE3C301B2010E94A10C2B013C018DE99F
:100C700092E00E949D000E94BF00FC01C0970A976D
:100C800040F2EE32F105C9F4992019F2882049F1B9
:100C9000982C19C0C0970A9708F4B0CFEE32F1052E
:100CA00009F4ACCF8DE992E00E949D009ECF88248C
:100CB0008394DDCF99249394DACFE130F10509F4E0
:100CC000A8CF882041F0F094E094D094C094C11C47
:100CD000D11CE11CF11CC701B6010E94420C9920F5
:100CE00041F0C701B6010E94420CA30192010E948B
:100CF000A10CD5016D937D938D939D935D010F5F45
:100D00001F4F043011050CF469CF49805A806B8065
:100D10007C804092690250926A0260926B027092EB
:100D20006C028D809E80AF80B884C501B4010E94A2
:100D3000660E60936D0270936E0280936F029093C3
:100D40007002C984DA84EB84FC84C0928702D0925A
:100D50008802E0928902F0928A022D853E854F85B5
:100D60005889298B3A8B4B8B5C8B20938B02309369
:100D70008C0240938D0250938E0288E691E00E948F
:100D80009002C301B2010E94920281E791E00E94A9
:100D90009002C501B4010E94920289E791E00E948D
:100DA0009002C701B6010E94920286E891E00E947B
:100DB000900269897A898B899C890E94920280912C
:100DC00001018F93809100018F9383E991E09F93BC
:100DD0008F938FE892E09F938F930E94A7108FE8E4
:100DE00092E00E9490020E94AE014AE00E9413022B
:100DF00089E991E00E9490028091000190910101A7
:100E00000E94780281E090E090939802809397028C
:100E10008DE992E00E949D008DE992E00E949D0084
:100E20000F900F900F900F900F900F9098E0292E39
:100E3000312C02E010E0E0919702F0919802319796
:100E4000E830F10508F0A2C1E85DF84F0C94A60E59
:100E500034074508D308080A6B0AB40A080B340B98
:100E600060E070E0CB0145CF8DE992E00E949D00EB
:100E7000F12CE12C6701CC0CDD1CCC0CDD1C41E01D
:100E800050E04C0F5D1FC40ED51E8DE992E00E940C
:100E9000FF001816190674F70E94BF00FC0197FDA9
:100EA000F0C08D32910521F0C0970A9708F0E1C09B
:100EB000812C912C5401712CE130F105D9F0ED32E7
:100EC000F10509F4DBC0CF01C0970A9798F4AAE0B6
:100ED000B0E0A50194010E947E0D4F01FF0FAA080A
:100EE000BB08860E971EA81EB91E50E3851A9108EE
:100EF000A108B1088DE992E00E949D000E94BF0008
:100F0000FC01C0970A97C0F2E130F105A9F2772001
:100F100041F0B094A09490948094811C911CA11CE9
:100F2000B11CC501B4010E94420CD6016D937D93A2
:100F30008D939D936D01BFEFEB1AFB0AE3E0EE1674
:100F4000F1040CF4A2CF49805A806B807C80C301ED
:100F5000B2010E94660E70930501609304018D80BA
:100F60009E80AF80B884C501B4010E94660E709364
:100F7000030160930201C984DA84EB84FC84C70115
:100F8000B6010E94660E70939602609395028FE8F8
:100F900092E00E94900282EA91E00E949002C301D6
:100FA000B2010E9492028FE892E00E9490028DEAC4
:100FB00091E00E949002C501B4010E9492028FE864
:100FC00092E00E94900285EB91E00E949002C7019E
:100FD000B6010E94920260918B0270918C02809106
:100FE0008D0290918E020E94660E6B017C016091D1
:100FF0008702709188028091890290918A020E94F2
:10100000660E4B015C018C149D04AE04BF0474F4A5
:10101000C818D908EA08FB080E94E30BA70196014B
:101020000E945F0D860E971EA81EB91EC501B40151
:101030000E94420C60938302709384028093850225
:10104000909386028FE892E00E94900282ED91E0F8
:101050000E949002609183027091840280918502C7
:10106000909186020E949202109398020093970238
:101070008DC08DE992E00E949D000ECF772473947D
:1010800039CF812C912C54014CCFCE0101960E9476
:10109000230461E371E0CE0101960E94B503F82EAE
:1010A000CE0101960E94AD03FF2009F46FC08FEBC3
:1010B00091E00E94060282E291E00E9406028FB750
:1010C000F8944090990250909A0260909B02709020
:1010D0009C028FBFF1E0F0938202C12CD12C7601EB
:1010E000C701B60164197509860997090E94420C67
:1010F00020918302309184024091850250918602B2
:101100000E943B0C87FF1EC08FB7F894C0909902D5
:10111000D0909A02E0909B02F0909C028FBFCE018B
:1011200001960E94230461E371E0CE0101960E94C2
:10113000B503B82ECE0101960E94AD03B110D0CFF9
:101140001092820280918202882301F10E94AE01F6
:101150006B017C01C0927E02D0927F02E0928002FD
:10116000F09281028FE892E00E9490028FEC91E071
:101170000E949002C701B6010E945C0383E090E0E8
:10118000909398028093970210927D0280E090E005
:10119000892B09F450CE0E940B01882309F449CE13
:1011A0000E94000046CE0E94AE01C0907E02D09008
:1011B0007F02E0908002F09081026C197D098E0917
:1011C0009F096093790270937A0280937B029093D7
:1011D0007C02CE0101960E942304CE0101960E945A
:1011E0007003CE0101960E94AD0340913E035091E1
:1011F0003F0360913A0370913B038DE992E00E94B6
:10120000610082E291E00E94060268E371E08AE3F5
:1012100093E00E94B503C0907D02DD24D394DC24CA
:10122000AD2CB12C90E08D219B21892B01F10E94E6
:10123000AE0160937502709376028093770290936B
:1012400078028FE892E00E9490028CED91E00E947B
:101250009002609175027091760280917702909170
:1012600078020E945C0321E020937D028FCF60E52D
:1012700071E08AE393E00E94B503E82EF12CA822E6
:10128000BF20AB28E9F00E94AE0160937502709315
:10129000760280937702909378028FE892E00E9422
:1012A000900284EE91E00E9490026091750270912C
:1012B000760280917702909178020E945C03D4CEEE
:1012C0006091790270917A0280917B0290917C0208
:1012D0000E94420C4B015C01609195027091960254
:1012E000072E000C880B990B0E94420C20E030E086
:1012F0004AE754E40E94A10C9B01AC01C501B40172
:101300000E949C0E18161CF5DD2009F10E94AE010A
:1013100060937502709376028093770290937802BF
:101320008FE892E00E94900281EF91E00E9490028B
:1013300060917502709176028091770290917802A7
:101340000E945C0330929802209297021FCF61E3C3
:1013500071E08AE393E00E94B503D12C90E08C21E8
:101360009D21892B19F10E94AE0160937502709343
:10137000760280937702909378028FE892E00E9441
:10138000900281E092E00E9490026091750270915B
:10139000760280917702909178020E945C0344E08B
:1013A00050E05093980240939702F0CE6FE371E0C3
:1013B0008AE393E00E94B50390E08C219D21892B64
:1013C00089F00E94AE01609375027093760280935B
:1013D0007702909378028FE892E00E9490028AE070
:1013E00092E061CFEC20FD20EF2809F4CFCE0E94DF
:1013F000AE016093750270937602809377029093AA
:1014000078028FE892E00E94900287E192E04BCF51
:10141000CE0101960E942304CE0101960E94700322
:10142000CE0101960E94AD0365E471E08AE393E08A
:101430000E94B5038823B9F10E94AE016093750242
:1014400070937602809377029093780281E090E027
:1014500090937402809373028FE892E00E9490024E
:1014600084E292E00E94900260917502709176028F
:1014700080917702909178020E945C038FE892E05D
:101480000E9490028EE292E00E949002809173028C
:10149000909174020E947802A5E0B0E0B0939802A7
:1014A000A093970273CE6AE471E08AE393E00E940E
:1014B000B503882309F46ACE0E94AE0160937502D9
:1014C000709376028093770290937802109374025F
:1014D00000937302C1CF8091040190910501209186
:1014E00073023091740282179307D9F4E1E0F0E0BF
:1014F000F0937202E093710227E030E0309398029B
:10150000209397028FE892E00E94900287E392E096
:101510000E94900280917102909172020E94780262
:1015200035CE8336910559F49093720280937102FF
:101530000E94E30B3092980220929702E3CF109220
:101540007202109271028091020190910301813028
:10155000910539F446E050E0509398024093970289
:10156000D1CF892B39F3CECF0E94AE0160937502A3
:101570007093760280937702909378028FE892E0DE
:101580000E94900285E492E00E94900260917502B0
:101590007091760280917702909178020E945C03AC
:1015A00060E070E0CB01C0907502D0907602E090D0
:1015B0007702F09078029B01AC012C193D094E098D
:1015C0005F0969017A0120916D0230916E024091AC
:1015D0006F0250917002A8EEB3E00E947E0DC61615
:1015E000D706E806F9061CF40E94AE01DCCF0E9483
:1015F000AE016093750270937602809377029093A8
:1016000078028FE892E00E9490028BE492E08ECE06
:101610000E94AE0160937502709376028093770208
:1016200090937802809173029091740281309105B9
:10163000B1F431E035B96091690270916A0280912C
:101640006B0290916C020E946D0E0E94D30115B83E
:101650008FE892E00E94900282E592E067CE0297C6
:10166000B9F784E085B9E7CF0E94AE0160937502B7
:101670007093760280937702909378028FE892E0DD
:101680000E94900289E592E00E94900260917502AA
:101690007091760280917702909178020E945C03AB
:1016A0008091000190910101019690930101809336
:1016B00000019F938F9343E951E05F934F938FE82D
:1016C00092E09F938F930E94A7108FE892E00E9470
:1016D00090020E94AE014AE00E94130289E991E063
:1016E0000E94900280910001909101010E94780275
:1016F0008DE992E00E94FF000F900F900F900F90E5
:101700000F900F90892B21F08DE992E00E949D00AF
:10171000A1E0B0E0C3CE8AE393E00E94AD0380E491
:1017200093E00E94AD0386E493E00C94AD038F92A6
:101730009F92AF92BF92CF92DF92EF92FF92CF93A0
:10174000DF93EC01688179818A819B816115710544
:101750008105910521F464E279ED8BE597E02DE1B7
:1017600033EF41E050E00E945F0D49015A019B01B7
:10177000AC01A7EAB1E40E947E0D6B017C01ACEEE6
:10178000B4EFA50194010E948C0DC60ED71EE81E71
:10179000F91EF7FE06C081E0C81AD108E10880E80A
:1017A000F80AC882D982EA82FB82C701B6019F7714
:1017B000DF91CF91FF90EF90DF90CF90BF90AF90EF
:1017C0009F908F9008958F929F92AF92BF92CF92E9
:1017D000DF92EF92FF926091060170910701809174
:1017E000080190910901611571058105910521F4A8
:1017F00064E279ED8BE597E02DE133EF41E050E0D5
:101800000E945F0D49015A019B01AC01A7EAB1E4B6
:101810000E947E0D6B017C01ACEEB4EFA50194013A
:101820000E948C0DC60ED71EE81EF91EF7FE06C0DC
:1018300081E0C81AD108E10880E8F80AC0920601E0
:10184000D0920701E0920801F0920901C701B601A8
:101850009F77FF90EF90DF90CF90BF90AF909F90D9
:101860008F9008956093060170930701809308019B
:101870009093090108950E947D0C08F481E0089579
:10188000E89409C097FB3EF490958095709561951A
:101890007F4F8F4F9F4F9923A9F0F92F96E9BB27D0
:1018A0009395F695879577956795B795F111F8CF4C
:1018B000FAF4BB0F11F460FF1BC06F5F7F4F8F4FB7
:1018C0009F4F16C0882311F096E911C0772321F0AD
:1018D0009EE8872F762F05C0662371F096E8862F45
:1018E00070E060E02AF09A95660F771F881FDAF79C
:1018F000880F9695879597F90895990F0008550FC9
:10190000AA0BE0E8FEEF16161706E807F907C0F085
:1019100012161306E407F50798F0621B730B840B8D
:10192000950B39F40A2661F0232B242B252B21F467
:1019300008950A2609F4A140A6958FEF811D811D07
:1019400008950E94B40C0C94250D0E94170D38F0D8
:101950000E941E0D20F0952311F00C940E0D0C9496
:10196000140D11240C94590D0E94360D70F3959F9F
:10197000C1F3950F50E0551F629FF001729FBB2786
:10198000F00DB11D639FAA27F00DB11DAA1F649F22
:101990006627B00DA11D661F829F2227B00DA11DD5
:1019A000621F739FB00DA11D621F839FA00D611D5B
:1019B000221F749F3327A00D611D231F849F600D7C
:1019C000211D822F762F6A2F11249F5750409AF0A5
:1019D000F1F088234AF0EE0FFF1FBB1F661F771F31
:1019E000881F91505040A9F79E3F510580F00C94FC
:1019F0000E0D0C94590D5F3FE4F3983ED4F3869599
:101A000077956795B795F795E7959F5FC1F7FE2B9B
:101A1000880F911D9695879597F9089597F99F6777
:101A200080E870E060E008959FEF80EC0895002466
:101A30000A941616170618060906089500240A9433
:101A400012161306140605060895092E0394000CB9
:101A500011F4882352F0BB0F40F4BF2B11F460FF48
:101A600004C06F5F7F4F8F4F9F4F089557FD905871
:101A7000440F551F59F05F3F71F04795880F97FB52
:101A8000991F61F09F3F79F087950895121613060C
:101A90001406551FF2CF4695F1DF08C0161617063B
:101AA0001806991FF1CF8695710561050894089570
:101AB000E894BB2766277727CB0197F90895052E71
:101AC00097FB1EF400940E94760D57FD07D00E94EC
:101AD000C80D07FC03D04EF40C94760D509540953C
:101AE000309521953F4F4F4F5F4F089590958095CA
:101AF000709561957F4F8F4F9F4F08950E94EA0D1B
:101B0000A59F900DB49F900DA49F800D911D112451
:101B10000895B7FF0C947E0D0E947E0D821B930BDF
:101B200008952F923F924F925F926F927F928F9281
:101B30009F92AF92BF92CF92DF92EF92FF920F935C
:101B40001F93CF93DF93CDB7DEB7CA1BDB0B0FB666
:101B5000F894DEBF0FBECDBF09942A883988488823
:101B60005F846E847D848C849B84AA84B984C884B9
:101B7000DF80EE80FD800C811B81AA81B981CE0FB0
:101B8000D11D0FB6F894DEBF0FBECDBFED01089595
:101B9000A1E21A2EAA1BBB1BFD010DC0AA1FBB1F71
:101BA000EE1FFF1FA217B307E407F50720F0A21BE3
:101BB000B30BE40BF50B661F771F881F991F1A9450
:101BC00069F760957095809590959B01AC01BD017A
:101BD000CF010895A29FB001B39FC001A39F700DD4
:101BE000811D1124911DB29F700D811D1124911D25
:101BF00008955058BB27AA270E94110E0C94250D5A
:101C00000E94170D38F00E941E0D20F039F49F3FFE
:101C100019F426F40C94140D0EF4E095E7FB0C94E3
:101C20000E0DE92F0E94360D58F3BA17620773079D
:101C30008407950720F079F4A6F50C94580D0EF45E
:101C4000E0950B2EBA2FA02D0B01B90190010C01CC
:101C5000CA01A0011124FF27591B99F0593F50F4E4
:101C6000503E68F11A16F040A22F232F342F44273C
:101C7000585FF3CF469537952795A795F040539534
:101C8000C9F77EF41F16BA0B620B730B840BBAF004
:101C90009150A1F0FF0FBB1F661F771F881FC2F76F
:101CA0000EC0BA0F621F731F841F48F48795779583
:101CB0006795B795F7959E3F08F0B0CF9395880F3D
:101CC00008F09927EE0F9795879508950E946D0E5D
:101CD0006894B1110C94590D08950E943E0D88F03E
:101CE0009F5798F0B92F9927B751B0F0E1F0660FE0
:101CF000771F881F991F1AF0BA95C9F714C0B13021
:101D000091F00E94580DB1E008950C94580D672F82
:101D1000782F8827B85F39F0B93FCCF3869577954F
:101D20006795B395D9F73EF4909580957095619538
:101D30007F4F8F4F9F4F08950E947D0C08F48FEFC7
:101D400008950E947D0C880B990B0895EE0FFF1FDC
:101D50000590F491E02D09940F931F93CF93DF9397
:101D60008230910510F482E090E0E0914E03F09112
:101D70004F0330E020E0B0E0A0E0309799F4211567
:101D8000310509F44AC0281B390B24303105D8F538
:101D90008A819B816115710589F1FB01938382839F
:101DA000FE0111C0408151810281138148175907FA
:101DB000E0F04817590799F4109761F012960C93C8
:101DC000129713961C933296CF01DF91CF911F91FA
:101DD0000F91089500934E0310934F03F4CF2115F4
:101DE000310551F04217530738F0A901DB019A0180
:101DF000BD01DF01F801C1CFEF01F9CF90934F038F
:101E000080934E03CDCFFE01E20FF31F8193919398
:101E10002250310939832883D7CF20914C03309148
:101E20004D03232B41F420910C0130910D0130938F
:101E30004D0320934C0320910A0130910B01211591
:101E4000310541F42DB73EB740910E0150910F017D
:101E5000241B350BE0914C03F0914D03E217F3077F
:101E6000A0F42E1B3F0B2817390778F0AC014E5F0A
:101E70005F4F2417350748F04E0F5F1F50934D03F7
:101E800040934C03819391939FCFF0E0E0E09CCF8F
:101E9000CF93DF930097E9F0FC013297138212820F
:101EA000A0914E03B0914F03ED0130E020E0109778
:101EB000A1F420813181820F931F20914C03309136
:101EC0004D032817390709F061C0F0934D03E093E3
:101ED0004C03DF91CF910895EA01CE17DF07E8F5B3
:101EE0004A815B819E0141155105B1F7E901FB83F0
:101EF000EA8349915991C40FD51FEC17FD0761F48E
:101F0000808191810296840F951FE90199838883CE
:101F1000828193819B838A83F0E0E0E012968D9129
:101F20009C9113970097B9F52D913C911197CD0194
:101F30000296820F931F20914C0330914D03281776
:101F4000390739F6309751F510924F0310924E032E
:101F5000B0934D03A0934C03BCCFD383C283408185
:101F60005181840F951FC817D90761F44E5F5F4FE9
:101F700088819981480F591F518340838A819B81B1
:101F8000938382832115310509F0B0CFF0934F037D
:101F9000E0934E039ECFFD01DC01C0CF138212827D
:101FA000D7CFB0E0A0E0E7EDFFE00C94930D8C01FB
:101FB000009751F4CB010E94AC0E8C01C801CDB743
:101FC000DEB7E0E10C94AF0DFC01E60FF71F9C01BA
:101FD00022503109E217F30708F49DC0D901CD91D1
:101FE000DC911197C617D70798F0C530D10530F3AB
:101FF000CE0104978617970708F3C61BD70B2297C5
:10200000C193D1936D937C93CF010E94480FD6CF9B
:102010005B01AC1ABD0A4C018C0E9D1EA0914E03B3
:10202000B0914F03512C412CF12CE12C109731F53C
:1020300080914C0390914D038815990509F05CC07F
:102040004616570608F058C080910A0190910B017E
:10205000009741F48DB79EB740910E0150910F014A
:10206000841B950BE817F90708F055C0F0934D0352
:10207000E0934C03F90171836083A0CF8D919C9113
:10208000119712966C90129713967C901397A8153F
:10209000B90559F56C0142E0C40ED11CCA14DB0429
:1020A00020F1AC014A195B09DA011296159780F00C
:1020B0006282738251834083D9016D937C93E114D2
:1020C000F10471F0D7011396FC93EE93129776CF3B
:1020D00022968C0F9D1FF90191838083F301EFCF2E
:1020E000F0934F03E0934E0369CF4816590608F466
:1020F0002C017D01D3019ACFCB010E94AC0E7C0153
:10210000009749F0AE01B8010E948E10C8010E94EC
:10211000480F870153CF10E000E050CFFB01DC01F6
:1021200002C001900D9241505040D8F70895FB0134
:10213000DC018D91019080190110D9F3990B08955C
:10214000FB01DC0101900D920020E1F70895AEE063
:10215000B0E0EDEAF0E10C949F0D0D891E8986E058
:102160008C831A8309838FEF9FE79E838D83AE0153
:10217000475E5F4F6F89788DCE0101960E94CA102D
:102180002F813885020F131FF80110822E96E4E08C
:102190000C94BB0DABE0B0E0E0EDF0E10C94910DE0
:1021A0007C013B018A01FC0117821682838181FF39
:1021B000C8C1CE0101965C01F7019381F30193FD43
:1021C000859193FF81913F01882309F453C18532A2
:1021D00039F493FD859193FF81913F01853229F474
:1021E000B70190E00E94BA12E7CF912C212C312C3C
:1021F000FFE1F31538F08B3211F190F4803209F1E0
:10220000833229F137FC3CC020ED280F2A3050F5ED
:1022100036FE20C08AE0989E200D1124922E06C022
:102220008D3291F0803371F7689430F8F30193FDAB
:10223000859193FF81913F018111DACF21C068948C
:1022400031F8689432F8F2CF689433F8EFCF68949D
:1022500034F8ECCFEAE02E9E200D1124222E689453
:1022600035F8E4CF8E3229F436FC04C1689436F890
:10227000DDCF8C3619F4689437F8D8CF8836B1F2B0
:10228000982F9F7D95549330E0F08336A1F18337EA
:10229000C1F1833509F063C02801F2E04F0E511CF3
:1022A000F801C080D180692D70E036FC02C06FEF6C
:1022B0007FEFC6010E94A4124C01689437F8820196
:1022C0000AC00C5F1F4FFFE3F98388248394912C8D
:1022D0006501E89437F833FE2DC0522C8114910427
:1022E00071F5552009F468CFB70180E290E00E94B3
:1022F000BA125A94F6CFF801808189830E5F1F4F7E
:10230000E4CF2801F2E04F0E511CF801C080D180CB
:10231000692D70E036FC02C06FEF7FEFC6010E94AE
:10232000AF124C018201D5CFB70180E290E00E944C
:10233000BA122A942814190409F0B0F7CECFF60186
:1023400037FC859137FE81916F01B70190E00E94C3
:10235000BA1251105A94F1E08F1A9108BFCF843607
:1023600019F0893609F077C0F80137FE6BC060813B
:102370007181828193810C5F1F4FF32DFF763F2E79
:1023800097FF09C090958095709561957F4F8F4F0D
:102390009F4F689437F82AE030E0A5010E94EA12C6
:1023A000C82ECA188C2C432C36FE0CC0E89440F87A
:1023B000C91440F434FE05C032FC03C0F32DFE7E88
:1023C0004F2E892C44FE95C0FE01EC0DF11D80813D
:1023D000803309F087C0242D297E422E842D8870F9
:1023E000582E43FC95C040FE8FC09C2C821418F4DC
:1023F0002C0C922C981844FE91C0B70180E390E019
:102400000E94BA1242FE09C088E790E041FE02C075
:1024100088E590E0B7010E94BA12C91408F48AC096
:10242000CA94D12C9FEFC91AD90ACA0CDB1CF60139
:1024300082916F01B70190E00E94BA12AC14BD0402
:10244000B1F74FCF60817181072E000C880B990B7B
:102450000E5F1F4F92CFD32CE894D4F82AE030E0DF
:10246000853739F1232D297FD22E8F3601F148F49B
:102470008835A9F0F701868197812B96E2E10C94CB
:10248000AD0D803749F08837A9F7D4FE02C06894B3
:10249000D2F820E130E00DC06894D4F8F6CF34FED5
:1024A00003C0822F8660D82E20E132E002C028E0EF
:1024B00030E0F801D7FE0FC0608171818281938185
:1024C0000C5F1F4FA5010E94EA12C82ECA183D2CAE
:1024D000E89437F867CF6081718190E080E00E5F0B
:1024E0001F4FF0CF42FC02C0839478CF8394839433
:1024F00075CF842D867809F471CFF6CFB70180E2CD
:1025000090E00E94BA1283948214C0F3512C73CFCE
:10251000522C5818821408F46ECFF8CF842D867888
:1025200009F47BCF8BE241FE80E247FC8DE2B701EC
:1025300090E071CFB70180E390E00E94BA129A94C4
:102540006CCF8FEF9FEF99CFFC01059061507040E9
:102550000110D8F7809590958E0F9F1F0895FC016C
:102560006150704001900110D8F7809590958E0FC2
:102570009F1F08950F931F93CF93DF93182F092F59
:10258000EB018B8181FD09C01FEF0FEF812F902F91
:10259000DF91CF911F910F91089582FF14C02E817A
:1025A0003F818C819D81281739073CF4E881F981AE
:1025B000CF0101969983888310838E819F81019634
:1025C0009F838E83E3CFE885F985812F0995892B39
:1025D000A1F3DACFFA01AA27283051F1203181F195
:1025E000E8946F936E7F6E5F7F4F8F4F9F4FAF4F1B
:1025F000B1E03ED0B4E03CD0670F781F891F9A1F2E
:10260000A11D680F791F8A1F911DA11D6A0F711DE1
:10261000811D911DA11D20D009F468943F912AE0ED
:10262000269F11243019305D3193DEF6CF010895D5
:10263000462F4770405D4193B3E00FD0C9F7F6CF06
:10264000462F4F70405D4A3318F0495D31FD4052CE
:10265000419302D0A9F7EACFB4E0A6959795879564
:1026600077956795BA95C9F7009761057105089543
:102670009B01AC010A2E06945795479537952795EF
:10268000BA95C9F7620F731F841F951FA01D089587
:1026900010E0C5E3D0E004C0FE010E94A60E219622
:0A26A000C633D107C9F7F894FFCF45
:1026AA000100010002000100000000005003800048
:1026BA0000000000410161008E008E01FF009D00B4
:1026CA00B1000D0A006E616E00696E66006F766673
:1026DA000063656E7465720063656E7465725F612E
:1026EA007564696F006C6566740072696768740066
:1026FA006E6F6E650073657269616C5F6573746194
:10270A00626C69736865640052455754494D4520A7
:10271A0000544F54494D452000484F4C4454494DAC
:10272A00454D494E2000484F4C4454494D454D4172
:10273A0058200025303464200020545249414C4F1F
:10274A004E00545249414C5459504520004749566D
:10275A0045544F2000415544494F44555220006387
:10276A00656E746572206E6F7365706F6B65004578
:10277A004E44484F4C4454494D4520005354494D0A
:10278A004F4E20004541524C594445505F3031204C
:10279A00004E4F415544494F4F4E4556454E5420E1
:1027AA00005354494D4F464620004541524C594426
:1027BA0045505F303220004541524C594445505FE4
:1027CA00303320005245535054494D45200052455C
:1027DA0053504449522000545249414C4F55544396
:1027EA004F4D452000544F4F4E2000544F4F464600
:1027FA0020005245574F4E2000545249414C454EF5
:04280A004420000066
:00000001FF
