:100000000C9436000C945E000C945E000C945E0020
:100010000C945E000C945E000C945E000C945E00E8
:100020000C945E000C945E000C945E000C945E00D8
:100030000C945E000C945E000C945E000C945E00C8
:100040000C94BC040C945E000C948A040C9464041C
:100050000C945E000C945E000C945E000C945E00A8
:100060000C945E000C945E000605930B11241FBED9
:10007000CFEFD8E0DEBFCDBF12E0A0E0B1E0E2EB11
:10008000F6E202C005900D92AA35B107D9F723E038
:10009000AAE5B2E001C01D92A034B207E1F710E07A
:1000A000C5E3D0E004C02197FE010E94AA0EC4332C
:1000B000D107C9F70E9450050C944C130C94000012
:1000C0000895AF92BF92CF92DF92EF92FF920F937B
:1000D0001F93CF93DF936C017B018B01040F151FDE
:1000E000EB015E01AE18BF08C017D10759F0699146
:1000F000D601ED91FC910190F081E02DC6010995AA
:10010000892B79F7C501DF91CF911F910F91FF9056
:10011000EF90DF90CF90BF90AF900895FC01538D8A
:10012000448D252F30E0842F90E0821B930B5417D1
:1001300010F0CF96089501970895FC01918D828D5E
:10014000981761F0A28DAE0FBF2FB11D5D968C91F7
:10015000928D9F5F9F73928F90E008958FEF9FEF36
:100160000895FC01918D828D981731F0828DE80FF2
:10017000F11D858D90E008958FEF9FEF0895FC01AC
:10018000918D228D892F90E0805C9F4F821B910979
:100190008F739927089583E992E00E94BF0021E0C0
:1001A000892B09F420E0822F089580E090E0892BCC
:1001B00029F00E94CB0081110C9400000895FC01ED
:1001C000A48DA80FB92FB11DA35ABF4F2C91848DB8
:1001D00090E001968F739927848FA689B7892C9315
:1001E000A089B1898C91837080648C93938D848D68
:1001F000981306C00288F389E02D80818F7D80836B
:100200000895EF92FF920F931F93CF93DF93EC012A
:1002100081E0888F9B8D8C8D98131AC0E889F989AD
:10022000808185FF15C09FB7F894EE89FF896083B0
:10023000E889F98980818370806480839FBF81E031
:1002400090E0DF91CF911F910F91FF90EF90089573
:10025000F62E0B8D10E00F5F1F4F0F731127E02E4E
:100260008C8D8E110CC00FB607FCFACFE889F98986
:10027000808185FFF5CFCE010E94DF00F1CFEB8DAD
:10028000EC0FFD2FF11DE35AFF4FF0829FB7F8945A
:100290000B8FEA89FB8980818062CFCFCF93DF9378
:1002A000EC01888D8823B9F0AA89BB89E889F9898E
:1002B0008C9185FD03C0808186FD0DC00FB607FCC3
:1002C000F7CF8C9185FFF2CF808185FFEDCFCE01F6
:1002D0000E94DF00E9CFDF91CF9108953FB7F894F6
:1002E00080915F0290916002A0916102B0916202E0
:1002F00026B5A89B05C02F3F19F00196A11DB11D81
:100300003FBFBA2FA92F982F8827BC01CD01620FBC
:10031000711D811D911D42E0660F771F881F991F77
:100320004A95D1F708958F929F92AF92BF92CF9244
:10033000DF92EF92FF926B017C010E946E014B01F4
:100340005C01C114D104E104F104B9F00E946E0112
:10035000681979098A099B09683E734081059105EE
:1003600080F321E0C21AD108E108F10888EE880E76
:1003700083E0981EA11CB11CE4CFFF90EF90DF90AA
:10038000CF90BF90AF909F908F9008952FB7F89423
:1003900060915B0270915C0280915D0290915E02BF
:1003A0002FBF08950F931F930E94C60160939B0275
:1003B00070939C0280939D0290939E0283E992E049
:1003C0000E94B10097FF1DC00E94C60100919B02D0
:1003D00010919C0220919D0230919E02601B710B36
:1003E000820B930B00919702109198022091990231
:1003F00030919A026017710782079307F8F28FEF26
:100400009FEF1F910F910895FC0101900020E9F7E3
:100410003197AF01481B590BBC0183E992E00C9462
:1004200061008F929F92AF92BF920F931F93CF93D1
:10043000DF93CDB7DEB7A1970FB6F894DEBF0FBE3E
:10044000CDBF19A2423008F44AE08E010F5D1F4F64
:10045000842E912CB12CA12CA50194010E94CC0DCD
:10046000E62FB901CA01EA30F4F4E05DD801EE9359
:100470008D01232B242B252B79F790E080E010971A
:1004800019F0CD010E940402A1960FB6F894DEBFC8
:100490000FBECDBFDF91CF911F910F91BF90AF9055
:1004A0009F908F900895E95CE1CFCF92DF92EF9219
:1004B000FF92CF93DF936B017C016DE283E992E0C1
:1004C0000E940101EC0166277727CB016C197D0999
:1004D0008E099F094AE00E9411028C0F9D1FDF9137
:1004E000CF91FF90EF90DF90CF900895CF93DF935F
:1004F000BC01990F880B990B97FF0CC00E94550205
:10050000EC0182E291E00E9404028C0F9D1FDF91BA
:10051000CF9108954AE00E941102F2CF0C94040298
:10052000CF93DF9397FF0CC00E945502EC0182E24B
:1005300091E00E9404028C0F9D1FDF91CF910895DE
:100540004AE00E941102F2CF4F925F926F927F9227
:100550008F929F92AF92BF92CF92DF92EF92FF92D3
:100560006B017C01AC019B010E94A50E8823C1F0A8
:1005700085E291E00E9404027C0182E291E00E9407
:1005800004028E0D9F1DFF90EF90DF90CF90BF90E3
:10059000AF909F908F907F906F905F904F90089555
:1005A00046015701E894B7F82FEF3FEF4FE75FE7B9
:1005B000C501B4010E94A50E81110DC02FEF3FEFC0
:1005C0004FE75FE7C501B4010E943F0C18161CF409
:1005D00089E291E0CFCF2FEF3FEF4FE75FE4C70114
:1005E000B6010E94A00E18161CF48DE291E0C2CF55
:1005F0002FEF3FEF4FE75FECC701B6010E943F0CC2
:1006000087FDF3CF20E030E0A901C701B6010E94C9
:100610003F0CB12CA12C87FF0AC06DE283E992E068
:100620000E9401015C01F7FAF094F7F8F0942AE0D7
:1006300037ED43EA5BE3C701B6010E94FE0D2B01D3
:100640003C010E94710E6B017C010E94440C9B01D5
:10065000AC01C301B2010E94FD0D2B013C014AE037
:10066000C701B6010E9411027C01EA0CFB1C6EE27C
:1006700083E992E00E940101E80EF91E20E030E0DB
:1006800040E251E4C301B2010E94A50C2B013C01E0
:100690000E94710E4B01B12CA12C4AE0C501B4019E
:1006A0000E941102E80EF91EC501B4010E94440C1B
:1006B0009B01AC01C301B2010E94FD0D20E030E0BE
:1006C00040E251E40E94A50C0E94710E90E080E08F
:1006D0004AE00E941102E80EF91E4FCFCF93DF933C
:1006E000EC0180913003909131030097E9F068812B
:1006F000798161157105B1F0409132035091330356
:100700002C813D814217530768F00E94A4108C8110
:100710009D8190933503809334031D821C82DF9169
:10072000CF9108950E944C0F888199819093310355
:10073000809330038A819B819093330380933203AB
:100740008C819D81909335038093340319821882A4
:100750001B821A82E2CFFC0180819181009711F007
:100760000C944C0F0895FC0124813581232B39F41E
:1007700021E0FB018081882349F020E007C08081CF
:1007800091810E949B1021E0892BB9F7822F089557
:10079000EF92FF920F931F93CF93DF93EC017B01B6
:1007A0008A0188819981009729F02A813B81241749
:1007B000350788F4B8016F5F7F4F0E94D50F00970F
:1007C00091F0998388831B830A832C813D81232B9D
:1007D00011F4FC0110821D830C83B701888199817B
:1007E0000E94A4100CC088819981009711F00E948A
:1007F0004C0F198218821D821C821B821A82CE0124
:10080000DF91CF911F910F91FF90EF900895FC0120
:1008100001900020E9F73197AF01481B590BBC014B
:1008200086E393E00C94C803CF93DF93EC0199B176
:1008300089B1933A11F0813A01F581E391E00E9488
:100840000704198218821B821A821D821C8283E08F
:10085000C633D80771F06091360370913703611584
:10086000710539F040913A0350913B03CE010E944B
:10087000C803CE01DF91CF91089599B189B1933B1F
:1008800011F0813B19F488E391E0D9CF99B189B196
:10089000933C11F0813C19F485E491E0D0CF99B1FB
:1008A00089B1913611F0833619F48AE491E0C7CF0B
:1008B00099B189B1913F11F08F3E19F48FE391E026
:1008C000BECF80E591E0BBCF1F920F920FB60F9283
:1008D00011242F933F934F935F936F937F938F9345
:1008E0009F93AF93BF93EF93FF9383E992E00E94AE
:1008F000DF00FF91EF91BF91AF919F918F917F9119
:100900006F915F914F913F912F910F900FBE0F907C
:100910001F9018951F920F920FB60F9211242F93CC
:100920008F939F93EF93FF93E091A302F091A40222
:100930008081E091A902F091AA0282FD1BC0908102
:100940008091AC028F5F8F732091AD02821741F0CE
:10095000E091AC02F0E0ED56FD4F958F8093AC0234
:10096000FF91EF919F918F912F910F900FBE0F905C
:100970001F9018958081F4CF1F920F920FB60F929F
:1009800011242F933F938F939F93AF93BF938091A5
:100990005B0290915C02A0915D02B0915E02309189
:1009A0005A0223E0230F2D3758F50196A11DB11DE2
:1009B00020935A0280935B0290935C02A0935D02A5
:1009C000B0935E0280915F0290916002A0916102FB
:1009D000B09162020196A11DB11D80935F029093B8
:1009E0006002A0936102B0936202BF91AF919F91A8
:1009F0008F913F912F910F900FBE0F901F901895E0
:100A000026E8230F0296A11DB11DD2CFE3E9F2E043
:100A10001382128288EE93E0A0E0B0E08483958395
:100A2000A683B78384E191E09183808385EC90E095
:100A30009587848784EC90E09787868780EC90E0A8
:100A4000918B808B81EC90E0938B828B82EC90E099
:100A5000958B848B86EC90E0978B868B118E128E13
:100A6000138E148EE6E3F3E0118210821382128259
:100A70001582148250E040E064E271E0CF010E94F0
:100A8000C803E0E3F3E01182108213821282158220
:100A9000148250E040E064E271E0CF010C94C8039E
:100AA000CF93DF93CDB7DEB764970FB6F894DEBF70
:100AB0000FBECDBF789484B5826084BD84B581605B
:100AC00084BD85B5826085BD85B5816085BD809119
:100AD0006E00816080936E00109281008091810091
:100AE0008260809381008091810081608093810089
:100AF000809180008160809380008091B10084604B
:100B00008093B1008091B00081608093B0008091AB
:100B10007A00846080937A0080917A00826080936A
:100B20007A0080917A00816080937A0080917A00C7
:100B3000806880937A001092C100E091A302F09146
:100B4000A40282E08083E0919F02F091A0021082D3
:100B5000E091A102F091A20280E180831092AB02A9
:100B6000E091A702F091A80286E08083E091A502BF
:100B7000F091A602808180618083E091A502F091CE
:100B8000A602808188608083E091A502F091A60290
:100B9000808180688083E091A502F091A602808127
:100BA0008F7D808383E992E00E949D0085E591E03E
:100BB0000E94040282E291E00E9404021AB887E0D7
:100BC00084B915B881EE8BB910E000E05801AA0C89
:100BD000BB1CAA0CBB1C21E030E02C0F3D1FA20E59
:100BE000B31E83E992E00E94BF001816190674F73D
:100BF0000E94D201FC0197FD49C18D32910509F097
:100C00004CC0412C512C20E8622E2FE3722EC12CB7
:100C1000D12C7601912C812CE130F10559F1ED3286
:100C2000F10509F447C0EE32F10509F446C0CF01E1
:100C3000C0970A97F8F4AAE0B0E0A70196010E94D5
:100C4000820D6F01FF0FEE08FF08C60ED71EE81ECB
:100C5000F91E30E3C31AD108E108F108992051F0D8
:100C60002DEC3CEC4CEC5DE3C301B2010E94A50C01
:100C70002B013C0183E992E00E949D000E94D20179
:100C8000FC01C0970A9740F2EE32F105C9F49920B1
:100C900019F2882049F1982C19C0C0970A9708F4D6
:100CA000B0CFEE32F10509F4ACCF83E992E00E94B7
:100CB0009D009ECF88248394DDCF99249394DACF2E
:100CC000E130F10509F4A8CF882041F0F094E094D8
:100CD000D094C094C11CD11CE11CF11CC701B60109
:100CE0000E94460C992041F0C701B6010E94460CB3
:100CF000A30192010E94A50CD5016D937D938D9364
:100D00009D935D010F5F1F4F043011050CF469CFF7
:100D100049805A806B807C804092630250926402CA
:100D200060926502709266028D809E80AF80B8846A
:100D3000C501B4010E946A0E609367027093680255
:100D40008093690290936A02C984DA84EB84FC84FC
:100D5000C0928102D0928202E0928302F0928402D9
:100D60002D853E854F855889298B3A8B4B8B5C8B23
:100D70002093850230938602409387025093880225
:100D800088E691E00E948E02C301B2010E94A40293
:100D900081E791E00E948E02C501B4010E94A40285
:100DA00089E791E00E948E02C701B6010E94A40269
:100DB00086E891E00E948E0269897A898B899C89F4
:100DC0000E94A4020E94C6016B017C01C114D104DF
:100DD000E104F10411F00E94360C83E991E00E94D5
:100DE0008E02C701B6010E949002809101018F938B
:100DF000809100018F9389E991E09F938F9389E817
:100E000092E09F938F930E94AB1089E892E00E943A
:100E10008E020E946E014AE00E9411028FE991E069
:100E20000E948E0280910001909101010E94760241
:100E300081E090E0909392028093910283E992E0A6
:100E40000E949D0083E992E00E949D000F900F9008
:100E50000F900F900F900F9098E0292E312C02E008
:100E600010E0E0919102F09192023197E830F105A3
:100E700008F0A8C1E25CF84F0C94AA0E4A075B0880
:100E8000EF08100A6F0AB80A0C0B380B60E070E02C
:100E9000CB0132CF83E992E00E949D00F12CE12C3E
:100EA0006701CC0CDD1CCC0CDD1C41E050E04C0F8C
:100EB0005D1FC40ED51E83E992E00E94BF00181684
:100EC000190674F70E94D201FC0197FDF0C08D3223
:100ED000910521F0C0970A9708F0E1C0812C912C70
:100EE0005401712CE130F105D9F0ED32F10509F42E
:100EF000DBC0CF01C0970A9798F4AAE0B0E0A50143
:100F000094010E94820D4F01FF0FAA08BB08860EB4
:100F1000971EA81EB91E50E3851A9108A108B108B2
:100F200083E992E00E949D000E94D201FC01C097DB
:100F30000A97C0F2E130F105A9F2772041F0B094B0
:100F4000A09490948094811C911CA11CB11CC5019B
:100F5000B4010E94460CD6016D937D938D939D93B1
:100F60006D01BFEFEB1AFB0AE3E0EE16F1040CF49F
:100F7000A2CF49805A806B807C80C301B2010E945D
:100F80006A0E70930501609304018D809E80AF808E
:100F9000B884C501B4010E946A0E70930301609386
:100FA0000201C984DA84EB84FC84C701B6010E9483
:100FB0006A0E7093900260938F0289E892E00E941B
:100FC0008E0288EA91E00E948E02C301B2010E9463
:100FD000A40289E892E00E948E0283EB91E00E94D5
:100FE0008E02C501B4010E94A40289E892E00E9429
:100FF0008E028BEB91E00E948E02C701B6010E9427
:10100000A40260918502709186028091870290917E
:1010100088020E946A0E6B017C01609181027091CE
:10102000820280918302909184020E946A0E4B0199
:101030005C018C149D04AE04BF0474F4C818D90874
:10104000EA08FB080E94E70BA70196010E94630DC6
:10105000860E971EA81EB91EC501B4010E94460C3B
:1010600060937D0270937E0280937F029093800252
:1010700089E892E00E948E0288EC91E00E948E0244
:1010800060917D0270917E0280917F02909180023A
:101090000E94A402109392020093910293C083E9EC
:1010A00092E00E949D000ECF7724739439CF812C5B
:1010B000912C54014CCFCE0101960E94140461E39F
:1010C00071E0CE0101960E94B303F82ECE01019685
:1010D0000E94AB03FF2009F475C00E94C6012B01DA
:1010E0003C01F1E0F0937C02C12CD12C7601C701C8
:1010F000B60164197509860997090E94460C20916A
:101100007D0230917E0240917F02509180020E94C8
:101110003F0C87FF17C00E94C6016B017C01CE0106
:1011200001960E94140461E371E0CE0101960E94D1
:10113000B303B82ECE0101960E94AB03B110D7CFF6
:1011400010927C0280917C028823E1F10E946E0162
:101150006B017C01C0927802D0927902E0927A020F
:10116000F0927B0289E892E00E948E0285EC91E089
:101170000E948E02C701B6010E94900283E090E0B7
:101180009093920280939102109277020E94E70B53
:1011900024E630E040E050E00E94630D65307105C8
:1011A000810591057CF482E085B9609163027091BC
:1011B000640280916502909166020E94710E0E9405
:1011C000930115B880E090E0892B09F44ACE0E9483
:1011D000CB00882309F443CE0E9400003DCE0E943C
:1011E0006E01C0907802D0907902E0907A02F0907F
:1011F0007B024B015C018C189D08AE08BF088092F1
:10120000730290927402A0927502B0927602CE019F
:1012100001960E941404CE0101960E946E03CE0135
:1012200001960E94AB0368E371E080E393E00E94C3
:10123000B30370907702662463946724C62CD12C84
:1012400090E086219D21892B01F10E946E0160931F
:101250006F0270937002809371029093720289E81A
:1012600092E00E948E0282ED91E00E948E026091D7
:101270006F027091700280917102909172020E94CF
:10128000900221E0209377029DCF60E571E080E33A
:1012900093E00E94B303E82EF12CC822DF20CD2872
:1012A000E9F00E946E0160936F0270937002809368
:1012B00071029093720289E892E00E948E028AED98
:1012C00091E00E948E0260916F0270917002809195
:1012D0007102909172020E949002DCCEC501B401AD
:1012E0000E94460C4B015C0160918F02709190024C
:1012F000072E000C880B990B0E94460C20E030E072
:101300004AE754E40E94A50C9B01AC01C501B4015D
:101310000E94A00E18161CF5662009F10E946E01AD
:1013200060936F02709370028093710290937202C7
:1013300089E892E00E948E0287EE91E00E948E0280
:1013400060916F02709170028091710290917202AF
:101350000E949002309292022092910233CF61E378
:1013600071E080E393E00E94B303D12C90E08721E9
:101370009D21892B19F10E946E0160936F02709379
:101380007002809371029093720289E892E00E9449
:101390008E0287EF91E00E948E0260916F02709141
:1013A000700280917102909172020E94900284E01A
:1013B00090E0909392028093910204CF6FE371E0EA
:1013C00080E393E00E94B30390E087219D21892B65
:1013D00089F00E946E0160936F0270937002809397
:1013E00071029093720289E892E00E948E0280E07E
:1013F00092E067CFE720FD20EF2809F4E3CE0E94BA
:101400006E0160936F0270937002809371029093EB
:10141000720289E892E00E948E028DE092E051CF44
:10142000CE0101960E941404CE0101960E946E0323
:10143000CE0101960E94AB0365E471E080E393E086
:101440000E94B303882399F10E946E0160936F029A
:1014500070937002809371029093720241E050E0A9
:1014600050936E0240936D0289E892E00E948E02D2
:101470008AE192E00E948E0260916F027091700288
:1014800080917102909172020E94900289E892E02C
:101490000E948E0284E292E00E948E0280916D0290
:1014A00090916E020E94760285E090E082CF6AE41D
:1014B00071E080E393E00E94B303882309F482CEB5
:1014C0000E946E0160936F027093700280937102AC
:1014D0009093720210936E0200936D02C5CF8091BB
:1014E00004019091050120916D0230916E028217E6
:1014F0009307D9F4A1E0B0E0B0936C02A0936B0223
:10150000E7E0F0E0F0939202E093910289E892E044
:101510000E948E028DE292E00E948E0280916B0208
:1015200090916C020E9476024DCE8336910559F45B
:1015300090936C0280936B020E94E70B30929202B0
:1015400020929102E3CF10926C0210926B02809174
:101550000201909103018130910539F426E030E0D9
:101560003093920220939102D1CF892B39F3CECFC1
:101570000E946E0160936F027093700280937102FB
:101580009093720289E892E00E948E028BE392E0CF
:101590000E948E0260916F027091700280917102C0
:1015A000909172020E94900260E070E0CB01C090C6
:1015B0006F02D0907002E0907102F09072029B0175
:1015C000AC012C193D094E095F0969017A0120918E
:1015D0006702309168024091690250916A02A8EE58
:1015E000B3E00E94820DC616D706E806F9061CF481
:1015F0000E946E01DCCF0E946E0160936F027093B7
:101600007002809371029093720289E892E00E94C6
:101610008E0281E492E092CE0E946E0160936F028E
:1016200070937002809371029093720280916D02A8
:1016300090916E0281309105B1F431E035B960913D
:1016400063027091640280916502909166020E942B
:10165000710E0E94930115B889E892E00E948E02F3
:1016600088E492E06BCE0297B9F784E085B9E7CFC2
:101670000E946E0160936F027093700280937102FA
:101680009093720289E892E00E948E028FE492E0C9
:101690000E948E0260916F027091700280917102BF
:1016A000909172020E94900280910001909101013C
:1016B000019690930101809300019F938F9349E9D4
:1016C00051E05F934F9389E892E09F938F930E943C
:1016D000AB1089E892E00E948E020E946E014AE0FF
:1016E0000E9411028FE991E00E948E028091000118
:1016F000909101010E94760283E992E00E94BF006E
:101700000F900F900F900F900F900F90892B21F05A
:1017100083E992E00E949D00A1E0B0E0B0939202C4
:10172000A09391024FCD80E393E00E94AB0386E348
:1017300093E00C94AB038F929F92AF92BF92CF92A3
:10174000DF92EF92FF92CF93DF93EC016881798172
:101750008A819B81611571058105910521F464E2FF
:1017600079ED8BE597E02DE133EF41E050E00E9409
:10177000630D49015A019B01AC01A7EAB1E40E9443
:10178000820D6B017C01ACEEB4EFA50194010E94C7
:10179000900DC60ED71EE81EF91EF7FE06C081E0AA
:1017A000C81AD108E10880E8F80AC882D982EA821A
:1017B000FB82C701B6019F77DF91CF91FF90EF9039
:1017C000DF90CF90BF90AF909F908F9008958F92B1
:1017D0009F92AF92BF92CF92DF92EF92FF92609171
:1017E000060170910701809108019091090161152E
:1017F00071058105910521F464E279ED8BE597E0AF
:101800002DE133EF41E050E00E94630D49015A01A0
:101810009B01AC01A7EAB1E40E94820D6B017C013F
:10182000ACEEB4EFA50194010E94900DC60ED71E38
:10183000E81EF91EF7FE06C081E0C81AD108E108CB
:1018400080E8F80AC0920601D0920701E0920801F0
:10185000F0920901C701B6019F77FF90EF90DF90EA
:10186000CF90BF90AF909F908F90089560930601A6
:1018700070930701809308019093090108950E94D5
:10188000810C08F481E00895E89409C097FB3EF4C8
:1018900090958095709561957F4F8F4F9F4F9923BD
:1018A000A9F0F92F96E9BB279395F695879577953B
:1018B0006795B795F111F8CFFAF4BB0F11F460FFFB
:1018C0001BC06F5F7F4F8F4F9F4F16C0882311F053
:1018D00096E911C0772321F09EE8872F762F05C067
:1018E000662371F096E8862F70E060E02AF09A9502
:1018F000660F771F881FDAF7880F9695879597F9F7
:101900000895990F0008550FAA0BE0E8FEEF161690
:101910001706E807F907C0F012161306E407F507E3
:1019200098F0621B730B840B950B39F40A2661F057
:10193000232B242B252B21F408950A2609F4A140FA
:10194000A6958FEF811D811D08950E94B80C0C94FF
:10195000290D0E941B0D38F00E94220D20F09523C6
:1019600011F00C94120D0C94180D11240C945D0DB3
:101970000E943A0D70F3959FC1F3950F50E0551FEB
:10198000629FF001729FBB27F00DB11D639FAA27D4
:10199000F00DB11DAA1F649F6627B00DA11D661F23
:1019A000829F2227B00DA11D621F739FB00DA11D44
:1019B000621F839FA00D611D221F749F3327A00DFE
:1019C000611D231F849F600D211D822F762F6A2F9A
:1019D00011249F5750409AF0F1F088234AF0EE0FFF
:1019E000FF1FBB1F661F771F881F91505040A9F72C
:1019F0009E3F510580F00C94120D0C945D0D5F3FDD
:101A0000E4F3983ED4F3869577956795B795F79567
:101A1000E7959F5FC1F7FE2B880F911D96958795DF
:101A200097F9089597F99F6780E870E060E008955E
:101A30009FEF80EC089500240A94161617061806E6
:101A40000906089500240A941216130614060506C2
:101A50000895092E0394000C11F4882352F0BB0F53
:101A600040F4BF2B11F460FF04C06F5F7F4F8F4FB6
:101A70009F4F089557FD9058440F551F59F05F3FF1
:101A800071F04795880F97FB991F61F09F3F79F0A0
:101A900087950895121613061406551FF2CF469522
:101AA000F1DF08C0161617061806991FF1CF8695A4
:101AB0007105610508940895E894BB276627772788
:101AC000CB0197F90895052E97FB1EF400940E9410
:101AD0007A0D57FD07D00E94CC0D07FC03D04EF4C1
:101AE0000C947A0D50954095309521953F4F4F4F6E
:101AF0005F4F089590958095709561957F4F8F4FBA
:101B00009F4F08950E94EE0DA59F900DB49F900DDC
:101B1000A49F800D911D11240895B7FF0C94820D90
:101B20000E94820D821B930B08952F923F924F9239
:101B30005F926F927F928F929F92AF92BF92CF925D
:101B4000DF92EF92FF920F931F93CF93DF93CDB766
:101B5000DEB7CA1BDB0B0FB6F894DEBF0FBECDBFDE
:101B600009942A88398848885F846E847D848C84AF
:101B70009B84AA84B984C884DF80EE80FD800C81B8
:101B80001B81AA81B981CE0FD11D0FB6F894DEBF9B
:101B90000FBECDBFED010895A1E21A2EAA1BBB1BFB
:101BA000FD010DC0AA1FBB1FEE1FFF1FA217B30729
:101BB000E407F50720F0A21BB30BE40BF50B661F3F
:101BC000771F881F991F1A9469F760957095809503
:101BD00090959B01AC01BD01CF010895A29FB0017A
:101BE000B39FC001A39F700D811D1124911DB29F51
:101BF000700D811D1124911D08955058BB27AA27EF
:101C00000E94150E0C94290D0E941B0D38F00E94A5
:101C1000220D20F039F49F3F19F426F40C94180D8E
:101C20000EF4E095E7FB0C94120DE92F0E943A0D9B
:101C300058F3BA17620773078407950720F079F401
:101C4000A6F50C945C0D0EF4E0950B2EBA2FA02D8A
:101C50000B01B90190010C01CA01A0011124FF2759
:101C6000591B99F0593F50F4503E68F11A16F04054
:101C7000A22F232F342F4427585FF3CF4695379553
:101C80002795A795F0405395C9F77EF41F16BA0B18
:101C9000620B730B840BBAF09150A1F0FF0FBB1FC6
:101CA000661F771F881FC2F70EC0BA0F621F731F0F
:101CB000841F48F4879577956795B795F7959E3F6C
:101CC00008F0B0CF9395880F08F09927EE0F9795FD
:101CD000879508950E94710E6894B1110C945D0D62
:101CE00008950E94420D88F09F5798F0B92F9927C8
:101CF000B751B0F0E1F0660F771F881F991F1AF0F7
:101D0000BA95C9F714C0B13091F00E945C0DB1E0F2
:101D100008950C945C0D672F782F8827B85F39F0F1
:101D2000B93FCCF3869577956795B395D9F73EF48F
:101D300090958095709561957F4F8F4F9F4F089537
:101D40000E94810C08F48FEF08950E94810C880B8B
:101D5000990B0895EE0FFF1F0590F491E02D099463
:101D60000F931F93CF93DF938230910510F482E09D
:101D700090E0E0913E03F0913F0330E020E0B0E0DE
:101D8000A0E0309799F42115310509F44AC0281BC9
:101D9000390B24303105D8F58A819B816115710595
:101DA00089F1FB0193838283FE0111C0408151813F
:101DB0000281138148175907E0F04817590799F431
:101DC000109761F012960C93129713961C9332960B
:101DD000CF01DF91CF911F910F91089500933E03A2
:101DE00010933F03F4CF2115310551F042175307EB
:101DF00038F0A901DB019A01BD01DF01F801C1CF73
:101E0000EF01F9CF90933F0380933E03CDCFFE01C6
:101E1000E20FF31F81939193225031093983288374
:101E2000D7CF20913C0330913D03232B41F42091E7
:101E30000C0130910D0130933D0320933C03209120
:101E40000A0130910B012115310541F42DB73EB740
:101E500040910E0150910F01241B350BE0913C0382
:101E6000F0913D03E217F307A0F42E1B3F0B281758
:101E7000390778F0AC014E5F5F4F2417350748F003
:101E80004E0F5F1F50933D0340933C03819391930A
:101E90009FCFF0E0E0E09CCFCF93DF930097E9F095
:101EA000FC01329713821282A0913E03B0913F034E
:101EB000ED0130E020E01097A1F420813181820F04
:101EC000931F20913C0330913D032817390709F0F7
:101ED00061C0F0933D03E0933C03DF91CF910895FF
:101EE000EA01CE17DF07E8F54A815B819E014115C3
:101EF0005105B1F7E901FB83EA8349915991C40F78
:101F0000D51FEC17FD0761F4808191810296840F43
:101F1000951FE90199838883828193819B838A83BA
:101F2000F0E0E0E012968D919C9113970097B9F53F
:101F30002D913C911197CD010296820F931F209114
:101F40003C0330913D032817390739F6309751F596
:101F500010923F0310923E03B0933D03A0933C03C5
:101F6000BCCFD383C28340815181840F951FC81792
:101F7000D90761F44E5F5F4F88819981480F591FDF
:101F8000518340838A819B8193838283211531050C
:101F900009F0B0CFF0933F03E0933E039ECFFD01E5
:101FA000DC01C0CF13821282D7CFB0E0A0E0EBED0E
:101FB000FFE00C94970D8C01009751F4CB010E9427
:101FC000B00E8C01C801CDB7DEB7E0E10C94B30DC3
:101FD000FC01E60FF71F9C0122503109E217F307BD
:101FE00008F49DC0D901CD91DC911197C617D70790
:101FF00098F0C530D10530F3CE01049786179707C6
:1020000008F3C61BD70B2297C193D1936D937C9392
:10201000CF010E944C0FD6CF5B01AC1ABD0A4C0118
:102020008C0E9D1EA0913E03B0913F03512C412C7C
:10203000F12CE12C109731F580913C0390913D03F8
:102040008815990509F05CC04616570608F058C077
:1020500080910A0190910B01009741F48DB79EB7D2
:1020600040910E0150910F01841B950BE817F90761
:1020700008F055C0F0933D03E0933C03F9017183F0
:102080006083A0CF8D919C91119712966C901297BE
:1020900013967C901397A815B90559F56C0142E089
:1020A000C40ED11CCA14DB0420F1AC014A195B092F
:1020B000DA011296159780F0628273825183408311
:1020C000D9016D937C93E114F10471F0D70113965B
:1020D000FC93EE93129776CF22968C0F9D1FF901F9
:1020E00091838083F301EFCFF0933F03E0933E03AE
:1020F00069CF4816590608F42C017D01D3019ACF07
:10210000CB010E94B00E7C01009749F0AE01B801EE
:102110000E949210C8010E944C0F870153CF10E01B
:1021200000E050CFFB01DC0102C001900D92415054
:102130005040D8F70895FB01DC018D910190801982
:102140000110D9F3990B0895FB01DC0101900D9268
:102150000020E1F70895AEE0B0E0E1EBF0E10C948F
:10216000A30D0D891E8986E08C831A8309838FEF66
:102170009FE79E838D83AE01475E5F4F6F89788DA9
:10218000CE0101960E94CE102F813885020F131FB9
:10219000F80110822E96E4E00C94BF0DABE0B0E0A5
:1021A000E4EDF0E10C94950D7C013B018A01FC010A
:1021B00017821682838181FFC8C1CE0101965C011E
:1021C000F7019381F30193FD859193FF81913F0185
:1021D000882309F453C1853239F493FD859193FF27
:1021E00081913F01853229F4B70190E00E94BE122F
:1021F000E7CF912C212C312CFFE1F31538F08B32F5
:1022000011F190F4803209F1833229F137FC3CC09E
:1022100020ED280F2A3050F536FE20C08AE0989E27
:10222000200D1124922E06C08D3291F0803371F76B
:10223000689430F8F30193FD859193FF81913F01FC
:102240008111DACF21C0689431F8689432F8F2CF66
:10225000689433F8EFCF689434F8ECCFEAE02E9E20
:10226000200D1124222E689435F8E4CF8E3229F403
:1022700036FC04C1689436F8DDCF8C3619F46894C6
:1022800037F8D8CF8836B1F2982F9F7D9554933088
:10229000E0F08336A1F18337C1F1833509F063C0E3
:1022A0002801F2E04F0E511CF801C080D180692D49
:1022B00070E036FC02C06FEF7FEFC6010E94A812EB
:1022C0004C01689437F882010AC00C5F1F4FFFE38E
:1022D000F98388248394912C6501E89437F833FEC0
:1022E0002DC0522C8114910471F5552009F468CF4A
:1022F000B70180E290E00E94BE125A94F6CFF80136
:10230000808189830E5F1F4FE4CF2801F2E04F0EDA
:10231000511CF801C080D180692D70E036FC02C0EC
:102320006FEF7FEFC6010E94B3124C018201D5CF3F
:10233000B70180E290E00E94BE122A94281419048A
:1023400009F0B0F7CECFF60137FC859137FE8191C9
:102350006F01B70190E00E94BE1251105A94F1E053
:102360008F1A9108BFCF843619F0893609F077C0EB
:10237000F80137FE6BC060817181828193810C5FAF
:102380001F4FF32DFF763F2E97FF09C09095809544
:10239000709561957F4F8F4F9F4F689437F82AE073
:1023A00030E0A5010E94EE12C82ECA188C2C432CD6
:1023B00036FE0CC0E89440F8C91440F434FE05C061
:1023C00032FC03C0F32DFE7E4F2E892C44FE95C0B7
:1023D000FE01EC0DF11D8081803309F087C0242DB2
:1023E000297E422E842D8870582E43FC95C040FED5
:1023F0008FC09C2C821418F42C0C922C981844FE3C
:1024000091C0B70180E390E00E94BE1242FE09C075
:1024100088E790E041FE02C088E590E0B7010E94A5
:10242000BE12C91408F48AC0CA94D12C9FEFC91AED
:10243000D90ACA0CDB1CF60182916F01B70190E04A
:102440000E94BE12AC14BD04B1F74FCF6081718100
:10245000072E000C880B990B0E5F1F4F92CFD32CC9
:10246000E894D4F82AE030E0853739F1232D297F2C
:10247000D22E8F3601F148F48835A9F0F701868114
:1024800097812B96E2E10C94B10D803749F08837A3
:10249000A9F7D4FE02C06894D2F820E130E00DC064
:1024A0006894D4F8F6CF34FE03C0822F8660D82E0D
:1024B00020E132E002C028E030E0F801D7FE0FC092
:1024C00060817181828193810C5F1F4FA5010E9401
:1024D000EE12C82ECA183D2CE89437F867CF6081F9
:1024E000718190E080E00E5F1F4FF0CF42FC02C090
:1024F000839478CF8394839475CF842D867809F460
:1025000071CFF6CFB70180E290E00E94BE128394B3
:102510008214C0F3512C73CF522C5818821408F433
:102520006ECFF8CF842D867809F47BCF8BE241FE05
:1025300080E247FC8DE2B70190E071CFB70180E304
:1025400090E00E94BE129A946CCF8FEF9FEF99CFCC
:10255000FC010590615070400110D8F7809590956E
:102560008E0F9F1F0895FC01615070400190011073
:10257000D8F7809590958E0F9F1F08950F931F9306
:10258000CF93DF93182F092FEB018B8181FD09C0B9
:102590001FEF0FEF812F902FDF91CF911F910F91A0
:1025A000089582FF14C02E813F818C819D81281760
:1025B00039073CF4E881F981CF010196998388833A
:1025C00010838E819F8101969F838E83E3CFE88560
:1025D000F985812F0995892BA1F3DACFFA01AA2772
:1025E000283051F1203181F1E8946F936E7F6E5F56
:1025F0007F4F8F4F9F4FAF4FB1E03ED0B4E03CD004
:10260000670F781F891F9A1FA11D680F791F8A1FE6
:10261000911DA11D6A0F711D811D911DA11D20D04D
:1026200009F468943F912AE0269F11243019305D07
:102630003193DEF6CF010895462F4770405D4193F8
:10264000B3E00FD0C9F7F6CF462F4F70405D4A3345
:1026500018F0495D31FD4052419302D0A9F7EACF0D
:10266000B4E0A6959795879577956795BA95C9F73C
:1026700000976105710508959B01AC010A2E06942F
:102680005795479537952795BA95C9F7620F731FE8
:10269000841F951FA01D089510E0C5E3D0E004C07D
:1026A000FE010E94AA0E2196C633D107C9F7F894FD
:0226B000FFCF5A
:1026B2000100010002000100000000004003800050
:1026C20000000000010161008E004E01BF009D006C
:1026D200B1000D0A006E616E00696E66006F76666B
:1026E2000063656E7465720063656E7465725F6126
:1026F2007564696F006C656674007269676874005E
:102702006E6F6E650073657269616C5F657374618B
:10271200626C69736865640052455754494D45209F
:1027220000544F54494D452000484F4C4454494DA4
:10273200454D494E2000484F4C4454494D454D416A
:1027420058200053454544200025303464200020A1
:10275200545249414C4F4E00545249414C545950E5
:1027620045200047495645544F2000415544494FA2
:102772004455522000454E44484F4C4454494D451F
:1027820020005354494D4F4E20004541524C59446C
:1027920045505F303120004E4F415544494F4F4E16
:1027A2004556454E5420005354494D4F464620004D
:1027B2004541524C594445505F3032200045415208
:1027C2004C594445505F30332000524553505449D0
:1027D2004D4520005245535044495220005452491D
:1027E200414C4F5554434F4D452000544F4F4E20BE
:1027F20000544F4F464620005245574F4E2000543A
:0A2802005249414C454E44200000AD
:00000001FF
