:100000000C9436000C945E000C945E000C945E0020
:100010000C945E000C945E000C945E000C945E00E8
:100020000C945E000C945E000C945E000C945E00D8
:100030000C945E000C945E000C945E000C945E00C8
:100040000C94BC040C945E000C948A040C9464041C
:100050000C945E000C945E000C945E000C945E00A8
:100060000C945E000C945E000605A90B11241FBEC3
:10007000CFEFD8E0DEBFCDBF12E0A0E0B1E0EEED03
:10008000F6E202C005900D92A037B107D9F723E040
:10009000A0E7B2E001C01D92AE35B207E1F710E073
:1000A000C5E3D0E004C02197FE010E94C00EC43316
:1000B000D107C9F70E9450050C9462130C940000FC
:1000C0000895AF92BF92CF92DF92EF92FF920F937B
:1000D0001F93CF93DF936C017B018B01040F151FDE
:1000E000EB015E01AE18BF08C017D10759F0699146
:1000F000D601ED91FC910190F081E02DC6010995AA
:10010000892B79F7C501DF91CF911F910F91FF9056
:10011000EF90DF90CF90BF90AF900895FC01538D8A
:10012000448D252F30E0842F90E0821B930B5417D1
:1001300010F0CF96089501970895FC01918D828D5E
:10014000981761F0A28DAE0FBF2FB11D5D968C91F7
:10015000928D9F5F9F73928F90E008958FEF9FEF36
:100160000895FC01918D828D981731F0828DE80FF2
:10017000F11D858D90E008958FEF9FEF0895FC01AC
:10018000918D228D892F90E0805C9F4F821B910979
:100190008F739927089581EB92E00E94BF0021E0C0
:1001A000892B09F420E0822F089580E090E0892BCC
:1001B00029F00E94CB0081110C9400000895FC01ED
:1001C000A48DA80FB92FB11DA35ABF4F2C91848DB8
:1001D00090E001968F739927848FA689B7892C9315
:1001E000A089B1898C91837080648C93938D848D68
:1001F000981306C00288F389E02D80818F7D80836B
:100200000895EF92FF920F931F93CF93DF93EC012A
:1002100081E0888F9B8D8C8D98131AC0E889F989AD
:10022000808185FF15C09FB7F894EE89FF896083B0
:10023000E889F98980818370806480839FBF81E031
:1002400090E0DF91CF911F910F91FF90EF90089573
:10025000F62E0B8D10E00F5F1F4F0F731127E02E4E
:100260008C8D8E110CC00FB607FCFACFE889F98986
:10027000808185FFF5CFCE010E94DF00F1CFEB8DAD
:10028000EC0FFD2FF11DE35AFF4FF0829FB7F8945A
:100290000B8FEA89FB8980818062CFCFCF93DF9378
:1002A000EC01888D8823B9F0AA89BB89E889F9898E
:1002B0008C9185FD03C0808186FD0DC00FB607FCC3
:1002C000F7CF8C9185FFF2CF808185FFEDCFCE01F6
:1002D0000E94DF00E9CFDF91CF9108953FB7F894F6
:1002E0008091750290917602A0917702B091780288
:1002F00026B5A89B05C02F3F19F00196A11DB11D81
:100300003FBFBA2FA92F982F8827BC01CD01620FBC
:10031000711D811D911D42E0660F771F881F991F77
:100320004A95D1F708958F929F92AF92BF92CF9244
:10033000DF92EF92FF926B017C010E946E014B01F4
:100340005C01C114D104E104F104B9F00E946E0112
:10035000681979098A099B09683E734081059105EE
:1003600080F321E0C21AD108E108F10888EE880E76
:1003700083E0981EA11CB11CE4CFFF90EF90DF90AA
:10038000CF90BF90AF909F908F9008952FB7F89423
:100390006091710270917202809173029091740267
:1003A0002FBF08950F931F930E94C6016093B90257
:1003B0007093BA028093BB029093BC0281EB92E0EF
:1003C0000E94B10097FF1DC00E94C6010091B902B2
:1003D0001091BA022091BB023091BC02601B710BDC
:1003E000820B930B0091B5021091B6022091B702D7
:1003F0003091B8026017710782079307F8F28FEF08
:100400009FEF1F910F910895FC0101900020E9F7E3
:100410003197AF01481B590BBC0181EB92E00C9462
:1004200061008F929F92AF92BF920F931F93CF93D1
:10043000DF93CDB7DEB7A1970FB6F894DEBF0FBE3E
:10044000CDBF19A2423008F44AE08E010F5D1F4F64
:10045000842E912CB12CA12CA50194010E94E20DB7
:10046000E62FB901CA01EA30F4F4E05DD801EE9359
:100470008D01232B242B252B79F790E080E010971A
:1004800019F0CD010E940402A1960FB6F894DEBFC8
:100490000FBECDBFDF91CF911F910F91BF90AF9055
:1004A0009F908F900895E95CE1CFCF92DF92EF9219
:1004B000FF92CF93DF936B017C016DE281EB92E0C1
:1004C0000E940101EC0166277727CB016C197D0999
:1004D0008E099F094AE00E9411028C0F9D1FDF9137
:1004E000CF91FF90EF90DF90CF900895CF93DF935F
:1004F000BC01990F880B990B97FF0CC00E94550205
:10050000EC0180E291E00E9404028C0F9D1FDF91BC
:10051000CF9108954AE00E941102F2CF0C94040298
:10052000CF93DF9397FF0CC00E945502EC0180E24D
:1005300091E00E9404028C0F9D1FDF91CF910895DE
:100540004AE00E941102F2CF4F925F926F927F9227
:100550008F929F92AF92BF92CF92DF92EF92FF92D3
:100560006B017C01AC019B010E94BB0E8823C1F092
:1005700083E291E00E9404027C0180E291E00E940B
:1005800004028E0D9F1DFF90EF90DF90CF90BF90E3
:10059000AF909F908F907F906F905F904F90089555
:1005A00046015701E894B7F82FEF3FEF4FE75FE7B9
:1005B000C501B4010E94BB0E81110DC02FEF3FEFAA
:1005C0004FE75FE7C501B4010E94550C18161CF4F3
:1005D00087E291E0CFCF2FEF3FEF4FE75FE4C70116
:1005E000B6010E94B60E18161CF48BE291E0C2CF41
:1005F0002FEF3FEF4FE75FECC701B6010E94550CAC
:1006000087FDF3CF20E030E0A901C701B6010E94C9
:10061000550CB12CA12C87FF0AC06DE281EB92E052
:100620000E9401015C01F7FAF094F7F8F0942AE0D7
:1006300037ED43EA5BE3C701B6010E94140E2B01BC
:100640003C010E94870E6B017C010E945A0C9B01A9
:10065000AC01C301B2010E94130E2B013C014AE020
:10066000C701B6010E9411027C01EA0CFB1C6EE27C
:1006700081EB92E00E940101E80EF91E20E030E0DB
:1006800040E251E4C301B2010E94BB0C2B013C01CA
:100690000E94870E4B01B12CA12C4AE0C501B40188
:1006A0000E941102E80EF91EC501B4010E945A0C05
:1006B0009B01AC01C301B2010E94130E20E030E0A7
:1006C00040E251E40E94BB0C0E94870E90E080E063
:1006D0004AE00E941102E80EF91E4FCFCF93DF933C
:1006E000EC0180914E0390914F030097E9F06881EF
:1006F000798161157105B1F040915003509151031A
:100700002C813D814217530768F00E94BA108C81FA
:100710009D8190935303809352031D821C82DF912D
:10072000CF9108950E94620F8881998190934F0321
:1007300080934E038A819B81909351038093500351
:100740008C819D8190935303809352031982188268
:100750001B821A82E2CFFC0180819181009711F007
:100760000C94620F0895FC0124813581232B39F408
:1007700021E0FB018081882349F020E007C08081CF
:1007800091810E94B11021E0892BB9F7822F089541
:10079000EF92FF920F931F93CF93DF93EC017B01B6
:1007A0008A0188819981009729F02A813B81241749
:1007B000350788F4B8016F5F7F4F0E94EB0F0097F9
:1007C00091F0998388831B830A832C813D81232B9D
:1007D00011F4FC0110821D830C83B701888199817B
:1007E0000E94BA100CC088819981009711F00E9474
:1007F000620F198218821D821C821B821A82CE010E
:10080000DF91CF911F910F91FF90EF900895FC0120
:1008100001900020E9F73197AF01481B590BBC014B
:1008200084E593E00C94C803CF93DF93EC0199B176
:1008300089B1933A11F0813A01F58FE291E00E947B
:100840000704198218821B821A821D821C8283E08F
:10085000C435D80771F06091540370915503611548
:10086000710539F04091580350915903CE010E940F
:10087000C803CE01DF91CF91089599B189B1933B1F
:1008800011F0813B19F486E391E0D9CF99B189B198
:10089000933C11F0813C19F483E491E0D0CF99B1FD
:1008A00089B1913611F0833619F488E491E0C7CF0D
:1008B00099B189B1913F11F08F3E19F48DE391E028
:1008C000BECF8EE491E0BBCF1F920F920FB60F9276
:1008D00011242F933F934F935F936F937F938F9345
:1008E0009F93AF93BF93EF93FF9381EB92E00E94AE
:1008F000DF00FF91EF91BF91AF919F918F917F9119
:100900006F915F914F913F912F910F900FBE0F907C
:100910001F9018951F920F920FB60F9211242F93CC
:100920008F939F93EF93FF93E091C102F091C202E6
:100930008081E091C702F091C80282FD1BC09081C6
:100940008091CA028F5F8F732091CB02821741F092
:10095000E091CA02F0E0EF54FD4F958F8093CA02F8
:10096000FF91EF919F918F912F910F900FBE0F905C
:100970001F9018958081F4CF1F920F920FB60F929F
:1009800011242F933F938F939F93AF93BF938091A5
:10099000710290917202A0917302B0917402309131
:1009A000700223E0230F2D3758F50196A11DB11DCC
:1009B000209370028093710290937202A09373024D
:1009C000B09374028091750290917602A0917702A3
:1009D000B09178020196A11DB11D8093750290938C
:1009E0007602A0937702B0937802BF91AF919F9166
:1009F0008F913F912F910F900FBE0F901F901895E0
:100A000026E8230F0296A11DB11DD2CFE1EBF2E043
:100A10001382128288EE93E0A0E0B0E08483958395
:100A2000A683B78382E191E09183808385EC90E097
:100A30009587848784EC90E09787868780EC90E0A8
:100A4000918B808B81EC90E0938B828B82EC90E099
:100A5000958B848B86EC90E0978B868B118E128E13
:100A6000138E148EE4E5F3E0118210821382128259
:100A70001582148250E040E062E271E0CF010E94F2
:100A8000C803EEE4F3E01182108213821282158211
:100A9000148250E040E062E271E0CF010C94C803A0
:100AA000CF93DF93CDB7DEB7A4970FB6F894DEBF30
:100AB0000FBECDBF789484B5826084BD84B581605B
:100AC00084BD85B5826085BD85B5816085BD809119
:100AD0006E00816080936E00109281008091810091
:100AE0008260809381008091810081608093810089
:100AF000809180008160809380008091B10084604B
:100B00008093B1008091B00081608093B0008091AB
:100B10007A00846080937A0080917A00826080936A
:100B20007A0080917A00816080937A0080917A00C7
:100B3000806880937A001092C100E091C102F09128
:100B4000C20282E08083E091BD02F091BE02108279
:100B5000E091BF02F091C00280E180831092C9024F
:100B6000E091C502F091C60286E08083E091C30265
:100B7000F091C402808180618083E091C302F09192
:100B8000C402808188608083E091C302F091C40236
:100B9000808180688083E091C302F091C4028081EB
:100BA0008F7D808381EB92E00E949D0083E591E040
:100BB0000E94040280E291E00E9404021AB887E0D9
:100BC00084B915B881EE8BB910E000E05801AA0C89
:100BD000BB1CAA0CBB1C21E030E02C0F3D1FA20E59
:100BE000B31E81EB92E00E94BF001816190674F73D
:100BF0000E94D201FC0197FD7DC18D32910509F063
:100C00004CC0412C512C20E8622E2FE3722EC12CB7
:100C1000D12C7601912C812CE130F10559F1ED3286
:100C2000F10509F447C0EE32F10509F446C0CF01E1
:100C3000C0970A97F8F4AAE0B0E0A70196010E94D5
:100C4000980D6F01FF0FEE08FF08C60ED71EE81EB5
:100C5000F91E30E3C31AD108E108F108992051F0D8
:100C60002DEC3CEC4CEC5DE3C301B2010E94BB0CEB
:100C70002B013C0181EB92E00E949D000E94D20179
:100C8000FC01C0970A9740F2EE32F105C9F49920B1
:100C900019F2882049F1982C19C0C0970A9708F4D6
:100CA000B0CFEE32F10509F4ACCF81EB92E00E94B7
:100CB0009D009ECF88248394DDCF99249394DACF2E
:100CC000E130F10509F4A8CF882041F0F094E094D8
:100CD000D094C094C11CD11CE11CF11CC701B60109
:100CE0000E945C0C992041F0C701B6010E945C0C87
:100CF000A30192010E94BB0CD5016D937D938D934E
:100D00009D935D010F5F1F4F063011050CF469CFF5
:100D100049805A806B807C8040928102509282028E
:100D200060928302709284028D809E80AF80B8842E
:100D300080927D0290927E02A0927F02B092800209
:100D400029853A854B855C85298F3A8F4B8F5C8F3F
:100D50002093790230937A0240937B0250937C0275
:100D6000CD84DE84EF84F888C701B6010E94800E2E
:100D70006093850270938602809387029093880225
:100D800089899A89AB89BC898D8F9E8FAF8FB8A3D3
:100D900080939F029093A002A093A102B093A2021D
:100DA0002D893E894F89588D29A33AA34BA35CA373
:100DB0002093A3023093A4024093A5025093A6026D
:100DC00086E691E00E948E02C301B2010E94A40255
:100DD00081E791E00E948E02C501B4010E94A40245
:100DE0008CE791E00E948E02698D7A8D8B8D9C8DAF
:100DF0000E94A40287E891E00E948E02C701B6011A
:100E00000E94A4028FE891E00E948E026D8D7E8D7B
:100E10008F8D98A10E94A4028CE991E00E948E021D
:100E200069A17AA18BA19CA10E94A4020E94C60183
:100E30006B017C01C114D104E104F10411F00E94A2
:100E40004C0C89EA91E00E948E02C701B6010E9413
:100E50009002809101018F93809100018F938FEA1E
:100E600091E09F938F9387EA92E09F938F930E94E4
:100E7000C11087EA92E00E948E020E946E014AE051
:100E80000E94110285EB91E00E948E028091000188
:100E9000909101010E94760281E090E09093B0026F
:100EA0008093AF0281EB92E00E949D0081EB92E083
:100EB0000E949D000F900F900F900F900F900F9039
:100EC00098E0292E312C02E010E0E091AF02F09181
:100ED000B0023197E830F10508F0A0C1EE58F84FA4
:100EE0000C94C00E7E0787081B093C0A9F0ACA0A99
:100EF0001E0B520B60E070E0CB01FECE81EB92E066
:100F00000E949D00D12CC12C5601AA0CBB1CAA0C1E
:100F1000BB1C41E050E04C0F5D1FA40EB51E81EBE1
:100F200092E00E94BF001816190674F70E94D201C1
:100F3000FC0197FDE8C08D32910521F0C0970A971A
:100F400008F0D9C0412C512C3201912CE130F1052F
:100F5000D9F0ED32F10509F4D3C0CF01C0970A975B
:100F600098F4AAE0B0E0A30192010E94980D2F012D
:100F7000FF0F66087708460E571E681E791E50E35D
:100F8000451A51086108710881EB92E00E949D00AA
:100F90000E94D201FC01C0970A97C0F2E130F1052E
:100FA000A9F2992041F07094609450944094411CAF
:100FB000511C611C711CC301B2010E945C0CD50163
:100FC0006D937D938D939D935D01BFEFCB1ADB0AEB
:100FD000E3E0CE16D1040CF4A2CFC980DA80EB8016
:100FE000FC80C701B6010E94800E709303016093DC
:100FF00002014D805E806F80788489849A84AB84FE
:10100000BC84C501B4010E94800E7093AE0260934F
:10101000AD0287EA92E00E948E028EEB91E00E9480
:101020008E02C701B6010E94A40287EA92E00E94E4
:101030008E0289EC91E00E948E02C301B2010E94EF
:10104000A40287EA92E00E948E0281ED91E00E9464
:101050008E02C501B4010E94A4026091A3027091A6
:10106000A4028091A5029091A6020E94800E4B01DD
:101070005C0160919F027091A0028091A102909109
:10108000A2020E94800E2B013C01481459046A04FC
:101090007B0474F484189508A608B7080E94FD0B19
:1010A000A50194010E94790D460E571E681E791EF7
:1010B000C301B2010E945C0C60939B0270939C027E
:1010C00080939D0290939E0287EA92E00E948E0296
:1010D0008EED91E00E948E0260919B0270919C02C5
:1010E00080919D0290919E020E94A4021093B002F2
:1010F0000093AF0293C081EB92E00E949D0016CF57
:101100009924939441CF412C512C320154CFCE01DC
:1011100001960E9414046FE271E0CE0101960E94D4
:10112000B303D82ECE0101960E94AB03DD2009F453
:1011300075C00E94C6012B013C01F1E0F0939A02B8
:10114000812C912C5401C501B401641975098609DB
:1011500097090E945C0C20919B0230919C02409167
:101160009D0250919E020E94550C87FF17C00E945D
:10117000C6014B015C01CE0101960E9414046FE28E
:1011800071E0CE0101960E94B303D82ECE010196E4
:101190000E94AB03D110D7CF10929A0280919A028D
:1011A0008823E1F10E946E014B015C01809296025E
:1011B00090929702A0929802B092990287EA92E0E8
:1011C0000E948E028BED91E00E948E02C501B40157
:1011D0000E94900283E090E09093B0028093AF026F
:1011E000109295020E94FD0B24E630E040E050E0B2
:1011F0000E94790D65307105810591057CF482E0CE
:1012000085B96091790270917A0280917B02909108
:101210007C020E94870E0E94930115B880E090E046
:10122000892B09F452CE0E94CB00882309F44BCEBF
:101230000E94000045CE0E946E01C0909602D090A0
:101240009702E0909802F09099022B013C014C1813
:101250005D086E087F08409291025092920260925F
:10126000930270929402CE0101960E941404CE0162
:1012700001960E946E03CE0101960E94AB0366E3C5
:1012800071E08EE493E00E94B3039090950288246D
:1012900083948924A82CB12C90E088219B21892B50
:1012A00001F10E946E0160938D0270938E02809313
:1012B0008F029093900287EA92E00E948E0288EE5D
:1012C00091E00E948E0260918D0270918E02809159
:1012D0008F02909190020E94900221E0209395024B
:1012E0009DCF6EE471E08EE493E00E94B303C82EBC
:1012F000D12CA822BD20AB28E9F00E946E0160939A
:101300008D0270938E0280938F029093900287EAF1
:1013100092E00E948E0280EF91E00E948E02609126
:101320008D0270918E0280918F02909190020E94A6
:101330009002DCCEC301B2010E945C0C2B013C0187
:101340006091AD027091AE02072E000C880B990BD4
:101350000E945C0C20E030E04AE754E40E94BB0CA1
:101360009B01AC01C301B2010E94B60E18161CF518
:10137000882009F10E946E0160938D0270938E02A5
:1013800080938F029093900287EA92E00E948E02EF
:101390008DEF91E00E948E0260918D0270918E021D
:1013A00080918F02909190020E9490023092B00240
:1013B0002092AF0233CF6FE271E08EE493E00E949F
:1013C000B303B12C90E089219B21892B19F10E9454
:1013D0006E0160938D0270938E0280938F029093C2
:1013E000900287EA92E00E948E028DE092E00E94D5
:1013F0008E0260918D0270918E0280918F02909189
:1014000090020E94900244E050E05093B00240935A
:10141000AF0204CF6DE371E08EE493E00E94B3036A
:1014200090E089219B21892B89F00E946E016093B5
:101430008D0270938E0280938F029093900287EAC0
:1014400092E00E948E0286E192E067CFC920DB2005
:10145000CD2809F4E3CE0E946E0160938D02709353
:101460008E0280938F029093900287EA92E00E940E
:101470008E0283E292E051CFCE0101960E941404C5
:10148000CE0101960E946E03CE0101960E94AB032D
:1014900063E471E08EE493E00E94B3038823B9F122
:1014A0000E946E0160938D0270938E0280938F0272
:1014B0009093900281E090E090938C0280938B0255
:1014C00087EA92E00E948E0280E392E00E948E0200
:1014D00060918D0270918E0280918F0290919002A6
:1014E0000E94900287EA92E00E948E028AE392E0D4
:1014F0000E948E0280918B0290918C020E94760253
:10150000A5E0B0E0B093B002A093AF0287CE68E44C
:1015100071E08EE493E00E94B303882309F47ECE49
:101520000E946E0160938D0270938E0280938F02F1
:101530009093900210938C0200938B02C1CF209164
:1015400002013091030180918B0290918C02281747
:101550003907D9F4E1E0F0E0F0938A02E0938902E0
:1015600087EA92E00E948E0283E492E00E948E025B
:101570008091890290918A020E94760227E030E0F1
:101580003093B0022093AF0249CE10928A0210929B
:10159000890239CF0E946E0160938D0270938E0292
:1015A00080938F029093900287EA92E00E948E02CD
:1015B00081E592E00E948E0260918D0270918E0210
:1015C00080918F02909190020E94900260E070E002
:1015D000CB0180908D0290908E02A0908F02B090EF
:1015E00090029B01AC01281939094A095B0949019C
:1015F0005A012091850230918602409187025091D4
:101600008802A8EEB3E00E94980D86169706A806F9
:10161000B9061CF40E946E01DCCF0E946E0160933B
:101620008D0270938E0280938F029093900287EACE
:1016300092E00E948E0287E592E0ACCE0E946E019D
:1016400060938D0270938E0280938F02909390022C
:1016500080918B0290918C0281309105B1F431E040
:1016600035B96091810270918202809183029091DC
:1016700084020E94870E0E94930115B887EA92E0C7
:101680000E948E028EE592E085CE0297B9F784E043
:1016900085B960917D0270917E0280917F02909168
:1016A0008002E7CF0E946E0160938D0270938E02DC
:1016B00080938F029093900287EA92E00E948E02BC
:1016C00085E692E00E948E0260918D0270918E02FA
:1016D00080918F02909190020E949002809100016F
:1016E00090910101019690930101809300019F93D5
:1016F0008F934FEA51E05F934F9387EA92E09F9375
:101700008F930E94C11087EA92E00E948E020E948D
:101710006E014AE00E94110285EB91E00E948E0268
:1017200080910001909101010E94760281EB92E08C
:101730000E94BF000F900F900F900F900F900F908E
:10174000892B21F081EB92E00E949D00A1E0B0E0A6
:10175000D9CE8EE493E00E94AB0384E593E00C9431
:10176000AB038F929F92AF92BF92CF92DF92EF9294
:10177000FF92CF93DF93EC01688179818A819B810D
:10178000611571058105910521F464E279ED8BE520
:1017900097E02DE133EF41E050E00E94790D4901DF
:1017A0005A019B01AC01A7EAB1E40E94980D6B01BC
:1017B0007C01ACEEB4EFA50194010E94A60DC60E0B
:1017C000D71EE81EF91EF7FE06C081E0C81AD10830
:1017D000E10880E8F80AC882D982EA82FB82C70160
:1017E000B6019F77DF91CF91FF90EF90DF90CF9080
:1017F000BF90AF909F908F9008958F929F92AF92DD
:10180000BF92CF92DF92EF92FF92609104017091AC
:10181000050180910601909107016115710581050F
:10182000910521F464E279ED8BE597E02DE133EF4A
:1018300041E050E00E94790D49015A019B01AC0141
:10184000A7EAB1E40E94980D6B017C01ACEEB4EF05
:10185000A50194010E94A60DC60ED71EE81EF91E12
:10186000F7FE06C081E0C81AD108E10880E8F80A4E
:10187000C0920401D0920501E0920601F0920701A6
:10188000C701B6019F77FF90EF90DF90CF90BF9098
:10189000AF909F908F90089560930401709305011D
:1018A000809306019093070108950E94970C08F415
:1018B00081E00895E89409C097FB3EF490958095E7
:1018C000709561957F4F8F4F9F4F9923A9F0F92F06
:1018D00096E9BB279395F695879577956795B79584
:1018E000F111F8CFFAF4BB0F11F460FF1BC06F5F6A
:1018F0007F4F8F4F9F4F16C0882311F096E911C07C
:10190000772321F09EE8872F762F05C0662371F09C
:1019100096E8862F70E060E02AF09A95660F771FB0
:10192000881FDAF7880F9695879597F90895990F8C
:101930000008550FAA0BE0E8FEEF16161706E80799
:10194000F907C0F012161306E407F50798F0621BBA
:10195000730B840B950B39F40A2661F0232B242B8F
:10196000252B21F408950A2609F4A140A6958FEFAE
:10197000811D811D08950E94CE0C0C943F0D0E9484
:10198000310D38F00E94380D20F0952311F00C94A1
:10199000280D0C942E0D11240C94730D0E94500DE3
:1019A00070F3959FC1F3950F50E0551F629FF001B2
:1019B000729FBB27F00DB11D639FAA27F00DB11DCB
:1019C000AA1F649F6627B00DA11D661F829F222754
:1019D000B00DA11D621F739FB00DA11D621F839FDB
:1019E000A00D611D221F749F3327A00D611D231FB1
:1019F000849F600D211D822F762F6A2F11249F57FF
:101A000050409AF0F1F088234AF0EE0FFF1FBB1F01
:101A1000661F771F881F91505040A9F79E3F5105C0
:101A200080F00C94280D0C94730D5F3FE4F3983E06
:101A3000D4F3869577956795B795F795E7959F5F6A
:101A4000C1F7FE2B880F911D9695879597F90895FC
:101A500097F99F6780E870E060E008959FEF80EC61
:101A6000089500240A941616170618060906089504
:101A700000240A9412161306140605060895092E6A
:101A80000394000C11F4882352F0BB0F40F4BF2BD9
:101A900011F460FF04C06F5F7F4F8F4F9F4F089519
:101AA00057FD9058440F551F59F05F3F71F047950F
:101AB000880F97FB991F61F09F3F79F087950895F4
:101AC000121613061406551FF2CF4695F1DF08C013
:101AD000161617061806991FF1CF86957105610530
:101AE00008940895E894BB2766277727CB0197F9D8
:101AF0000895052E97FB1EF400940E94900D57FD4B
:101B000007D00E94E20D07FC03D04EF40C94900D18
:101B100050954095309521953F4F4F4F5F4F089519
:101B200090958095709561957F4F8F4F9F4F089549
:101B30000E94040EA59F900DB49F900DA49F800D50
:101B4000911D11240895B7FF0C94980D0E94980DD3
:101B5000821B930B08952F923F924F925F926F9248
:101B60007F928F929F92AF92BF92CF92DF92EF922D
:101B7000FF920F931F93CF93DF93CDB7DEB7CA1BAE
:101B8000DB0B0FB6F894DEBF0FBECDBF09942A88D9
:101B9000398848885F846E847D848C849B84AA8481
:101BA000B984C884DF80EE80FD800C811B81AA810E
:101BB000B981CE0FD11D0FB6F894DEBF0FBECDBFD9
:101BC000ED010895A1E21A2EAA1BBB1BFD010DC059
:101BD000AA1FBB1FEE1FFF1FA217B307E407F507DD
:101BE00020F0A21BB30BE40BF50B661F771F881FB9
:101BF000991F1A9469F760957095809590959B014F
:101C0000AC01BD01CF010895A29FB001B39FC001F7
:101C1000A39F700D811D1124911DB29F700D811D18
:101C20001124911D08955058BB27AA270E942B0EFE
:101C30000C943F0D0E94310D38F00E94380D20F0B9
:101C400039F49F3F19F426F40C942E0D0EF4E09510
:101C5000E7FB0C94280DE92F0E94500D58F3BA179A
:101C6000620773078407950720F079F4A6F50C94B2
:101C7000720D0EF4E0950B2EBA2FA02D0B01B901B9
:101C800090010C01CA01A0011124FF27591B99F0F2
:101C9000593F50F4503E68F11A16F040A22F232FFE
:101CA000342F4427585FF3CF469537952795A7954E
:101CB000F0405395C9F77EF41F16BA0B620B730BF5
:101CC000840BBAF09150A1F0FF0FBB1F661F771F66
:101CD000881FC2F70EC0BA0F621F731F841F48F41B
:101CE000879577956795B795F7959E3F08F0B0CFA4
:101CF0009395880F08F09927EE0F9795879508958B
:101D00000E94870E6894B1110C94730D08950E947F
:101D1000580D88F09F5798F0B92F9927B751B0F018
:101D2000E1F0660F771F881F991F1AF0BA95C9F75F
:101D300014C0B13091F00E94720DB1E008950C947E
:101D4000720D672F782F8827B85F39F0B93FCCF331
:101D5000869577956795B395D9F73EF490958095DC
:101D6000709561957F4F8F4F9F4F08950E94970CFC
:101D700008F48FEF08950E94970C880B990B089533
:101D8000EE0FFF1F0590F491E02D09940F931F9320
:101D9000CF93DF938230910510F482E090E0E091E0
:101DA0005C03F0915D0330E020E0B0E0A0E030970C
:101DB00099F42115310509F44AC0281B390B243048
:101DC0003105D8F58A819B816115710589F1FB0187
:101DD00093838283FE0111C040815181028113816E
:101DE00048175907E0F04817590799F4109761F020
:101DF00012960C93129713961C933296CF01DF9193
:101E0000CF911F910F91089500935C0310935D0390
:101E1000F4CF2115310551F04217530738F0A901CD
:101E2000DB019A01BD01DF01F801C1CFEF01F9CF5C
:101E300090935D0380935C03CDCFFE01E20FF31F0F
:101E4000819391932250310939832883D7CF2091F0
:101E50005A0330915B03232B41F420910A01309106
:101E60000B0130935B0320935A03209108013091BA
:101E700009012115310541F42DB73EB740910C0100
:101E800050910D01241B350BE0915A03F0915B0337
:101E9000E217F307A0F42E1B3F0B2817390778F041
:101EA000AC014E5F5F4F2417350748F04E0F5F1FA0
:101EB00050935B0340935A03819391939FCFF0E03B
:101EC000E0E09CCFCF93DF930097E9F0FC013297DD
:101ED00013821282A0915C03B0915D03ED0130E0AA
:101EE00020E01097A1F420813181820F931F20916F
:101EF0005A0330915B032817390709F061C0F0934A
:101F00005B03E0935A03DF91CF910895EA01CE1766
:101F1000DF07E8F54A815B819E0141155105B1F764
:101F2000E901FB83EA8349915991C40FD51FEC174E
:101F3000FD0761F4808191810296840F951FE9016C
:101F400099838883828193819B838A83F0E0E0E098
:101F500012968D919C9113970097B9F52D913C9114
:101F60001197CD010296820F931F20915A03309151
:101F70005B032817390739F6309751F510925D0346
:101F800010925C03B0935B03A0935A03BCCFD3833E
:101F9000C28340815181840F951FC817D90761F40E
:101FA0004E5F5F4F88819981480F591F518340834D
:101FB0008A819B81938382832115310509F0B0CFFB
:101FC000F0935D03E0935C039ECFFD01DC01C0CF85
:101FD00013821282D7CFB0E0A0E0E1EFFFE00C94D3
:101FE000AD0D8C01009751F4CB010E94C60E8C01FF
:101FF000C801CDB7DEB7E0E10C94C90DFC01E60FD6
:10200000F71F9C0122503109E217F30708F49DC025
:10201000D901CD91DC911197C617D70798F0C5303B
:10202000D10530F3CE0104978617970708F3C61B36
:10203000D70B2297C193D1936D937C93CF010E94CC
:10204000620FD6CF5B01AC1ABD0A4C018C0E9D1EEF
:10205000A0915C03B0915D03512C412CF12CE12C3B
:10206000109731F580915A0390915B03881599057B
:1020700009F05CC04616570608F058C08091080168
:1020800090910901009741F48DB79EB740910C01E2
:1020900050910D01841B950BE817F90708F055C006
:1020A000F0935B03E0935A03F90171836083A0CF3F
:1020B0008D919C91119712966C90129713967C902B
:1020C0001397A815B90559F56C0142E0C40ED11C4F
:1020D000CA14DB0420F1AC014A195B09DA0112963B
:1020E000159780F06282738251834083D9016D938A
:1020F0007C93E114F10471F0D7011396FC93EE93F5
:10210000129776CF22968C0F9D1FF90191838083C1
:10211000F301EFCFF0935D03E0935C0369CF4816C2
:10212000590608F42C017D01D3019ACFCB010E94FE
:10213000C60E7C01009749F0AE01B8010E94A810BC
:10214000C8010E94620F870153CF10E000E050CF1A
:10215000FB01DC0102C001900D9241505040D8F7C4
:102160000895FB01DC018D91019080190110D9F3D4
:10217000990B0895FB01DC0101900D920020E1F71D
:102180000895AEE0B0E0E7ECF0E10C94B90D0D89F4
:102190001E8986E08C831A8309838FEF9FE79E83D5
:1021A0008D83AE01475E5F4F6F89788DCE010196BA
:1021B0000E94E4102F813885020F131FF80110824E
:1021C0002E96E4E00C94D50DABE0B0E0EAEEF0E141
:1021D0000C94AB0D7C013B018A01FC011782168235
:1021E000838181FFC8C1CE0101965C01F701938113
:1021F000F30193FD859193FF81913F01882309F4B9
:1022000053C1853239F493FD859193FF81913F014C
:10221000853229F4B70190E00E94D412E7CF912CC7
:10222000212C312CFFE1F31538F08B3211F190F4B1
:10223000803209F1833229F137FC3CC020ED280FB0
:102240002A3050F536FE20C08AE0989E200D1124D9
:10225000922E06C08D3291F0803371F7689430F879
:10226000F30193FD859193FF81913F018111DACFB5
:1022700021C0689431F8689432F8F2CF689433F84A
:10228000EFCF689434F8ECCFEAE02E9E200D1124B5
:10229000222E689435F8E4CF8E3229F436FC04C13E
:1022A000689436F8DDCF8C3619F4689437F8D8CFB7
:1022B0008836B1F2982F9F7D95549330E0F08336A5
:1022C000A1F18337C1F1833509F063C02801F2E041
:1022D0004F0E511CF801C080D180692D70E036FC92
:1022E00002C06FEF7FEFC6010E94BE124C016894DE
:1022F00037F882010AC00C5F1F4FFFE3F98388247F
:102300008394912C6501E89437F833FE2DC0522C4C
:102310008114910471F5552009F468CFB70180E26A
:1023200090E00E94D4125A94F6CFF80180818983FC
:102330000E5F1F4FE4CF2801F2E04F0E511CF80151
:10234000C080D180692D70E036FC02C06FEF7FEF56
:10235000C6010E94C9124C018201D5CFB70180E2AB
:1023600090E00E94D4122A942814190409F0B0F7BE
:10237000CECFF60137FC859137FE81916F01B70111
:1023800090E00E94D41251105A94F1E08F1A9108F3
:10239000BFCF843619F0893609F077C0F80137FECF
:1023A0006BC060817181828193810C5F1F4FF32D1F
:1023B000FF763F2E97FF09C09095809570956195A7
:1023C0007F4F8F4F9F4F689437F82AE030E0A50188
:1023D0000E940413C82ECA188C2C432C36FE0CC045
:1023E000E89440F8C91440F434FE05C032FC03C040
:1023F000F32DFE7E4F2E892C44FE95C0FE01EC0D80
:10240000F11D8081803309F087C0242D297E422E62
:10241000842D8870582E43FC95C040FE8FC09C2CA4
:10242000821418F42C0C922C981844FE91C0B70119
:1024300080E390E00E94D41242FE09C088E790E059
:1024400041FE02C088E590E0B7010E94D412C91491
:1024500008F48AC0CA94D12C9FEFC91AD90ACA0CB1
:10246000DB1CF60182916F01B70190E00E94D4124B
:10247000AC14BD04B1F74FCF60817181072E000C01
:10248000880B990B0E5F1F4F92CFD32CE894D4F892
:102490002AE030E0853739F1232D297FD22E8F367F
:1024A00001F148F48835A9F0F701868197812B96D0
:1024B000E2E10C94C70D803749F08837A9F7D4FEC4
:1024C00002C06894D2F820E130E00DC06894D4F8DE
:1024D000F6CF34FE03C0822F8660D82E20E132E092
:1024E00002C028E030E0F801D7FE0FC060817181A2
:1024F000828193810C5F1F4FA5010E940413C82E97
:10250000CA183D2CE89437F867CF6081718190E05C
:1025100080E00E5F1F4FF0CF42FC02C0839478CF63
:102520008394839475CF842D867809F471CFF6CF88
:10253000B70180E290E00E94D41283948214C0F329
:10254000512C73CF522C5818821408F46ECFF8CF48
:10255000842D867809F47BCF8BE241FE80E247FC34
:102560008DE2B70190E071CFB70180E390E00E9467
:10257000D4129A946CCF8FEF9FEF99CFFC01059006
:10258000615070400110D8F7809590958E0F9F1F75
:102590000895FC016150704001900110D8F78095BA
:1025A00090958E0F9F1F08950F931F93CF93DF93E6
:1025B000182F092FEB018B8181FD09C01FEF0FEF51
:1025C000812F902FDF91CF911F910F91089582FF5E
:1025D00014C02E813F818C819D81281739073CF4DE
:1025E000E881F981CF0101969983888310838E81D8
:1025F0009F8101969F838E83E3CFE885F985812FA4
:102600000995892BA1F3DACFFA01AA27283051F1D5
:10261000203181F1E8946F936E7F6E5F7F4F8F4F13
:102620009F4FAF4FB1E03ED0B4E03CD0670F781F72
:10263000891F9A1FA11D680F791F8A1F911DA11D57
:102640006A0F711D811D911DA11D20D009F4689490
:102650003F912AE0269F11243019305D3193DEF638
:10266000CF010895462F4770405D4193B3E00FD0EE
:10267000C9F7F6CF462F4F70405D4A3318F0495DD9
:1026800031FD4052419302D0A9F7EACFB4E0A695BC
:102690009795879577956795BA95C9F700976105DE
:1026A000710508959B01AC010A2E06945795479534
:1026B00037952795BA95C9F7620F731F841F951F29
:1026C000A01D089510E0C5E3D0E004C0FE010E9403
:0E26D000C00E2196C633D107C9F7F894FFCF8C
:1026DE00010002000100000000005E038000000007
:1026EE000000010161008E004E01BF009D00B1008F
:1026FE000D0A006E616E00696E66006F766600638D
:10270E00656E7465720063656E7465725F61756483
:10271E00696F006C656674007269676874006E6F2D
:10272E006E650073657269616C5F65737461626C6E
:10273E0069736865640052455754494D455F4C2096
:10274E000052455754494D455F522000524557544B
:10275E00494D455F432000544F54494D4520004894
:10276E004F4C4454494D454D494E2000484F4C4422
:10277E0054494D454D4158200053454544200025B0
:10278E00303464200020545249414C4F4E00545274
:10279E0049414C54595045200047495645544F2005
:1027AE0000415544494F4455522000454E44484F30
:1027BE004C4454494D4520005354494D4F4E200032
:1027CE004541524C594445505F303120004E4F41E7
:1027DE005544494F4F4E4556454E5420005354498B
:1027EE004D4F464620004541524C594445505F30AE
:1027FE003220004541524C594445505F3033200041
:10280E005245535054494D4520005245535044496A
:10281E00522000545249414C4F5554434F4D452080
:10282E0000544F4F4E2000544F4F46462000524505
:10283E00574F4E2000545249414C454E4420000003
:00000001FF
