:100000000C9436000C945E000C945E000C945E0020
:100010000C945E000C945E000C945E000C945E00E8
:100020000C945E000C945E000C945E000C945E00D8
:100030000C945E000C945E000C945E000C945E00C8
:100040000C948E040C945E000C945C040C943604A6
:100050000C945E000C945E000C945E000C945E00A8
:100060000C945E000C945E00D804D40B11241FBEC7
:10007000CFEFD8E0DEBFCDBF12E0A0E0B1E0ECE210
:10008000F7E202C005900D92AC37B107D9F723E033
:10009000ACE7B2E001C01D92A736B207E1F710E06D
:1000A000C5E3D0E004C02197FE010E94E70EC433EF
:1000B000D107C9F70E9413050C9489130C94000012
:1000C000AF92BF92CF92DF92EF92FF920F931F9366
:1000D000CF93DF936C017B018B01040F151FEB01A4
:1000E0005E01AE18BF08C017D10759F06991D6015B
:1000F000ED91FC910190F081E02DC6010995892BCD
:1001000079F7C501DF91CF911F910F91FF90EF908B
:10011000DF90CF90BF90AF900895FC01538D448D38
:10012000252F30E0842F90E0821B930B541710F0A2
:10013000CF96089501970895FC01918D828D9817AF
:1001400061F0A28DAE0FBF2FB11D5D968C91928D87
:100150009F5F9F73928F90E008958FEF9FEF0895B8
:10016000FC01918D828D981731F0828DE80FF11D81
:10017000858D90E008958FEF9FEF0895FC01918D9C
:10018000228D892F90E0805C9F4F821B91098F7395
:100190009927089580EC92E00E94BE0021E0892B0F
:1001A00009F420E0822F089580E090E0892B29F067
:1001B0000E94CA0081110C9400000895FC01A48DD6
:1001C000A80FB92FB11DA35ABF4F2C91848D90E079
:1001D00001968F739927848FA689B7892C93A0895C
:1001E000B1898C91837080648C93938D848D9813E6
:1001F00006C00288F389E02D80818F7D8083089579
:10020000EF92FF920F931F93CF93DF93EC0181E066
:10021000888F9B8D8C8D98131AC0E889F98980810D
:1002200085FF15C09FB7F894EE89FF896083E88940
:10023000F98980818370806480839FBF81E090E032
:10024000DF91CF911F910F91FF90EF900895F62EBF
:100250000B8D10E00F5F1F4F0F731127E02E8C8D59
:100260008E110CC00FB607FCFACFE889F98980819E
:1002700085FFF5CFCE010E94DE00F1CFEB8DEC0FB4
:10028000FD2FF11DE35AFF4FF0829FB7F8940B8FBB
:10029000EA89FB8980818062CFCFCF93DF93EC0125
:1002A000888D8823B9F0AA89BB89E889F9898C915E
:1002B00085FD03C0808186FD0DC00FB607FCF7CF1A
:1002C0008C9185FFF2CF808185FFEDCFCE010E941A
:1002D000DE00E9CFDF91CF9108953FB7F894809188
:1002E000810290918202A0918302B091840226B58E
:1002F000A89B05C02F3F19F00196A11DB11D3FBF5E
:10030000BA2FA92F982F8827BC01CD01620F711D2C
:10031000811D911D42E0660F771F881F991F4A9526
:10032000D1F708958F929F92AF92BF92CF92DF92B2
:10033000EF92FF926B017C010E946D014B015C0109
:10034000C114D104E104F104B9F00E946D016819EF
:1003500079098A099B09683E73408105910580F3FC
:1003600021E0C21AD108E108F10888EE880E83E086
:10037000981EA11CB11CE4CFFF90EF90DF90CF90AE
:10038000BF90AF909F908F9008952FB7F894609191
:100390007D0270917E0280917F02909180022FBF3A
:1003A00008950F931F930E94C5016093C802709334
:1003B000C9028093CA029093CB0280EC92E00E9423
:1003C000B00097FF1DC00E94C5010091C8021091A6
:1003D000C9022091CA023091CB02601B710B820BC3
:1003E000930B0091C4021091C5022091C602309176
:1003F000C7026017710782079307F8F28FEF9FEF2C
:100400001F910F910895FC0101900020E9F73197A9
:10041000AF01481B590BBC0180EC92E00C946000CA
:100420008F929F92AF92BF920F931F93CF93DF93C0
:10043000CDB7DEB7A1970FB6F894DEBF0FBECDBF24
:1004400019A2423008F44AE08E010F5D1F4F842E3E
:10045000912CB12CA12CA50194010E94090EE62F2C
:10046000B901CA01EA30F4F4E05DD801EE938D01E0
:10047000232B242B252B79F790E080E0109719F09F
:10048000CD010E940302A1960FB6F894DEBF0FBE05
:10049000CDBFDF91CF911F910F91BF90AF909F90F3
:1004A0008F900895E95CE1CFCF92DF92EF92FF92B7
:1004B000CF93DF936B017C016DE280EC92E00E94B0
:1004C0000001EC0166277727CB016C197D098E09A5
:1004D0009F094AE00E9410028C0F9D1FDF91CF916F
:1004E000FF90EF90DF90CF9008950C940302CF938C
:1004F000DF9397FF0CC00E945402EC0182E291E06E
:100500000E9403028C0F9D1FDF91CF9108954AE056
:100510000E941002F2CFCF93DF93BC01990F880B9A
:10052000990B97FF0CC00E945402EC0182E291E00B
:100530000E9403028C0F9D1FDF91CF9108954AE026
:100540000E941002F2CF4F925F926F927F928F9231
:100550009F92AF92BF92CF92DF92EF92FF926B0188
:100560007C01AC019B010E94E20E8823C1F085E270
:1005700091E00E9403027C0182E291E00E9403026A
:100580008E0D9F1DFF90EF90DF90CF90BF90AF90AA
:100590009F908F907F906F905F904F90089546014D
:1005A0005701E894B7F82FEF3FEF4FE75FE7C5013A
:1005B000B4010E94E20E81110DC02FEF3FEF4FE713
:1005C0005FE7C501B4010E947C0C18161CF489E297
:1005D00091E0CFCF2FEF3FEF4FE75FE4C701B601C8
:1005E0000E94DD0E18161CF48DE291E0C2CF2FEFB1
:1005F0003FEF4FE75FECC701B6010E947C0C87FD1F
:10060000F3CF20E030E0A901C701B6010E947C0CC5
:10061000B12CA12C87FF0AC06DE280EC92E00E9411
:1006200000015C01F7FAF094F7F8F0942AE037ED56
:1006300043EA5BE3C701B6010E943B0E2B013C017C
:100640000E94AE0E6B017C010E94810C9B01AC01EB
:10065000C301B2010E943A0E2B013C014AE0C701DE
:10066000B6010E9410027C01EA0CFB1C6EE280ECD9
:1006700092E00E940001E80EF91E20E030E040E226
:1006800051E4C301B2010E94E20C2B013C010E9423
:10069000AE0E4B01B12CA12C4AE0C501B4010E9461
:1006A0001002E80EF91EC501B4010E94810C9B01E5
:1006B000AC01C301B2010E943A0E20E030E040E2FA
:1006C00051E40E94E20C0E94AE0E90E080E04AE00D
:1006D0000E941002E80EF91E4FCFFC0124813581E3
:1006E000232B39F421E0FB018081882349F020E0AD
:1006F00007C0808191810E94D81021E0892BB9F731
:10070000822F0895FC0180819181009711F00C9453
:10071000890F0895EF92FF920F931F93CF93DF936A
:10072000EC017B018A0188819981009729F02A8157
:100730003B812417350788F4B8016F5F7F4F0E9413
:100740001210009791F0998388831B830A832C8170
:100750003D81232B11F4FC0110821D830C83B70112
:10076000888199810E94E1100CC08881998100974D
:1007700011F00E94890F198218821D821C821B822F
:100780001A82CE01DF91CF911F910F91FF90EF90D0
:100790000895FC0101900020E9F73197AF01481B53
:1007A000590BBC018DE593E00C948A03CF92DF9244
:1007B000EF92FF92CF93DF93EC010E94C5016B0192
:1007C0007C0199B189B1933A11F0813A41F581E305
:1007D00091E00E94C903198218821B821A821D822D
:1007E0001C8283E0CD35D80771F060915D03709174
:1007F0005E036115710539F0409161035091620308
:10080000CE010E948A03CE82DF82E886F986CE017D
:10081000DF91CF91FF90EF90DF90CF90089599B145
:1008200089B1933B11F0813B19F488E391E0D1CF7A
:1008300099B189B1933C11F0813C19F485E491E0C0
:10084000C8CF99B189B1913611F0833619F48AE491
:1008500091E0BFCF99B189B1913F11F08F3E19F46A
:100860008FE391E0B6CF80E591E0B3CF1F920F9276
:100870000FB60F9211242F933F934F935F936F9373
:100880007F938F939F93AF93BF93EF93FF9380ECEE
:1008900092E00E94DE00FF91EF91BF91AF919F9196
:1008A0008F917F916F915F914F913F912F910F9019
:1008B0000FBE0F901F9018951F920F920FB60F92B8
:1008C00011242F938F939F93EF93FF93E091D00286
:1008D000F091D1028081E091D602F091D70282FDA1
:1008E0001BC090818091D9028F5F8F732091DA02B3
:1008F000821741F0E091D902F0E0E054FD4F958F6E
:100900008093D902FF91EF919F918F912F910F903A
:100910000FBE0F901F9018958081F4CF1F920F92F9
:100920000FB60F9211242F933F938F939F93AF9302
:10093000BF9380917D0290917E02A0917F02B09141
:10094000800230917C0223E0230F2D3758F5019669
:10095000A11DB11D20937C0280937D0290937E02A5
:10096000A0937F02B09380028091810290918202D5
:10097000A0918302B09184020196A11DB11D8093C4
:10098000810290938202A0938302B0938402BF916C
:10099000AF919F918F913F912F910F900FBE0F902C
:1009A0001F90189526E8230F0296A11DB11DD2CFE6
:1009B000E0ECF2E01382128288EE93E0A0E0B0E077
:1009C00084839583A683B78384E191E091838083B8
:1009D00085EC90E09587848784EC90E09787868704
:1009E00080EC90E0918B808B81EC90E0938B828BFC
:1009F00082EC90E0958B848B86EC90E0978B868BD5
:100A0000118E128E138E148EEDE5F3E0118210829A
:100A1000138212821582148250E040E064E271E099
:100A2000CF010C948A03CF93DF93CDB7DEB7CC54BC
:100A3000D1090FB6F894DEBF0FBECDBF789484B550
:100A4000826084BD84B5816084BD85B5826085BDCA
:100A500085B5816085BD80916E00816080936E0058
:100A6000109281008091810082608093810080914A
:100A700081008160809381008091800081608093FB
:100A800080008091B10084608093B1008091B000BB
:100A900081608093B00080917A00846080937A00B6
:100AA00080917A00826080937A0080917A008160E0
:100AB00080937A0080917A00806880937A00109207
:100AC000C100E091D002F091D10282E08083E091F8
:100AD000CC02F091CD021082E091CE02F091CF02D3
:100AE00080E180831092D802E091D402F091D50287
:100AF00086E08083E091D202F091D3028081806110
:100B00008083E091D202F091D3028081886080835B
:100B1000E091D202F091D302808180688083E091DD
:100B2000D202F091D30280818F7D808380EC92E0AD
:100B30000E949C0085E591E00E94030282E291E020
:100B40000E9403021AB887E084B915B881EE8BB908
:100B500010E000E05801AA0CBB1CAA0CBB1C21E051
:100B600030E02C0F3D1FA20EB31E80EC92E00E94DD
:100B7000BE001816190674F70E94D101FC0197FDFA
:100B8000BDC18D32910509F04CC0412C512C20E89B
:100B9000622E2FE3722EC12CD12C7601912C812C48
:100BA000E130F10559F1ED32F10509F447C0EE32BB
:100BB000F10509F446C0CF01C0970A97F8F4AAE0FE
:100BC000B0E0A70196010E94BF0D6F01FF0FEE0874
:100BD000FF08C60ED71EE81EF91E30E3C31AD1085F
:100BE000E108F108992051F02DEC3CEC4CEC5DE370
:100BF000C301B2010E94E20C2B013C0180EC92E0A7
:100C00000E949C000E94D101FC01C0970A9740F20B
:100C1000EE32F105C9F4992019F2982C81101AC00E
:100C200027C0C0970A9708F4B0CFEE32F10509F457
:100C3000ACCF80EC92E00E949C009ECF88248394ED
:100C4000DDCF99249394DACFE130F10509F4A8CFF0
:100C5000882041F0F094E094D094C094C11CD11C41
:100C6000E11CF11CC701B6010E94830C992041F0E0
:100C7000C701B6010E94830CA30192010E94E20CFD
:100C8000D5016D937D938D939D935D010F5F1F4FF4
:100C9000083011050CF469CF49805A806B807C8044
:100CA00040928D0250928E0260928F02709290025A
:100CB0008D809E80AF80B8848092890290928A0253
:100CC000A0928B02B0928C0229853A854B855C8577
:100CD00025962CAF3DAF4EAF5FAF25972093850291
:100CE000309386024093870250938802CD84DE843D
:100CF000EF84F888C701B6010E94A70E60939102A5
:100D000070939202809393029093940289899A89B6
:100D1000AB89BC8929968CAF9DAFAEAFBFAF299789
:100D20008093AE029093AF02A093B002B093B10251
:100D30002D893E894F89588D2D962CAF3DAF4EAFF2
:100D40005FAF2D972093B2023093B3024093B40269
:100D50005093B502898D9A8DAB8DBC8D8093A10285
:100D60009093A202A093A302B093A4028D8D9E8DB6
:100D7000AF8DB8A18093990290939A02A0939B02A1
:100D8000B0939C0288E691E00E947502C301B20113
:100D90000E94A30283E791E00E947502C501B4019D
:100DA0000E94A3028EE791E00E94750225966CAD29
:100DB0007DAD8EAD9FAD25970E94A30289E891E09D
:100DC0000E947502C701B6010E94A30281E991E069
:100DD0000E94750229966CAD7DAD8EAD9FAD2997B1
:100DE0000E94A3028EE991E00E9475022D966CADDF
:100DF0007DAD8EAD9FAD2D970E94A3028BEA91E051
:100E00000E9475026091A1027091A2028091A302DA
:100E10009091A4020E94A3028BEB91E00E947502C4
:100E20006091990270919A0280919B0290919C022C
:100E30000E94A3020E94C5016B017C01C114D10470
:100E4000E104F10411F00E94730C8DEC91E00E941A
:100E50007502C701B6010E947702809101018F934C
:100E6000809100018F9383ED91E09F938F9386EBA8
:100E700092E09F938F930E94E81086EB92E00E948D
:100E800075020E946D014AE00E94100289ED91E016
:100E90000E94750280910001909101010E948B02D5
:100EA00081E090E09093BF028093BE0280EC92E0DC
:100EB0000E949C0080EC92E00E949C000F900F909A
:100EC0000F900F900F900F9093ED292E91E0392EF7
:100ED00011E0E091BE02F091BF023197E830F105D8
:100EE00008F02CC1EA58F84F0C94E70E8207B608B8
:100EF0009E08480AA20AE50A4B0B7F0B60E070E0EF
:100F0000CB01BECE80EC92E00E949C00F12CE12C43
:100F10006701CC0CDD1CCC0CDD1C41E050E04C0F1B
:100F20005D1FC40ED51E80EC92E00E94BE00181614
:100F3000190674F70E94D101FC0197FD13C18D328F
:100F4000910521F0C0970A9708F005C1812C912CDA
:100F5000540100E0E130F105D9F0ED32F10509F47A
:100F6000FFC0CF01C0970A9798F4AAE0B0E0A501AE
:100F700094010E94BF0D4F01FF0FAA08BB08860E07
:100F8000971EA81EB91E50E3851A9108A108B10842
:100F900080EC92E00E949C000E94D101FC01C0976D
:100FA0000A97C0F2E130F105A9F2002341F0B094B4
:100FB000A09490948094811C911CA11CB11CC5012B
:100FC000B4010E94830CD6016D937D938D939D9304
:100FD0006D01BFEFEB1AFB0AE3E0EE16F1040CF42F
:100FE000A2CF49805A806B807C80C301B2010E94ED
:100FF000A70E70930501609304018D809E80AF80E1
:10100000B884C501B4010E94A70E709303016093D8
:101010000201C984DA84EB84FC84C701B6010E9412
:10102000A70E7093BD026093BC0286EB92E00E9413
:10103000750282EE91E00E947502C301B2010E9426
:10104000A30286EB92E00E9475028DEE91E00E9471
:101050007502C501B4010E94A30286EB92E00E94D2
:10106000750285EF91E00E947502C701B6010E94EA
:10107000A3026091B2027091B3028091B402909188
:10108000B5020E94A70E6B017C016091AE027091C7
:10109000AF028091B0029091B1020E94A70E4B0165
:1010A0005C018C149D04AE04BF0474F4C818D90804
:1010B000EA08FB080E94240CA70196010E94A00DDB
:1010C000860E971EA81EB91EC501B4010E94830C8E
:1010D0006B017C01C092AA02D092AB02E092AC02FA
:1010E000F092AD026091BC027091BD02072E000C1F
:1010F000880B990B0E94830CA70196010E943B0E5E
:101100000E94A70E7093A9026093A80286EB92E05A
:101110000E9475028DE092E00E9475028091A80203
:101120009091A9020E948B0282E090E09093BF020E
:101130008093BE021092A7021092A60280E090E077
:10114000892B09F4C6CE0E94CA00882309F4BCCEBC
:101150000E940000B9CE80EC92E00E949C00EACE92
:1011600001E016CF812C912C540129CFCE01C796D6
:101170000E94D60361E371E0CE01C7960E946D0321
:10118000882309F44DC10E94C5014B015C011093F5
:10119000A502CE018D960E94D603C12CD12C7601DA
:1011A000C818D908EA08FB088091A8029091A90202
:1011B000092E000CAA0BBB0BC816D906EA06FB06C3
:1011C0000CF0B6C00E94C5016B017C011CA21BA2E1
:1011D0001EA21DA218A61FA26DA57EA561157105F0
:1011E00031F049A95AA9CE0183960E948A038BA99E
:1011F0009CA9ADA9BEA989A79AA7ABA7BCA7CE01F8
:1012000049960E94D60361E371E0CE0149960E949F
:101210006D03811123C068E371E0CE0149960E94FD
:101220006D0381111BC06F8D78A189A19AA149A47A
:101230005AA46BA47CA464197509860997090E94B5
:10124000830C2091A1023091A2024091A3025091FF
:10125000A4020E94DD0E18160CF440C0C701B601AE
:10126000681979098A099B090E94830C2091AA02B6
:101270003091AB024091AC025091AD020E94DD0E64
:1012800087FFD3C068E371E0CE0149960E946D03E9
:10129000882309F4F4C08091A7028111F0C00E9454
:1012A0006D0160939D0270939E0280939F029093C4
:1012B000A00286EB92E00E94750287E192E00E9414
:1012C000750260919D0270919E0280919F029091A3
:1012D000A0020E9477021093A702C9C00E946D016C
:1012E00060939D0270939E0280939F029093A00250
:1012F00086EB92E00E94750280E092E00E94750207
:1013000060919D0270919E0280919F029091A00237
:101310000E9477021092A5021092A7021092A602D4
:10132000CE0149960E948203CE0183960E948203D9
:101330008091A502882309F46FC00E946D0160931B
:101340009D0270939E0280939F029093A00286EB71
:1013500092E00E9475028FE192E00E947502609116
:101360009D0270919E0280919F029091A0020E9426
:10137000770284E090E09093BF028093BE020E94C7
:10138000240C24E630E040E050E00E94A00D0E94D2
:10139000830C6B017C0120E030E048EC52E460916A
:1013A000990270919A0280919B0290919C020E94F6
:1013B000E20C9B01AC01C701B6010E947C0C87FFC7
:1013C0002BC082E085B96091850270918602809180
:1013D0008702909188020E94AE0E0E94920115B879
:1013E0000E946D0160939D0270939E0280939F0204
:1013F0009093A00286EB92E00E9475028EE292E04A
:101400000E94750260919D0270919E0280919F02E0
:101410009091A0020E947702CE018D960E948203D5
:10142000CE01C7960E94820389CE8091A6028111C7
:1014300029CF0E946D0160939D0270939E0280935C
:101440009F029093A00286EB92E00E9475028AE0D0
:1014500092E00E94750260919D0270919E028091BF
:101460009F029091A0020E9477021093A602CE01E3
:1014700001960E94D603CE0101960E948203CE01FE
:1014800049960E948203CE0183960E94820388CEF1
:10149000CE0101960E94D60365E471E0CE0101966B
:1014A0000E946D038823C9F10E946D0160939D0223
:1014B00070939E0280939F029093A00281E090E03F
:1014C000909398028093970286EB92E00E947502B7
:1014D0008CE392E00E94750260919D0270919E02E1
:1014E00080919F029091A0020E94770286EB92E089
:1014F0000E94750286E492E00E9475028091970234
:10150000909198020E948B0285E090E09093BF0238
:101510008093BE02CE01019685CF6AE471E0CE01D0
:1015200001960E946D038823A9F30E946D016093C8
:101530009D0270939E0280939F029093A00282E08E
:1015400090E0BECF80910401909105012091970217
:10155000309198028217930769F481E090E09093AC
:1015600096028093950287E090E09093BF0280936B
:10157000BE021CC08336910549F490939602809375
:1015800095020E94240C88E090E0EFCF1092960222
:101590001092950280910201909103018130910592
:1015A00019F486E090E0E1CF892B69F386EB92E0B5
:1015B0000E9475028FE492E00E947502809195026C
:1015C000909196020E948B02B9CD0E946D016093AA
:1015D0009D0270939E0280939F029093A00286EBDF
:1015E00092E00E9475028DE592E00E947502609182
:1015F0009D0270919E0280919F029091A0020E9494
:10160000770260E070E0CB01C0909D02D0909E0216
:10161000E0909F02F090A0029B01AC012C193D09C3
:101620004E095F0969017A0120919102309192027D
:101630004091930250919402A8EEB3E00E94BF0D36
:10164000C616D706E806F9061CF40E946D01DCCF29
:101650000E946D0160939D0270939E0280939F0291
:101660009093A00286EB92E00E94750283E692E0DE
:101670000E94750260919D0270919E0280919F026E
:101680009091A0020E94770288E090E09093BF02C0
:101690008093BE0253CD0E946D0160939D027093B2
:1016A0009E0280939F029093A00280919702909156
:1016B000980281309105B1F431E035B960918D0225
:1016C00070918E0280918F02909190020E94AE0ED6
:1016D0000E94920115B886EB92E00E9475028AE69C
:1016E00092E0C6CF0297B9F784E085B9609189028C
:1016F00070918A0280918B0290918C02E7CF0E94B8
:101700006D0160939D0270939E0280939F0290935F
:10171000A00286EB92E00E94750281E792E00E94AF
:10172000750260919D0270919E0280919F0290913E
:10173000A0020E9477028091000190910101019620
:1017400090930101809300019F938F933F922F927A
:1017500086EB92E09F938F930E94E81086EB92E0D5
:101760000E9475020E946D014AE00E94100289EDFC
:1017700091E00E94750280910001909101010E9408
:101780008B0280EC92E00E94BE000F900F900F90B1
:101790000F900F900F90892B21F080EC92E00E9427
:1017A0009C0081E090E072CF8DE593E00C94820381
:1017B0008F929F92AF92BF92CF92DF92EF92FF9261
:1017C000CF93DF93EC01688179818A819B816115D8
:1017D00071058105910521F464E279ED8BE597E0CF
:1017E0002DE133EF41E050E00E94A00D49015A0184
:1017F0009B01AC01A7EAB1E40E94BF0D6B017C0123
:10180000ACEEB4EFA50194010E94CD0DC60ED71E1B
:10181000E81EF91EF7FE06C081E0C81AD108E108EB
:1018200080E8F80AC882D982EA82FB82C701B60141
:101830009F77DF91CF91FF90EF90DF90CF90BF9097
:10184000AF909F908F9008958F929F92AF92BF928A
:10185000CF92DF92EF92FF926091060170910701A3
:10186000809108019091090161157105810591052B
:1018700021F464E279ED8BE597E02DE133EF41E06F
:1018800050E00E94A00D49015A019B01AC01A7EA5A
:10189000B1E40E94BF0D6B017C01ACEEB4EFA50179
:1018A00094010E94CD0DC60ED71EE81EF91EF7FE4C
:1018B00006C081E0C81AD108E10880E8F80AC092A1
:1018C0000601D0920701E0920801F0920901C701D8
:1018D000B6019F77FF90EF90DF90CF90BF90AF90D1
:1018E0009F908F90089560930601709307018093F5
:1018F00008019093090108950E94BE0C08F481E04C
:101900000895E89409C097FB3EF4909580957095F2
:1019100061957F4F8F4F9F4F9923A9F0F92F96E93B
:10192000BB279395F695879577956795B795F111B0
:10193000F8CFFAF4BB0F11F460FF1BC06F5F7F4F4D
:101940008F4F9F4F16C0882311F096E911C077235F
:1019500021F09EE8872F762F05C0662371F096E868
:10196000862F70E060E02AF09A95660F771F881F37
:10197000DAF7880F9695879597F90895990F0008DB
:10198000550FAA0BE0E8FEEF16161706E807F90751
:10199000C0F012161306E407F50798F0621B730BEC
:1019A000840B950B39F40A2661F0232B242B252B6D
:1019B00021F408950A2609F4A140A6958FEF811D10
:1019C000811D08950E94F50C0C94660D0E94580D1F
:1019D00038F00E945F0D20F0952311F00C944F0D0C
:1019E0000C94550D11240C949A0D0E94770D70F3F0
:1019F000959FC1F3950F50E0551F629FF001729FB4
:101A0000BB27F00DB11D639FAA27F00DB11DAA1FC2
:101A1000649F6627B00DA11D661F829F2227B00D0F
:101A2000A11D621F739FB00DA11D621F839FA00D9A
:101A3000611D221F749F3327A00D611D231F849FEA
:101A4000600D211D822F762F6A2F11249F57504041
:101A50009AF0F1F088234AF0EE0FFF1FBB1F661FBC
:101A6000771F881F91505040A9F79E3F510580F085
:101A70000C944F0D0C949A0D5F3FE4F3983ED4F311
:101A8000869577956795B795F795E7959F5FC1F729
:101A9000FE2B880F911D9695879597F9089597F9D4
:101AA0009F6780E870E060E008959FEF80EC089504
:101AB00000240A941616170618060906089500242D
:101AC0000A9412161306140605060895092E0394A7
:101AD000000C11F4882352F0BB0F40F4BF2B11F41B
:101AE00060FF04C06F5F7F4F8F4F9F4F089557FD7A
:101AF0009058440F551F59F05F3F71F04795880F7C
:101B000097FB991F61F09F3F79F087950895121612
:101B100013061406551FF2CF4695F1DF08C01616BE
:101B200017061806991FF1CF86957105610508946F
:101B30000895E894BB2766277727CB0197F9089586
:101B4000052E97FB1EF400940E94B70D57FD07D099
:101B50000E94090E07FC03D04EF40C94B70D50956B
:101B60004095309521953F4F4F4F5F4F0895909589
:101B70008095709561957F4F8F4F9F4F08950E947C
:101B80002B0EA59F900DB49F900DA49F800D911DCD
:101B900011240895B7FF0C94BF0D0E94BF0D821B46
:101BA000930B08952F923F924F925F926F927F9284
:101BB0008F929F92AF92BF92CF92DF92EF92FF925D
:101BC0000F931F93CF93DF93CDB7DEB7CA1BDB0B09
:101BD0000FB6F894DEBF0FBECDBF09942A883988AE
:101BE00048885F846E847D848C849B84AA84B984B5
:101BF000C884DF80EE80FD800C811B81AA81B981C1
:101C0000CE0FD11D0FB6F894DEBF0FBECDBFED01D4
:101C10000895A1E21A2EAA1BBB1BFD010DC0AA1F2D
:101C2000BB1FEE1FFF1FA217B307E407F50720F045
:101C3000A21BB30BE40BF50B661F771F881F991FC0
:101C40001A9469F760957095809590959B01AC0109
:101C5000BD01CF010895A29FB001B39FC001A39F12
:101C6000700D811D1124911DB29F700D811D1124D5
:101C7000911D08955058BB27AA270E94520E0C941C
:101C8000660D0E94580D38F00E945F0D20F039F467
:101C90009F3F19F426F40C94550D0EF4E095E7FBE4
:101CA0000C944F0DE92F0E94770D58F3BA17620775
:101CB00073078407950720F079F4A6F50C94990D25
:101CC0000EF4E0950B2EBA2FA02D0B01B901900157
:101CD0000C01CA01A0011124FF27591B99F0593F9B
:101CE00050F4503E68F11A16F040A22F232F342FE3
:101CF0004427585FF3CF469537952795A795F04031
:101D00005395C9F77EF41F16BA0B620B730B840B45
:101D1000BAF09150A1F0FF0FBB1F661F771F881FFD
:101D2000C2F70EC0BA0F621F731F841F48F4879555
:101D300077956795B795F7959E3F08F0B0CF939547
:101D4000880F08F09927EE0F9795879508950E94C0
:101D5000AE0E6894B1110C949A0D08950E947F0DF7
:101D600088F09F5798F0B92F9927B751B0F0E1F05C
:101D7000660F771F881F991F1AF0BA95C9F714C00C
:101D8000B13091F00E94990DB1E008950C94990D35
:101D9000672F782F8827B85F39F0B93FCCF3869545
:101DA00077956795B395D9F73EF4909580957095A2
:101DB00061957F4F8F4F9F4F08950E94BE0C08F48E
:101DC0008FEF08950E94BE0C880B990B0895EE0FBB
:101DD000FF1F0590F491E02D09940F931F93CF936B
:101DE000DF938230910510F482E090E0E09165038A
:101DF000F091660330E020E0B0E0A0E0309799F485
:101E00002115310509F44AC0281B390B243031054E
:101E1000D8F58A819B816115710589F1FB01938356
:101E20008283FE0111C040815181028113814817D4
:101E30005907E0F04817590799F4109761F0129686
:101E40000C93129713961C933296CF01DF91CF918A
:101E50001F910F9108950093650310936603F4CFCB
:101E60002115310551F04217530738F0A901DB0164
:101E70009A01BD01DF01F801C1CFEF01F9CF9093C5
:101E8000660380936503CDCFFE01E20FF31F8193BC
:101E900091932250310939832883D7CF209163034E
:101EA00030916403232B41F420910C0130910D01FA
:101EB000309364032093630320910A0130910B0156
:101EC0002115310541F42DB73EB740910E015091D7
:101ED0000F01241B350BE0916303F0916403E217BB
:101EE000F307A0F42E1B3F0B2817390778F0AC013D
:101EF0004E5F5F4F2417350748F04E0F5F1F50931A
:101F0000640340936303819391939FCFF0E0E0E0FB
:101F10009CCFCF93DF930097E9F0FC0132971382B7
:101F20001282A0916503B0916603ED0130E020E0DC
:101F30001097A1F420813181820F931F20916303B8
:101F4000309164032817390709F061C0F0936403E6
:101F5000E0936303DF91CF910895EA01CE17DF0785
:101F6000E8F54A815B819E0141155105B1F7E90110
:101F7000FB83EA8349915991C40FD51FEC17FD07E4
:101F800061F4808191810296840F951FE901998304
:101F90008883828193819B838A83F0E0E0E01296BC
:101FA0008D919C9113970097B9F52D913C911197C4
:101FB000CD010296820F931F209163033091640339
:101FC0002817390739F6309751F5109266031092A9
:101FD0006503B0936403A0936303BCCFD383C28330
:101FE00040815181840F951FC817D90761F44E5F56
:101FF0005F4F88819981480F591F518340838A819F
:102000009B81938382832115310509F0B0CFF09332
:102010006603E09365039ECFFD01DC01C0CF138210
:102020001282D7CFB0E0A0E0E8E1F0E10C94D40D4B
:102030008C01009751F4CB010E94ED0E8C01C80178
:10204000CDB7DEB7E0E10C94F00DFC01E60FF71F11
:102050009C0122503109E217F30708F49DC0D90111
:10206000CD91DC911197C617D70798F0C530D105EF
:1020700030F3CE0104978617970708F3C61BD70BDA
:102080002297C193D1936D937C93CF010E94890FC6
:10209000D6CF5B01AC1ABD0A4C018C0E9D1EA091DF
:1020A0006503B0916603512C412CF12CE12C109763
:1020B00031F580916303909164038815990509F0C7
:1020C0005CC04616570608F058C080910A019091EE
:1020D0000B01009741F48DB79EB740910E015091CE
:1020E0000F01841B950BE817F90708F055C0F09312
:1020F0006403E0936303F90171836083A0CF8D9142
:102100009C91119712966C90129713967C9013974E
:10211000A815B90559F56C0142E0C40ED11CCA14CA
:10212000DB0420F1AC014A195B09DA01129615971C
:1021300080F06282738251834083D9016D937C93D6
:10214000E114F10471F0D7011396FC93EE9312970A
:1021500076CF22968C0F9D1FF90191838083F30126
:10216000EFCFF0936603E093650369CF48165906F5
:1021700008F42C017D01D3019ACFCB010E94ED0E12
:102180007C01009749F0AE01B8010E94CF10C80150
:102190000E94890F870153CF10E000E050CFFB0170
:1021A000DC0102C001900D9241505040D8F70895D3
:1021B000FB01DC018D91019080190110D9F3990B7D
:1021C0000895FB01DC0101900D920020E1F70895D4
:1021D000AEE0B0E0EEEEF0E10C94E00D0D891E896A
:1021E00086E08C831A8309838FEF9FE79E838D831C
:1021F000AE01475E5F4F6F89788DCE0101960E94D8
:102200000B112F813885020F131FF80110822E96B3
:10221000E4E00C94FC0DABE0B0E0E1E1F1E10C9402
:10222000D20D7C013B018A01FC0117821682838159
:1022300081FFC8C1CE0101965C01F7019381F301D2
:1022400093FD859193FF81913F01882309F453C148
:10225000853239F493FD859193FF81913F01853259
:1022600029F4B70190E00E94FB12E7CF912C212CBA
:10227000312CFFE1F31538F08B3211F190F48032FC
:1022800009F1833229F137FC3CC020ED280F2A30B8
:1022900050F536FE20C08AE0989E200D1124922E23
:1022A00006C08D3291F0803371F7689430F8F301F5
:1022B00093FD859193FF81913F018111DACF21C078
:1022C000689431F8689432F8F2CF689433F8EFCF1D
:1022D000689434F8ECCFEAE02E9E200D1124222ED3
:1022E000689435F8E4CF8E3229F436FC04C1689442
:1022F00036F8DDCF8C3619F4689437F8D8CF8836A5
:10230000B1F2982F9F7D95549330E0F08336A1F180
:102310008337C1F1833509F063C02801F2E04F0E25
:10232000511CF801C080D180692D70E036FC02C0DC
:102330006FEF7FEFC6010E94E5124C01689437F8F9
:1023400082010AC00C5F1F4FFFE3F9838824839446
:10235000912C6501E89437F833FE2DC0522C81147E
:10236000910471F5552009F468CFB70180E290E03F
:102370000E94FB125A94F6CFF801808189830E5F88
:102380001F4FE4CF2801F2E04F0E511CF801C0802E
:10239000D180692D70E036FC02C06FEF7FEFC6017F
:1023A0000E94F0124C018201D5CFB70180E290E08B
:1023B0000E94FB122A942814190409F0B0F7CECF1A
:1023C000F60137FC859137FE81916F01B70190E0EE
:1023D0000E94FB1251105A94F1E08F1A9108BFCF5E
:1023E000843619F0893609F077C0F80137FE6BC0E2
:1023F00060817181828193810C5F1F4FF32DFF7685
:102400003F2E97FF09C090958095709561957F4FFD
:102410008F4F9F4F689437F82AE030E0A5010E9463
:102420002B13C82ECA188C2C432C36FE0CC0E894F3
:1024300040F8C91440F434FE05C032FC03C0F32D4B
:10244000FE7E4F2E892C44FE95C0FE01EC0DF11D41
:102450008081803309F087C0242D297E422E842D6F
:102460008870582E43FC95C040FE8FC09C2C82146F
:1024700018F42C0C922C981844FE91C0B70180E3FC
:1024800090E00E94FB1242FE09C088E790E041FE06
:1024900002C088E590E0B7010E94FB12C91408F45D
:1024A0008AC0CA94D12C9FEFC91AD90ACA0CDB1C66
:1024B000F60182916F01B70190E00E94FB12AC140B
:1024C000BD04B1F74FCF60817181072E000C880BDE
:1024D000990B0E5F1F4F92CFD32CE894D4F82AE0CB
:1024E00030E0853739F1232D297FD22E8F3601F147
:1024F00048F48835A9F0F701868197812B96E2E1AF
:102500000C94EE0D803749F08837A9F7D4FE02C04D
:102510006894D2F820E130E00DC06894D4F8F6CF8A
:1025200034FE03C0822F8660D82E20E132E002C044
:1025300028E030E0F801D7FE0FC060817181828110
:1025400093810C5F1F4FA5010E942B13C82ECA1840
:102550003D2CE89437F867CF6081718190E080E08E
:102560000E5F1F4FF0CF42FC02C0839478CF83945C
:10257000839475CF842D867809F471CFF6CFB70197
:1025800080E290E00E94FB1283948214C0F3512CED
:1025900073CF522C5818821408F46ECFF8CF842DC4
:1025A000867809F47BCF8BE241FE80E247FC8DE226
:1025B000B70190E071CFB70180E390E00E94FB1279
:1025C0009A946CCF8FEF9FEF99CFFC0105906150EB
:1025D00070400110D8F7809590958E0F9F1F089539
:1025E000FC016150704001900110D8F780959095E2
:1025F0008E0F9F1F08950F931F93CF93DF93182F74
:10260000092FEB018B8181FD09C01FEF0FEF812F97
:10261000902FDF91CF911F910F91089582FF14C0E9
:102620002E813F818C819D81281739073CF4E881F8
:10263000F981CF0101969983888310838E819F81D0
:1026400001969F838E83E3CFE885F985812F0995D5
:10265000892BA1F3DACFFA01AA27283051F12031D2
:1026600081F1E8946F936E7F6E5F7F4F8F4F9F4F26
:10267000AF4FB1E03ED0B4E03CD0670F781F891F68
:102680009A1FA11D680F791F8A1F911DA11D6A0F36
:10269000711D811D911DA11D20D009F468943F91E9
:1026A0002AE0269F11243019305D3193DEF6CF01E8
:1026B0000895462F4770405D4193B3E00FD0C9F7AE
:1026C000F6CF462F4F70405D4A3318F0495D31FD1B
:1026D0004052419302D0A9F7EACFB4E0A69597956E
:1026E000879577956795BA95C9F700976105710544
:1026F00008959B01AC010A2E06945795479537958E
:102700002795BA95C9F7620F731F841F951FA01DE7
:10271000089510E0C5E3D0E004C0FE010E94E70E7A
:0C2720002196C633D107C9F7F894FFCF0B
:10272C0001000100020001000000000067038000AE
:10273C0000000000000160008D004D01BE009C00F7
:10274C00B0000D0A006E616E00696E66006F7666F1
:10275C000063656E7465720063656E7465725F61AB
:10276C007564696F006C65667400726967687400E3
:10277C006E6F6E650073657269616C5F6573746111
:10278C00626C69736865640052455754494D455FE6
:10279C004C200052455754494D455F52200052453C
:1027AC005754494D455F432000544F54494D4520E3
:1027BC0000484F4C4454494D454D494E2000484F1C
:1027CC004C4454494D454D4158200043454E5445C9
:1027DC00524445424F554E4345200043454E5445C7
:1027EC005252455741524450524F42200053454596
:1027FC0044200025303464200020545249414C4F71
:10280C004E00545249414C545950452000474956AA
:10281C0045544F2000415544494F574149542000DD
:10282C004541524C594445502000454E44484F4C6C
:10283C004454494D4520005354494D4F4E200054AB
:10284C004F54414C5741495454494D452000434540
:10285C004E54455252455741524420005245535014
:10286C0054494D4520005245535044495220005480
:10287C005249414C4F5554434F4D452000544F4FF6
:10288C004E2000544F4F464620005245574F4E2085
:0C289C0000545249414C454E44200000BD
:00000001FF
