:100000000C9436000C945E000C945E000C945E0020
:100010000C945E000C945E000C945E000C945E00E8
:100020000C945E000C945E000C945E000C945E00D8
:100030000C945E000C945E000C945E000C945E00C8
:100040000C948E040C945E000C945C040C943604A6
:100050000C945E000C945E000C945E000C945E00A8
:100060000C945E000C945E00D8046A0B11241FBE31
:10007000CFEFD8E0DEBFCDBF12E0A0E0B1E0E8E511
:10008000F6E202C005900D92AC35B107D9F723E036
:10009000ACE5B2E001C01D92A334B207E1F710E075
:1000A000C5E3D0E004C02197FE010E947D0EC43359
:1000B000D107C9F70E9413050C941F130C9400007C
:1000C000AF92BF92CF92DF92EF92FF920F931F9366
:1000D000CF93DF936C017B018B01040F151FEB01A4
:1000E0005E01AE18BF08C017D10759F06991D6015B
:1000F000ED91FC910190F081E02DC6010995892BCD
:1001000079F7C501DF91CF911F910F91FF90EF908B
:10011000DF90CF90BF90AF900895FC01538D448D38
:10012000252F30E0842F90E0821B930B541710F0A2
:10013000CF96089501970895FC01918D828D9817AF
:1001400061F0A28DAE0FBF2FB11D5D968C91928D87
:100150009F5F9F73928F90E008958FEF9FEF0895B8
:10016000FC01918D828D981731F0828DE80FF11D81
:10017000858D90E008958FEF9FEF0895FC01918D9C
:10018000228D892F90E0805C9F4F821B91098F7395
:10019000992708958CE992E00E94BE0021E0892B06
:1001A00009F420E0822F089580E090E0892B29F067
:1001B0000E94CA0081110C9400000895FC01A48DD6
:1001C000A80FB92FB11DA35ABF4F2C91848D90E079
:1001D00001968F739927848FA689B7892C93A0895C
:1001E000B1898C91837080648C93938D848D9813E6
:1001F00006C00288F389E02D80818F7D8083089579
:10020000EF92FF920F931F93CF93DF93EC0181E066
:10021000888F9B8D8C8D98131AC0E889F98980810D
:1002200085FF15C09FB7F894EE89FF896083E88940
:10023000F98980818370806480839FBF81E090E032
:10024000DF91CF911F910F91FF90EF900895F62EBF
:100250000B8D10E00F5F1F4F0F731127E02E8C8D59
:100260008E110CC00FB607FCFACFE889F98980819E
:1002700085FFF5CFCE010E94DE00F1CFEB8DEC0FB4
:10028000FD2FF11DE35AFF4FF0829FB7F8940B8FBB
:10029000EA89FB8980818062CFCFCF93DF93EC0125
:1002A000888D8823B9F0AA89BB89E889F9898C915E
:1002B00085FD03C0808186FD0DC00FB607FCF7CF1A
:1002C0008C9185FFF2CF808185FFEDCFCE010E941A
:1002D000DE00E9CFDF91CF9108953FB7F894809188
:1002E000610290916202A0916302B091640226B50E
:1002F000A89B05C02F3F19F00196A11DB11D3FBF5E
:10030000BA2FA92F982F8827BC01CD01620F711D2C
:10031000811D911D42E0660F771F881F991F4A9526
:10032000D1F708958F929F92AF92BF92CF92DF92B2
:10033000EF92FF926B017C010E946D014B015C0109
:10034000C114D104E104F104B9F00E946D016819EF
:1003500079098A099B09683E73408105910580F3FC
:1003600021E0C21AD108E108F10888EE880E83E086
:10037000981EA11CB11CE4CFFF90EF90DF90CF90AE
:10038000BF90AF909F908F9008952FB7F894609191
:100390005D0270915E0280915F02909160022FBFBA
:1003A00008950F931F930E94C5016093A402709358
:1003B000A5028093A6029093A7028CE992E00E9486
:1003C000B00097FF1DC00E94C5010091A4021091CA
:1003D000A5022091A6023091A702601B710B820B2F
:1003E000930B0091A0021091A1022091A2023091E2
:1003F000A3026017710782079307F8F28FEF9FEF50
:100400001F910F910895FC0101900020E9F73197A9
:10041000AF01481B590BBC018CE992E00C946000C1
:100420008F929F92AF92BF920F931F93CF93DF93C0
:10043000CDB7DEB7A1970FB6F894DEBF0FBECDBF24
:1004400019A2423008F44AE08E010F5D1F4F842E3E
:10045000912CB12CA12CA50194010E949F0DE62F97
:10046000B901CA01EA30F4F4E05DD801EE938D01E0
:10047000232B242B252B79F790E080E0109719F09F
:10048000CD010E940302A1960FB6F894DEBF0FBE05
:10049000CDBFDF91CF911F910F91BF90AF909F90F3
:1004A0008F900895E95CE1CFCF92DF92EF92FF92B7
:1004B000CF93DF936B017C016DE28CE992E00E94A7
:1004C0000001EC0166277727CB016C197D098E09A5
:1004D0009F094AE00E9410028C0F9D1FDF91CF916F
:1004E000FF90EF90DF90CF9008950C940302CF938C
:1004F000DF9397FF0CC00E945402EC0182E291E06E
:100500000E9403028C0F9D1FDF91CF9108954AE056
:100510000E941002F2CFCF93DF93BC01990F880B9A
:10052000990B97FF0CC00E945402EC0182E291E00B
:100530000E9403028C0F9D1FDF91CF9108954AE026
:100540000E941002F2CF4F925F926F927F928F9231
:100550009F92AF92BF92CF92DF92EF92FF926B0188
:100560007C01AC019B010E94780E8823C1F085E2DA
:1005700091E00E9403027C0182E291E00E9403026A
:100580008E0D9F1DFF90EF90DF90CF90BF90AF90AA
:100590009F908F907F906F905F904F90089546014D
:1005A0005701E894B7F82FEF3FEF4FE75FE7C5013A
:1005B000B4010E94780E81110DC02FEF3FEF4FE77D
:1005C0005FE7C501B4010E94120C18161CF489E201
:1005D00091E0CFCF2FEF3FEF4FE75FE4C701B601C8
:1005E0000E94730E18161CF48DE291E0C2CF2FEF1B
:1005F0003FEF4FE75FECC701B6010E94120C87FD89
:10060000F3CF20E030E0A901C701B6010E94120C2F
:10061000B12CA12C87FF0AC06DE28CE992E00E9408
:1006200000015C01F7FAF094F7F8F0942AE037ED56
:1006300043EA5BE3C701B6010E94D10D2B013C01E7
:100640000E94440E6B017C010E94170C9B01AC01BF
:10065000C301B2010E94D00D2B013C014AE0C70149
:10066000B6010E9410027C01EA0CFB1C6EE28CE9D0
:1006700092E00E940001E80EF91E20E030E040E226
:1006800051E4C301B2010E94780C2B013C010E948D
:10069000440E4B01B12CA12C4AE0C501B4010E94CB
:1006A0001002E80EF91EC501B4010E94170C9B014F
:1006B000AC01C301B2010E94D00D20E030E040E265
:1006C00051E40E94780C0E94440E90E080E04AE0E1
:1006D0000E941002E80EF91E4FCFFC0124813581E3
:1006E000232B39F421E0FB018081882349F020E0AD
:1006F00007C0808191810E946E1021E0892BB9F79B
:10070000822F0895FC0180819181009711F00C9453
:100710001F0F0895EF92FF920F931F93CF93DF93D4
:10072000EC017B018A0188819981009729F02A8157
:100730003B812417350788F4B8016F5F7F4F0E9413
:10074000A80F009791F0998388831B830A832C81DB
:100750003D81232B11F4FC0110821D830C83B70112
:10076000888199810E9477100CC0888199810097B7
:1007700011F00E941F0F198218821D821C821B8299
:100780001A82CE01DF91CF911F910F91FF90EF90D0
:100790000895FC0101900020E9F73197AF01481B53
:1007A000590BBC0189E393E00C948A03CF92DF924A
:1007B000EF92FF92CF93DF93EC010E94C5016B0192
:1007C0007C0199B189B1933A11F0813A41F581E305
:1007D00091E00E94C903198218821B821A821D822D
:1007E0001C8283E0C933D80771F06091390370919E
:1007F0003A036115710539F040913D0350913E0374
:10080000CE010E948A03CE82DF82E886F986CE017D
:10081000DF91CF91FF90EF90DF90CF90089599B145
:1008200089B1933B11F0813B19F488E391E0D1CF7A
:1008300099B189B1933C11F0813C19F485E491E0C0
:10084000C8CF99B189B1913611F0833619F48AE491
:1008500091E0BFCF99B189B1913F11F08F3E19F46A
:100860008FE391E0B6CF80E591E0B3CF1F920F9276
:100870000FB60F9211242F933F934F935F936F9373
:100880007F938F939F93AF93BF93EF93FF938CE9E5
:1008900092E00E94DE00FF91EF91BF91AF919F9196
:1008A0008F917F916F915F914F913F912F910F9019
:1008B0000FBE0F901F9018951F920F920FB60F92B8
:1008C00011242F938F939F93EF93FF93E091AC02AA
:1008D000F091AD028081E091B202F091B30282FD0D
:1008E0001BC090818091B5028F5F8F732091B602FB
:1008F000821741F0E091B502F0E0E456FD4F958F8C
:100900008093B502FF91EF919F918F912F910F905E
:100910000FBE0F901F9018958081F4CF1F920F92F9
:100920000FB60F9211242F933F938F939F93AF9302
:10093000BF9380915D0290915E02A0915F02B091A1
:10094000600230915C0223E0230F2D3758F50196A9
:10095000A11DB11D20935C0280935D0290935E0205
:10096000A0935F02B0936002809161029091620255
:10097000A0916302B09164020196A11DB11D809304
:10098000610290936202A0936302B0936402BF91EC
:10099000AF919F918F913F912F910F900FBE0F902C
:1009A0001F90189526E8230F0296A11DB11DD2CFE6
:1009B000ECE9F2E01382128288EE93E0A0E0B0E06E
:1009C00084839583A683B78384E191E091838083B8
:1009D00085EC90E09587848784EC90E09787868704
:1009E00080EC90E0918B808B81EC90E0938B828BFC
:1009F00082EC90E0958B848B86EC90E0978B868BD5
:100A0000118E128E138E148EE9E3F3E011821082A0
:100A1000138212821582148250E040E064E271E099
:100A2000CF010C948A03CF93DF93CDB7DEB7E8975D
:100A30000FB6F894DEBF0FBECDBF789484B5826048
:100A400084BD84B5816084BD85B5826085BD85B572
:100A5000816085BD80916E00816080936E001092F0
:100A6000810080918100826080938100809181006B
:100A700081608093810080918000816080938000FC
:100A80008091B10084608093B1008091B00081605A
:100A90008093B00080917A00846080937A00809186
:100AA0007A00826080937A0080917A0081608093DE
:100AB0007A0080917A00806880937A001092C10059
:100AC000E091AC02F091AD0282E08083E091A80257
:100AD000F091A9021082E091AA02F091AB0280E1AC
:100AE00080831092B402E091B002F091B10286E0EE
:100AF0008083E091AE02F091AF02808180618083BB
:100B0000E091AE02F091AF02808188608083E09135
:100B1000AE02F091AF02808180688083E091AE02E6
:100B2000F091AF0280818F7D80838CE992E00E94FA
:100B30009C0085E591E00E94030282E291E00E9420
:100B400003021AB887E084B915B881EE8BB910E0BA
:100B500000E05801AA0CBB1CAA0CBB1C21E030E031
:100B60002C0F3D1FA20EB31E8CE992E00E94BE0026
:100B70001816190674F70E94D101FC0197FD97C160
:100B80008D32910509F04CC0412C512C20E8622E89
:100B90002FE3722EC12CD12C7601912C812CE130C7
:100BA000F10559F1ED32F10509F447C0EE32F105D6
:100BB00009F446C0CF01C0970A97F8F4AAE0B0E064
:100BC000A70196010E94550D6F01FF0FEE08FF0867
:100BD000C60ED71EE81EF91E30E3C31AD108E1087D
:100BE000F108992051F02DEC3CEC4CEC5DE3C30195
:100BF000B2010E94780C2B013C018CE992E00E942A
:100C00009C000E94D101FC01C0970A9740F2EE328D
:100C1000F105C9F4992019F2982C81101AC027C047
:100C2000C0970A9708F4B0CFEE32F10509F4ACCFC3
:100C30008CE992E00E949C009ECF88248394DDCFB3
:100C400099249394DACFE130F10509F4A8CF8820F4
:100C500041F0F094E094D094C094C11CD11CE11CEC
:100C6000F11CC701B6010E94190C992041F0C7017F
:100C7000B6010E94190CA30192010E94780CD501C3
:100C80006D937D938D939D935D010F5F1F4F073093
:100C900011050CF469CF49805A806B807C804092AA
:100CA0006D0250926E0260926F02709270028D809F
:100CB0009E80AF80B8848092690290926A02A0926E
:100CC0006B02B0926C0229853A854B855C852DA715
:100CD0003EA74FA758AB209365023093660240931E
:100CE000670250936802CD84DE84EF84F888C701E0
:100CF000B6010E943D0E6093710270937202809360
:100D000073029093740289899A89AB89BC8989ABF3
:100D10009AABABABBCAB80938A0290938B02A0934F
:100D20008C02B0938D022D893E894F89588D2DAB51
:100D30003EAB4FAB58AF20938E0230938F0240935F
:100D4000900250939102898D9A8DAB8DBC8D8093CA
:100D50007D0290937E02A0937F02B093800288E68A
:100D600091E00E947502C301B2010E94A30283E7D1
:100D700091E00E947502C501B4010E94A3028EE7B2
:100D800091E00E9475026DA57EA58FA598A90E948D
:100D9000A30289E891E00E947502C701B6010E9492
:100DA000A30281E991E00E94750269A97AA98BA941
:100DB0009CA90E94A3028EE991E00E9475026DA990
:100DC0007EA98FA998AD0E94A3028BEA91E00E94B0
:100DD000750260917D0270917E0280917F029091F8
:100DE00080020E94A3020E94C5016B017C01C11414
:100DF000D104E104F10411F00E94090C8BEB91E0A5
:100E00000E947502C701B6010E947702809101011C
:100E10008F93809100018F9381EC91E09F938F934A
:100E200082E992E09F938F930E947E1082E992E084
:100E30000E9475020E946D014AE00E94100287EC38
:100E400091E00E94750280910001909101010E9441
:100E50008B0281E090E090939B0280939A028CE950
:100E600092E00E949C008CE992E00E949C000F900E
:100E70000F900F900F900F900F9022242394312CFD
:100E800008E010E0E0919A02F0919B023197E8307F
:100E9000F10508F02CC1E15BF84F0C947D0E5B0767
:100EA00090087708D609320A790ADD0A110B60E04A
:100EB00070E0CB01E4CE8CE992E00E949C00F12C22
:100EC000E12C6701CC0CDD1CCC0CDD1C41E050E0BA
:100ED0004C0F5D1FC40ED51E8CE992E00E94BE002F
:100EE0001816190674F70E94D101FC0197FD14C170
:100EF0008D32910521F0C0970A9708F005C1812C29
:100F0000912C5401712CE130F105D9F0ED32F1054D
:100F100009F4FFC0CF01C0970A9798F4AAE0B0E0A7
:100F2000A50194010E94550D4F01FF0FAA08BB08AF
:100F3000860E971EA81EB91E50E3851A9108A108B7
:100F4000B1088CE992E00E949C000E94D101FC0152
:100F5000C0970A97C0F2E130F105A9F2772041F07D
:100F6000B094A09490948094811C911CA11CB11CFD
:100F7000C501B4010E94190CD6016D937D938D9328
:100F80009D936D01BFEFEB1AFB0AE3E0EE16F1044F
:100F90000CF4A2CF49805A806B807C80C301B201DF
:100FA0000E943D0E70930501609304018D809E8028
:100FB000AF80B884C501B4010E943D0E7093030157
:100FC00060930201C984DA84EB84FC84C701B60112
:100FD0000E943D0E709399026093980282E992E01C
:100FE0000E94750280ED91E00E947502C301B2017A
:100FF0000E94A30282E992E00E9475028BED91E0CB
:101000000E947502C501B4010E94A30282E992E028
:101010000E94750283EE91E00E947502C701B6013D
:101020000E94A30260918E0270918F0280919002C3
:10103000909191020E943D0E6B017C0160918A02A9
:1010400070918B0280918C0290918D020E943D0ED6
:101050004B015C018C149D04AE04BF0474F4C818E9
:10106000D908EA08FB080E94BA0BA70196010E9462
:10107000360D860E971EA81EB91EC501B4010E942A
:10108000190C6B017C01C0928602D0928702E0921B
:101090008802F09289026091980270919902072E5D
:1010A000000C880B990B0E94190CA70196010E9455
:1010B000D10D0E943D0E709385026093840282E9F7
:1010C00092E00E9475028BEF91E00E947502809180
:1010D0008402909185020E948B0282E090E09093BE
:1010E0009B0280939A02109283021092820280E007
:1010F00090E0892B09F4C6CE0E94CA00882309F427
:10110000BCCE0E940000B9CE8CE992E00E949C0007
:10111000EACE7724739415CF812C912C540128CFDB
:10112000CE0183960E94D60361E371E0CE018396DF
:101130000E946D03882309F408C10E94C5014B0178
:101140005C01F1E0F0938102C12CD12C7601C8182A
:10115000D908EA08FB088091840290918502092E43
:10116000000CAA0BBB0BC816D906EA06FB060CF04E
:10117000B7C00E94C5016B017C011A8E198E1C8EAE
:101180001B8E1E8E1D8E6BA17CA16115710531F029
:101190004FA158A5CE0149960E948A0389A59AA518
:1011A000ABA5BCA58F8F98A3A9A3BAA3CE01019626
:1011B0000E94D60361E371E0CE0101960E946D03A7
:1011C000811123C068E371E0CE0101960E946D0396
:1011D00081111BC06F81788589859A854F8C58A0B5
:1011E00069A07AA064197509860997090E94190CEB
:1011F00020917D0230917E0240917F0250918002C9
:101200000E94730E18160CF441C0C701B60168198C
:1012100079098A099B090E94190C20918602309154
:10122000870240918802509189020E94730E87FFC5
:1012300091C068E371E0CE0101960E946D0388239E
:1012400009F4ABC0809183028111A7C00E946D0197
:101250006093790270937A0280937B0290937C0270
:1012600082E992E00E94750285E092E00E94750298
:101270006091790270917A0280917B0290917C0258
:101280000E94770231E03093830287C00E946D0193
:101290006093790270937A0280937B0290937C0230
:1012A00082E992E00E9475028EEE91E00E94750242
:1012B0006091790270917A0280917B0290917C0218
:1012C0000E94770210928102109283021092820291
:1012D000CE0101960E948203CE0149960E948203AC
:1012E00080918102882389F10E946D0160937902C7
:1012F00070937A0280937B0290937C0282E992E061
:101300000E9475028DE092E00E9475026091790260
:1013100070917A0280917B0290917C020E94770208
:1013200084E090E090939B0280939A0282E085B9DA
:1013300060916502709166028091670290916802E7
:101340000E94440E0E94920115B8CE0183960E941D
:101350008203CDCE8091820281116BCF0E946D01FC
:101360006093790270937A0280937B0290937C025F
:1013700082E992E00E94750288EF91E00E94750276
:101380006091790270917A0280917B0290917C0247
:101390000E94770221E020938202CE0101960E94F2
:1013A0008203CE0149960E948203D1CECE010196DE
:1013B0000E94D60365E471E0CE0101960E946D03A0
:1013C0008823B9F10E946D016093790270937A02CB
:1013D00080937B0290937C02309278022092770275
:1013E00082E992E00E9475028CE192E00E9475020F
:1013F0006091790270917A0280917B0290917C02D7
:101400000E94770282E992E00E94750286E292E0F1
:101410000E94750280917702909178020E948B025F
:1014200085E090E090939B0280939A02CE01019612
:101430008ECF6AE471E0CE0101960E946D0388238D
:10144000A9F30E946D016093790270937A028093F0
:101450007B0290937C0282E090E0909378028093EC
:101460007702BECF8091040190910501209177020F
:101470003091780282179307C9F430927602209255
:10148000750247E050E050939B0240939A0282E934
:1014900092E00E9475028FE292E00E9475028091B4
:1014A0007502909176020E948B0221CE83369105BF
:1014B00059F490937602809375020E94BA0B1093B0
:1014C0009B0200939A02E3CF10927602109275026B
:1014D00080910201909103018130910539F486E0F9
:1014E00090E090939B0280939A02D1CF892B39F39D
:1014F000CECF0E946D016093790270937A0280933F
:101500007B0290937C0282E992E00E9475028DE357
:1015100092E00E9475026091790270917A02809146
:101520007B0290917C020E94770260E070E0CB0128
:10153000C0907902D0907A02E0907B02F0907C0219
:101540009B01AC012C193D094E095F0969017A0123
:101550002091710230917202409173025091740295
:10156000A8EEB3E00E94550DC616D706E806F906A8
:101570001CF40E946D01DCCF0E946D016093790222
:1015800070937A0280937B0290937C0282E992E0CE
:101590000E94750283E492E00E94750260917902D4
:1015A00070917A0280917B0290917C020E94770276
:1015B00010939B0200939A029ACD0E946D01609352
:1015C000790270937A0280937B0290937C028091DF
:1015D00077029091780281309105B1F431E035B90C
:1015E00060916D0270916E0280916F029091700215
:1015F0000E94440E0E94920115B882E992E00E9476
:1016000075028AE492E0C8CF0297B9F784E085B901
:101610006091690270916A0280916B0290916C02F4
:10162000E7CF0E946D016093790270937A028093F4
:101630007B0290937C0282E992E00E94750281E530
:1016400092E00E9475026091790270917A02809115
:101650007B0290917C020E94770280910001909120
:101660000101019690930101809300019F938F9354
:1016700041EC51E05F934F9382E992E09F938F9307
:101680000E947E1082E992E00E9475020E946D0124
:101690004AE00E94100287EC91E00E94750280915E
:1016A0000001909101010E948B028CE992E00E945E
:1016B000BE000F900F900F900F900F900F90892BFE
:1016C00021F08CE992E00E949C0030929B022092D3
:1016D0009A020DCD89E393E00C9482038F929F923E
:1016E000AF92BF92CF92DF92EF92FF92CF93DF93B0
:1016F000EC01688179818A819B8161157105810581
:10170000910521F464E279ED8BE597E02DE133EF6B
:1017100041E050E00E94360D49015A019B01AC01A5
:10172000A7EAB1E40E94550D6B017C01ACEEB4EF69
:10173000A50194010E94630DC60ED71EE81EF91E76
:10174000F7FE06C081E0C81AD108E10880E8F80A6F
:10175000C882D982EA82FB82C701B6019F77DF91F6
:10176000CF91FF90EF90DF90CF90BF90AF909F9080
:101770008F9008958F929F92AF92BF92CF92DF92F7
:10178000EF92FF926091060170910701809108012C
:1017900090910901611571058105910521F464E2BB
:1017A00079ED8BE597E02DE133EF41E050E00E94C9
:1017B000360D49015A019B01AC01A7EAB1E40E9430
:1017C000550D6B017C01ACEEB4EFA50194010E94B4
:1017D000630DC60ED71EE81EF91EF7FE06C081E097
:1017E000C81AD108E10880E8F80AC0920601D09230
:1017F0000701E0920801F0920901C701B6019F7745
:10180000FF90EF90DF90CF90BF90AF909F908F9020
:1018100008956093060170930701809308019093E7
:10182000090108950E94540C08F481E00895E89499
:1018300009C097FB3EF490958095709561957F4F18
:101840008F4F9F4F9923A9F0F92F96E9BB279395C6
:10185000F695879577956795B795F111F8CFFAF4D6
:10186000BB0F11F460FF1BC06F5F7F4F8F4F9F4F07
:1018700016C0882311F096E911C0772321F09EE865
:10188000872F762F05C0662371F096E8862F70E0CB
:1018900060E02AF09A95660F771F881FDAF7880FA5
:1018A0009695879597F90895990F0008550FAA0BFB
:1018B000E0E8FEEF16161706E807F907C0F0121663
:1018C0001306E407F50798F0621B730B840B950B66
:1018D00039F40A2661F0232B242B252B21F40895BB
:1018E0000A2609F4A140A6958FEF811D811D089558
:1018F0000E948B0C0C94FC0C0E94EE0C38F00E94A1
:10190000F50C20F0952311F00C94E50C0C94EB0CE5
:1019100011240C94300D0E940D0D70F3959FC1F3AE
:10192000950F50E0551F629FF001729FBB27F00D8D
:10193000B11D639FAA27F00DB11DAA1F649F6627E2
:10194000B00DA11D661F829F2227B00DA11D621F31
:10195000739FB00DA11D621F839FA00D611D221FEB
:10196000749F3327A00D611D231F849F600D211DCF
:10197000822F762F6A2F11249F5750409AF0F1F052
:1019800088234AF0EE0FFF1FBB1F661F771F881FBB
:1019900091505040A9F79E3F510580F00C94E50C02
:1019A0000C94300D5F3FE4F3983ED4F38695779521
:1019B0006795B795F795E7959F5FC1F7FE2B880F61
:1019C000911D9695879597F9089597F99F6780E8F7
:1019D00070E060E008959FEF80EC089500240A9481
:1019E0001616170618060906089500240A941216FA
:1019F0001306140605060895092E0394000C11F42D
:101A0000882352F0BB0F40F4BF2B11F460FF04C0D9
:101A10006F5F7F4F8F4F9F4F089557FD9058440F32
:101A2000551F59F05F3F71F04795880F97FB991F3D
:101A300061F09F3F79F087950895121613061406FA
:101A4000551FF2CF4695F1DF08C016161706180687
:101A5000991FF1CF86957105610508940895E89462
:101A6000BB2766277727CB0197F90895052E97FBAB
:101A70001EF400940E944D0D57FD07D00E949F0D4B
:101A800007FC03D04EF40C944D0D509540953095C5
:101A900021953F4F4F4F5F4F0895909580957095DA
:101AA00061957F4F8F4F9F4F08950E94C10DA59F55
:101AB000900DB49F900DA49F800D911D1124089549
:101AC000B7FF0C94550D0E94550D821B930B089582
:101AD0002F923F924F925F926F927F928F929F923E
:101AE000AF92BF92CF92DF92EF92FF920F931F932C
:101AF000CF93DF93CDB7DEB7CA1BDB0B0FB6F894DD
:101B0000DEBF0FBECDBF09942A88398848885F841C
:101B10006E847D848C849B84AA84B984C884DF808D
:101B2000EE80FD800C811B81AA81B981CE0FD11D71
:101B30000FB6F894DEBF0FBECDBFED010895A1E250
:101B40001A2EAA1BBB1BFD010DC0AA1FBB1FEE1F37
:101B5000FF1FA217B307E407F50720F0A21BB30B82
:101B6000E40BF50B661F771F881F991F1A9469F7FE
:101B700060957095809590959B01AC01BD01CF015A
:101B80000895A29FB001B39FC001A39F700D811D56
:101B90001124911DB29F700D811D1124911D089576
:101BA0005058BB27AA270E94E80D0C94FC0C0E94F9
:101BB000EE0C38F00E94F50C20F039F49F3F19F438
:101BC00026F40C94EB0C0EF4E095E7FB0C94E50C7A
:101BD000E92F0E940D0D58F3BA17620773078407A7
:101BE000950720F079F4A6F50C942F0D0EF4E095EE
:101BF0000B2EBA2FA02D0B01B90190010C01CA01C7
:101C0000A0011124FF27591B99F0593F50F4503E71
:101C100068F11A16F040A22F232F342F4427585F63
:101C2000F3CF469537952795A795F0405395C9F77B
:101C30007EF41F16BA0B620B730B840BBAF0915033
:101C4000A1F0FF0FBB1F661F771F881FC2F70EC0D2
:101C5000BA0F621F731F841F48F4879577956795A5
:101C6000B795F7959E3F08F0B0CF9395880F08F091
:101C70009927EE0F9795879508950E94440E6894D2
:101C8000B1110C94300D08950E94150D88F09F57E6
:101C900098F0B92F9927B751B0F0E1F0660F771F90
:101CA000881F991F1AF0BA95C9F714C0B13091F086
:101CB0000E942F0DB1E008950C942F0D672F782FFF
:101CC0008827B85F39F0B93FCCF38695779567954B
:101CD000B395D9F73EF490958095709561957F4FB7
:101CE0008F4F9F4F08950E94540C08F48FEF089572
:101CF0000E94540C880B990B0895EE0FFF1F05905E
:101D0000F491E02D09940F931F93CF93DF938230CA
:101D1000910510F482E090E0E0914103F0914203DC
:101D200030E020E0B0E0A0E0309799F421153105D3
:101D300009F44AC0281B390B24303105D8F58A81B3
:101D40009B816115710589F1FB0193838283FE01FB
:101D500011C0408151810281138148175907E0F079
:101D60004817590799F4109761F012960C9312973F
:101D700013961C933296CF01DF91CF911F910F9153
:101D800008950093410310934203F4CF21153105C8
:101D900051F04217530738F0A901DB019A01BD0148
:101DA000DF01F801C1CFEF01F9CF90934203809397
:101DB0004103CDCFFE01E20FF31F81939193225097
:101DC000310939832883D7CF20913F0330914003D5
:101DD000232B41F420910C0130910D0130934003ED
:101DE00020933F0320910A0130910B012115310509
:101DF00041F42DB73EB740910E0150910F01241BC5
:101E0000350BE0913F03F0914003E217F307A0F494
:101E10002E1B3F0B2817390778F0AC014E5F5F4F40
:101E20002417350748F04E0F5F1F5093400340932F
:101E30003F03819391939FCFF0E0E0E09CCFCF935D
:101E4000DF930097E9F0FC01329713821282A09190
:101E50004103B0914203ED0130E020E01097A1F47E
:101E600020813181820F931F20913F0330914003E5
:101E70002817390709F061C0F0934003E0933F034E
:101E8000DF91CF910895EA01CE17DF07E8F54A8187
:101E90005B819E0141155105B1F7E901FB83EA839E
:101EA00049915991C40FD51FEC17FD0761F480814A
:101EB00091810296840F951FE9019983888382811D
:101EC00093819B838A83F0E0E0E012968D919C9150
:101ED00013970097B9F52D913C911197CD0102967A
:101EE000820F931F20913F03309140032817390739
:101EF00039F6309751F51092420310924103B09396
:101F00004003A0933F03BCCFD383C2834081518160
:101F1000840F951FC817D90761F44E5F5F4F888102
:101F20009981480F591F518340838A819B819383F4
:101F300082832115310509F0B0CFF0934203E0937D
:101F400041039ECFFD01DC01C0CF13821282D7CFA7
:101F5000B0E0A0E0EEEAFFE00C946A0D8C0100977F
:101F600051F4CB010E94830E8C01C801CDB7DEB7BE
:101F7000E0E10C94860DFC01E60FF71F9C01225056
:101F80003109E217F30708F49DC0D901CD91DC9126
:101F90001197C617D70798F0C530D10530F3CE0199
:101FA00004978617970708F3C61BD70B2297C19390
:101FB000D1936D937C93CF010E941F0FD6CF5B010D
:101FC000AC1ABD0A4C018C0E9D1EA0914103B0912C
:101FD0004203512C412CF12CE12C109731F58091CA
:101FE0003F03909140038815990509F05CC046169F
:101FF000570608F058C080910A0190910B01009794
:1020000041F48DB79EB740910E0150910F01841B92
:10201000950BE817F90708F055C0F0934003E093DB
:102020003F03F90171836083A0CF8D919C9111973B
:1020300012966C90129713967C901397A815B90579
:1020400059F56C0142E0C40ED11CCA14DB0420F126
:10205000AC014A195B09DA011296159780F0628289
:10206000738251834083D9016D937C93E114F10411
:1020700071F0D7011396FC93EE93129776CF2296C8
:102080008C0F9D1FF90191838083F301EFCFF093B3
:102090004203E093410369CF4816590608F42C0126
:1020A0007D01D3019ACFCB010E94830E7C01009762
:1020B00049F0AE01B8010E946510C8010E941F0FCF
:1020C000870153CF10E000E050CFFB01DC0102C0DC
:1020D00001900D9241505040D8F70895FB01DC016A
:1020E0008D91019080190110D9F3990B0895FB018E
:1020F000DC0101900D920020E1F70895AEE0B0E020
:10210000E4E8F0E10C94760D0D891E8986E08C835D
:102110001A8309838FEF9FE79E838D83AE01475E0D
:102120005F4F6F89788DCE0101960E94A1102F819B
:102130003885020F131FF80110822E96E4E00C94EC
:10214000920DABE0B0E0E7EAF0E10C94680D7C01A1
:102150003B018A01FC0117821682838181FFC8C17D
:10216000CE0101965C01F7019381F30193FD859106
:1021700093FF81913F01882309F453C1853239F4DB
:1021800093FD859193FF81913F01853229F4B70139
:1021900090E00E949112E7CF912C212C312CFFE18D
:1021A000F31538F08B3211F190F4803209F183325B
:1021B00029F137FC3CC020ED280F2A3050F536FEBF
:1021C00020C08AE0989E200D1124922E06C08D32E8
:1021D00091F0803371F7689430F8F30193FD8591A5
:1021E00093FF81913F018111DACF21C0689431F8CA
:1021F000689432F8F2CF689433F8EFCF689434F8EB
:10220000ECCFEAE02E9E200D1124222E689435F8A2
:10221000E4CF8E3229F436FC04C1689436F8DDCF61
:102220008C3619F4689437F8D8CF8836B1F2982FE5
:102230009F7D95549330E0F08336A1F18337C1F14F
:10224000833509F063C02801F2E04F0E511CF801FC
:10225000C080D180692D70E036FC02C06FEF7FEF47
:10226000C6010E947B124C01689437F882010AC0B3
:102270000C5F1F4FFFE3F98388248394912C650141
:10228000E89437F833FE2DC0522C8114910471F577
:10229000552009F468CFB70180E290E00E949112C6
:1022A0005A94F6CFF801808189830E5F1F4FE4CFE7
:1022B0002801F2E04F0E511CF801C080D180692D39
:1022C00070E036FC02C06FEF7FEFC6010E948612FD
:1022D0004C018201D5CFB70180E290E00E949112BB
:1022E0002A942814190409F0B0F7CECFF60137FC70
:1022F000859137FE81916F01B70190E00E949112A4
:1023000051105A94F1E08F1A9108BFCF843619F01A
:10231000893609F077C0F80137FE6BC060817181A2
:10232000828193810C5F1F4FF32DFF763F2E97FF25
:1023300009C090958095709561957F4F8F4F9F4F05
:10234000689437F82AE030E0A5010E94C112C82E37
:10235000CA188C2C432C36FE0CC0E89440F8C914E3
:1023600040F434FE05C032FC03C0F32DFE7E4F2E38
:10237000892C44FE95C0FE01EC0DF11D8081803357
:1023800009F087C0242D297E422E842D8870582E76
:1023900043FC95C040FE8FC09C2C821418F42C0C7A
:1023A000922C981844FE91C0B70180E390E00E94FF
:1023B000911242FE09C088E790E041FE02C088E524
:1023C00090E0B7010E949112C91408F48AC0CA941F
:1023D000D12C9FEFC91AD90ACA0CDB1CF6018291D5
:1023E0006F01B70190E00E949112AC14BD04B1F7E7
:1023F0004FCF60817181072E000C880B990B0E5F07
:102400001F4F92CFD32CE894D4F82AE030E08537E0
:1024100039F1232D297FD22E8F3601F148F48835EA
:10242000A9F0F701868197812B96E2E10C94840D47
:10243000803749F08837A9F7D4FE02C06894D2F8F3
:1024400020E130E00DC06894D4F8F6CF34FE03C02C
:10245000822F8660D82E20E132E002C028E030E0F2
:10246000F801D7FE0FC060817181828193810C5F7A
:102470001F4FA5010E94C112C82ECA183D2CE89416
:1024800037F867CF6081718190E080E00E5F1F4F69
:10249000F0CF42FC02C0839478CF8394839475CFAD
:1024A000842D867809F471CFF6CFB70180E290E0F1
:1024B0000E94911283948214C0F3512C73CF522C3A
:1024C0005818821408F46ECFF8CF842D867809F45A
:1024D0007BCF8BE241FE80E247FC8DE2B70190E0CA
:1024E00071CFB70180E390E00E9491129A946CCF73
:1024F0008FEF9FEF99CFFC01059061507040011064
:10250000D8F7809590958E0F9F1F0895FC0161501C
:10251000704001900110D8F7809590958E0F9F1F05
:1025200008950F931F93CF93DF93182F092FEB017B
:102530008B8181FD09C01FEF0FEF812F902FDF915D
:10254000CF911F910F91089582FF14C02E813F817A
:102550008C819D81281739073CF4E881F981CF01EE
:1025600001969983888310838E819F8101969F8332
:102570008E83E3CFE885F985812F0995892BA1F317
:10258000DACFFA01AA27283051F1203181F1E894FD
:102590006F936E7F6E5F7F4F8F4F9F4FAF4FB1E056
:1025A0003ED0B4E03CD0670F781F891F9A1FA11D51
:1025B000680F791F8A1F911DA11D6A0F711D811D52
:1025C000911DA11D20D009F468943F912AE0269F17
:1025D00011243019305D3193DEF6CF010895462F76
:1025E0004770405D4193B3E00FD0C9F7F6CF462F57
:1025F0004F70405D4A3318F0495D31FD40524193C0
:1026000002D0A9F7EACFB4E0A6959795879577957C
:102610006795BA95C9F700976105710508959B0103
:10262000AC010A2E06945795479537952795BA958C
:10263000C9F7620F731F841F951FA01D089510E036
:10264000C5E3D0E004C0FE010E947D0E2196C63392
:08265000D107C9F7F894FFCF90
:1026580001000100020001000000000043038000A7
:1026680000000000000160008D004D01BE009C00CC
:10267800B0000D0A006E616E00696E66006F7666C6
:102688000063656E7465720063656E7465725F6180
:102698007564696F006C65667400726967687400B8
:1026A8006E6F6E650073657269616C5F65737461E6
:1026B800626C69736865640052455754494D455FBB
:1026C8004C200052455754494D455F522000524511
:1026D8005754494D455F432000544F54494D4520B8
:1026E80000484F4C4454494D454D494E2000484FF1
:1026F8004C4454494D454D4158200043454E54459E
:10270800524445424F554E434520005345454420C9
:102718000025303464200020545249414C4F4E006B
:10272800545249414C545950452000474956455444
:102738004F2000415544494F5741495420004541D5
:10274800524C594445502000454E44484F4C44543F
:10275800494D4520005354494D4F4E2000544F5485
:10276800414C5741495454494D4520005245535016
:1027780054494D4520005245535044495220005475
:102788005249414C4F5554434F4D452000544F4FEB
:102798004E2000544F4F464620005245574F4E207A
:0C27A80000545249414C454E44200000B2
:00000001FF
