:100000000C9436000C945E000C945E000C945E0020
:100010000C945E000C945E000C945E000C945E00E8
:100020000C945E000C945E000C945E000C945E00D8
:100030000C945E000C945E000C945E000C945E00C8
:100040000C949B040C945E000C9469040C9443047F
:100050000C945E000C945E000C945E000C945E00A8
:100060000C945E000C945E00E504260B11241FBE68
:10007000CFEFD8E0DEBFCDBF12E0A0E0B1E0E0ED11
:10008000F5E202C005900D92A236B107D9F723E040
:10009000A2E6B2E001C01D92A034B207E1F710E081
:1000A000C5E3D0E004C02197FE010E94390EC4339D
:1000B000D107C9F70E9420050C94DB120C940000B4
:1000C000AF92BF92CF92DF92EF92FF920F931F9366
:1000D000CF93DF936C017B018B01040F151FEB01A4
:1000E0005E01AE18BF08C017D10759F06991D6015B
:1000F000ED91FC910190F081E02DC6010995892BCD
:1001000079F7C501DF91CF911F910F91FF90EF908B
:10011000DF90CF90BF90AF900895FC01538D448D38
:10012000252F30E0842F90E0821B930B541710F0A2
:10013000CF96089501970895FC01918D828D9817AF
:1001400061F0A28DAE0FBF2FB11D5D968C91928D87
:100150009F5F9F73928F90E008958FEF9FEF0895B8
:10016000FC01918D828D981731F0828DE80FF11D81
:10017000858D90E008958FEF9FEF0895FC01918D9C
:10018000228D892F90E0805C9F4F821B91098F7395
:100190009927089589E992E00E94BE0021E0892B09
:1001A00009F420E0822F089580E090E0892B29F067
:1001B0000E94CA0081110C9400000895FC01A48DD6
:1001C000A80FB92FB11DA35ABF4F2C91848D90E079
:1001D00001968F739927848FA689B7892C93A0895C
:1001E000B1898C91837080648C93938D848D9813E6
:1001F00006C00288F389E02D80818F7D8083089579
:10020000EF92FF920F931F93CF93DF93EC0181E066
:10021000888F9B8D8C8D98131AC0E889F98980810D
:1002200085FF15C09FB7F894EE89FF896083E88940
:10023000F98980818370806480839FBF81E090E032
:10024000DF91CF911F910F91FF90EF900895F62EBF
:100250000B8D10E00F5F1F4F0F731127E02E8C8D59
:100260008E110CC00FB607FCFACFE889F98980819E
:1002700085FFF5CFCE010E94DE00F1CFEB8DEC0FB4
:10028000FD2FF11DE35AFF4FF0829FB7F8940B8FBB
:10029000EA89FB8980818062CFCFCF93DF93EC0125
:1002A000888D8823B9F0AA89BB89E889F9898C915E
:1002B00085FD03C0808186FD0DC00FB607FCF7CF1A
:1002C0008C9185FFF2CF808185FFEDCFCE010E941A
:1002D000DE00E9CFDF91CF9108953FB7F894809188
:1002E000670290916802A0916902B0916A0226B5F6
:1002F000A89B05C02F3F19F00196A11DB11D3FBF5E
:10030000BA2FA92F982F8827BC01CD01620F711D2C
:10031000811D911D42E0660F771F881F991F4A9526
:10032000D1F708958F929F92AF92BF92CF92DF92B2
:10033000EF92FF926B017C010E946D014B015C0109
:10034000C114D104E104F104B9F00E946D016819EF
:1003500079098A099B09683E73408105910580F3FC
:1003600021E0C21AD108E108F10888EE880E83E086
:10037000981EA11CB11CE4CFFF90EF90DF90CF90AE
:10038000BF90AF909F908F9008952FB7F894609191
:1003900063027091640280916502909166022FBFA2
:1003A00008950F931F930E94C5016093A10270935B
:1003B000A2028093A3029093A40289E992E00E9492
:1003C000B00097FF1DC00E94C5010091A1021091CD
:1003D000A2022091A3023091A402601B710B820B38
:1003E000930B00919D0210919E0220919F023091EB
:1003F000A0026017710782079307F8F28FEF9FEF53
:100400001F910F910895FC0101900020E9F73197A9
:10041000AF01481B590BBC0189E992E00C946000C4
:100420008F929F92AF92BF920F931F93CF93DF93C0
:10043000CDB7DEB7A1970FB6F894DEBF0FBECDBF24
:1004400019A2423008F44AE08E010F5D1F4F842E3E
:10045000912CB12CA12CA50194010E945B0DE62FDB
:10046000B901CA01EA30F4F4E05DD801EE938D01E0
:10047000232B242B252B79F790E080E0109719F09F
:10048000CD010E940302A1960FB6F894DEBF0FBE05
:10049000CDBFDF91CF911F910F91BF90AF909F90F3
:1004A0008F900895E95CE1CFCF92DF92EF92FF92B7
:1004B000CF93DF936B017C016DE289E992E00E94AA
:1004C0000001EC0166277727CB016C197D098E09A5
:1004D0009F094AE00E9410028C0F9D1FDF91CF916F
:1004E000FF90EF90DF90CF9008950C940302CF938C
:1004F000DF930E940302EC0182E291E00E9403027A
:100500008C0F9D1FDF91CF910895CF93DF9397FFBD
:100510000CC00E945402EC0182E291E00E940302AE
:100520008C0F9D1FDF91CF9108954AE00E94100229
:10053000F2CFCF93DF93BC01990F880B990B97FFF4
:100540000CC00E945402EC0182E291E00E9403027E
:100550008C0F9D1FDF91CF9108954AE00E941002F9
:10056000F2CF4F925F926F927F928F929F92AF9253
:10057000BF92CF92DF92EF92FF926B017C01AC01B0
:100580009B010E94340E8823C1F085E291E00E9415
:1005900003027C0182E291E00E9403028E0D9F1D06
:1005A000FF90EF90DF90CF90BF90AF909F908F9093
:1005B0007F906F905F904F90089546015701E894A7
:1005C000B7F82FEF3FEF4FE75FE7C501B4010E9497
:1005D000340E81110DC02FEF3FEF4FE75FE7C501EC
:1005E000B4010E94CE0B18161CF489E291E0CFCF23
:1005F0002FEF3FEF4FE75FE4C701B6010E942F0ED8
:1006000018161CF48DE291E0C2CF2FEF3FEF4FE7B9
:100610005FECC701B6010E94CE0B87FDF3CF20E04F
:1006200030E0A901C701B6010E94CE0BB12CA12C6C
:1006300087FF0AC06DE289E992E00E9400015C0137
:10064000F7FAF094F7F8F0942AE037ED43EA5BE329
:10065000C701B6010E948D0D2B013C010E94000EC6
:100660006B017C010E94D30B9B01AC01C301B20161
:100670000E948C0D2B013C014AE0C701B6010E948B
:1006800010027C01EA0CFB1C6EE289E992E00E94F8
:100690000001E80EF91E20E030E040E251E4C30121
:1006A000B2010E94340C2B013C010E94000E4B0150
:1006B000B12CA12C4AE0C501B4010E941002E80E41
:1006C000F91EC501B4010E94D30B9B01AC01C3010B
:1006D000B2010E948C0D20E030E040E251E40E9423
:1006E000340C0E94000E90E080E04AE00E9410026C
:1006F000E80EF91E4FCFCF93DF934AE00E9410021D
:10070000EC0182E291E00E9403028C0F9D1FDF91B9
:10071000CF910895FC0124813581232B39F421E008
:10072000FB018081882349F020E007C0808191810E
:100730000E942A1021E0892BB9F7822F0895FC012D
:1007400080819181009711F00C94DB0E0895EF9257
:10075000FF920F931F93CF93DF93EC017B018A01EC
:1007600088819981009729F02A813B8124173507D8
:1007700088F4B8016F5F7F4F0E94640F009791F07B
:10078000998388831B830A832C813D81232B11F459
:10079000FC0110821D830C83B701888199810E941E
:1007A00033100CC088819981009711F00E94DB0EF4
:1007B000198218821D821C821B821A82CE01DF914F
:1007C000CF911F910F91FF90EF900895FC01019040
:1007D0000020E9F73197AF01481B590BBC0186E3B4
:1007E00093E00C94A703CF93DF93EC0199B189B107
:1007F000933A11F0813A01F581E391E00E94E6031A
:10080000198218821B821A821D821C8283E0C633E1
:10081000D80771F060913603709137036115710547
:1008200039F040913A0350913B03CE010E94A70357
:10083000CE01DF91CF91089599B189B1933B11F029
:10084000813B19F488E391E0D9CF99B189B1933C08
:1008500011F0813C19F485E491E0D0CF99B189B1D0
:10086000913611F08F3519F48AE491E0C7CF99B130
:1008700089B1913F11F08F3E19F48FE391E0BECF23
:1008800080E591E0BBCF1F920F920FB60F9211241B
:100890002F933F934F935F936F937F938F939F9388
:1008A000AF93BF93EF93FF9389E992E00E94DE003C
:1008B000FF91EF91BF91AF919F918F917F916F9138
:1008C0005F914F913F912F910F900FBE0F901F900E
:1008D00018951F920F920FB60F9211242F938F939A
:1008E0009F93EF93FF93E091A902F091AA02808178
:1008F000E091AF02F091B00282FD1BC09081809127
:10090000B2028F5F8F732091B302821741F0E091A2
:10091000B202F0E0E756FD4F958F8093B202FF914F
:10092000EF919F918F912F910F900FBE0F901F907D
:1009300018958081F4CF1F920F920FB60F92112459
:100940002F933F938F939F93AF93BF9380916302B5
:1009500090916402A0916502B091660230916202AA
:1009600023E0230F2D3758F50196A11DB11D2093CB
:1009700062028093630290936402A0936502B09335
:1009800066028091670290916802A0916902B0911D
:100990006A020196A11DB11D8093670290936802BF
:1009A000A0936902B0936A02BF91AF919F918F911A
:1009B0003F912F910F900FBE0F901F90189526E832
:1009C000230F0296A11DB11DD2CFE9E9F2E01382F7
:1009D000128288EE93E0A0E0B0E084839583A68342
:1009E000B78384E191E09183808385EC90E09587E3
:1009F000848784EC90E09787868780EC90E0918BE9
:100A0000808B81EC90E0938B828B82EC90E0958BD5
:100A1000848B86EC90E0978B868B118E128E138ED2
:100A2000148EE6E3F3E011821082138212821582A3
:100A3000148250E040E064E271E0CF010C94A7031F
:100A4000CF93DF93CDB7DEB766970FB6F894DEBFCE
:100A50000FBECDBF789484B5826084BD84B58160BB
:100A600084BD85B5826085BD85B5816085BD809179
:100A70006E00816080936E001092810080918100F1
:100A800082608093810080918100816080938100E9
:100A9000809180008160809380008091B1008460AB
:100AA0008093B1008091B00081608093B00080910C
:100AB0007A00846080937A0080917A0082608093CB
:100AC0007A0080917A00816080937A0080917A0028
:100AD000806880937A001092C100E091A902F091A1
:100AE000AA0282E08083E091A502F091A602108222
:100AF000E091A702F091A80280E180831092B102F8
:100B0000E091AD02F091AE0286E08083E091AB020D
:100B1000F091AC02808180618083E091AB02F09122
:100B2000AC02808188608083E091AB02F091AC02DE
:100B3000808180688083E091AB02F091AC0280817B
:100B40008F7D808389E992E00E949C0085E591E099
:100B50000E9477021AB887E084B915B881EE8BB984
:100B600010E000E05801AA0CBB1CAA0CBB1C21E041
:100B700030E02C0F3D1FA20EB31E89E992E00E94C7
:100B8000BE001816190674F70E94D101FC0197FDEA
:100B90003DC18D32910509F04CC0412C512C20E80B
:100BA000622E2FE3722EC12CD12C7601912C812C38
:100BB000E130F10559F1ED32F10509F447C0EE32AB
:100BC000F10509F446C0CF01C0970A97F8F4AAE0EE
:100BD000B0E0A70196010E94110D6F01FF0FEE0812
:100BE000FF08C60ED71EE81EF91E30E3C31AD1084F
:100BF000E108F108992051F02DEC3CEC4CEC5DE360
:100C0000C301B2010E94340C2B013C0189E992E03E
:100C10000E949C000E94D101FC01C0970A9740F2FB
:100C2000EE32F105C9F4992019F2882049F1982C87
:100C300019C0C0970A9708F4B0CFEE32F10509F455
:100C4000ACCF89E992E00E949C009ECF88248394D7
:100C5000DDCF99249394DACFE130F10509F4A8CFE0
:100C6000882041F0F094E094D094C094C11CD11C31
:100C7000E11CF11CC701B6010E94D50B992041F07F
:100C8000C701B6010E94D50BA30192010E94340C4A
:100C9000D5016D937D938D939D935D010F5F1F4FE4
:100CA000043011050CF469CF49805A806B807C8038
:100CB00040926B0250926C0260926D0270926E02D2
:100CC0008D809E80AF80B884C501B4010E94F90D6B
:100CD00060936F027093700280937102909372021E
:100CE000C984DA84EB84FC84C0928702D0928802A3
:100CF000E0928902F0928A022D853E854F855889BF
:100D0000298B3A8B4B8B5C8B20938B0230938C021C
:100D100040938D0250938E0288E691E00E94750206
:100D2000C301B2010E94B10281E791E00E94750205
:100D3000C501B4010E94B10289E791E00E947502E9
:100D4000C701B6010E94B10286E891E00E947502D7
:100D500069897A898B899C890E94B10280910101FD
:100D60008F93809100018F9383E991E09F938F93FC
:100D70008FE892E09F938F930E943A108FE892E061
:100D80000E9475020E946D014AE00E94100289E9EA
:100D900091E00E94750280910001909101010E94F2
:100DA000990281E090E0909398028093970289E9FC
:100DB00092E00E949C0089E992E00E949C000F90C2
:100DC0000F900F900F900F900F9031E0398B51E002
:100DD000452F50E05E8B4D8B08E010E022242394D9
:100DE000312CE0919702F09198023197E830F105AB
:100DF00008F068C1E250F94F0C94390E0A071D083B
:100E00006F087F09E7092A0A8E0ABA0A60E070E0D3
:100E1000CB013ECF89E992E00E949C00F12CE12CAD
:100E20006701CC0CDD1CCC0CDD1C81E090E08C0F4C
:100E30009D1FC80ED91E89E992E00E94BE001816B7
:100E4000190674F70E94D101FC0197FDF2C08D32A2
:100E5000910521F0C0970A9708F0E3C0812C912CEE
:100E60005401712CE130F105D9F0ED32F10509F4AE
:100E7000DDC0CF01C0970A9798F4AAE0B0E0A501C1
:100E800094010E94110D4F01FF0FAA08BB08860EA6
:100E9000971EA81EB91E90E3891A9108A108B108EF
:100EA00089E992E00E949C000E94D101FC01C09758
:100EB0000A97C0F2E130F105A9F2772041F0B09431
:100EC000A09490948094811C911CA11CB11CC5011C
:100ED000B4010E94D50BD6016D937D938D939D93A4
:100EE0006D01BFEFEB1AFB0AE3E0EE16F1040CF420
:100EF000A2CF49805A806B807C80C301B2010E94DE
:100F0000F90D70930501609304018D809E80AF8080
:100F1000B884C501B4010E94F90D70930301609378
:100F20000201C984DA84EB84FC84C701B6010E9403
:100F3000F90D70939602609395028FE892E00E94FB
:100F4000750282EA91E00E947502C301B2010E941B
:100F5000B1028FE892E00E9475028DEA91E00E9452
:100F60007502C501B4010E94B1028FE892E00E94AF
:100F7000750285EB91E00E947502C701B6010E94DF
:100F8000B10260918B0270918C0280918D029091E0
:100F90008E020E94F90D4B015C01609187027091F5
:100FA00088028091890290918A020E94F90D6B015A
:100FB0007C01C814D904EA04FB0474F48C189D085D
:100FC000AE08BF080E94760BA50194010E94F20CA6
:100FD000C60ED71EE81EF91EC701B6010E94D50B2A
:100FE00060938302709384028093850290938602BB
:100FF0008FE892E00E94750287E592E00E947502F8
:1010000060918302709184028091850290918602A2
:101010000E94B10282E090E0909398028093970240
:1010200051C089E992E00E949C000CCF7724739410
:1010300037CF812C912C54014ACFCE0101960E94CA
:10104000F30361E371E0CE0101960E948A03F82E5A
:10105000CE0101960E949F03FF20A1F18FEB91E04A
:101060000E9477020E94C5012B013C01C12CD12CAA
:101070007601C701B60164197509860997090E94AE
:10108000D50B2091830230918402409185025091CA
:1010900086020E94CE0B87FFC6C20E94C5016B016B
:1010A0007C01CE0101960E94F30361E371E0CE0161
:1010B00001960E948A03B82ECE0101960E949F03DA
:1010C000B110D7CF80E090E0892B09F48ACE0E943E
:1010D000CA00882309F485CE0E94000082CE8FECDE
:1010E00091E00E9477020E94C5012B013C01812CF6
:1010F000912C540184189508A608B7088091950290
:1011000090919602092E000CAA0BBB0B881699062B
:10111000AA06BB06F4F5F989FF23D9F10E94C5019F
:101120004B015C01CE0101960E94F30368E371E07C
:10113000CE0101960E948A03E82EF12C2D893E896A
:10114000E222F322CE0101960E949F03EF2809F4C8
:101150006DC00E946D016B017C018FE892E00E94DE
:10116000750286ED91E00E947502C701B6010E94EA
:101170008502C701B60128EE33E040E050E00E944E
:10118000F20C20937F0230938002409381025093AF
:10119000820220E0C12CD12C760180907F029090B9
:1011A0008002A0908102B0908202C818D908EA0893
:1011B000FB088091950290919602092E000CAA0BD3
:1011C000BB0BC816D906EA06FB0608F080C00E94D1
:1011D000C5016B017C01C501B4010E947B03C701FD
:1011E000B6010E948502CE0101960E94F3036FE3CF
:1011F00071E0CE0101960E948A03B82ECE010196BD
:101200000E949F03BB2009F456C00E946D016B0130
:101210007C018FE892E00E94750288EF91E00E94C5
:101220007502C701B6010E948502F4CECE01019677
:101230000E94F3036FE371E0CE0101960E948A03DE
:10124000F82ECE0101960E949F03FF20B9F00E9464
:101250006D016B017C018FE892E00E9475028EEDBA
:1012600091E00E947502C701B6010E94850282E0EA
:1012700090E090939802809397028BCFCE010196D5
:101280000E94F30360E571E0CE0101960E948A039B
:10129000F82ECE0101960E949F03FF2009F42ACF69
:1012A0000E946D016B017C018FE892E00E94750243
:1012B0008BEE91E0D6CF0E946D0160937B0270931C
:1012C0007C0280937D0290937E0221E066CF2223F0
:1012D00009F4F8CE8FE892E00E94750285E092E072
:1012E0000E94750260917B0270917C0280917D0268
:1012F00090917E020E947B0384E090E08DCE8EE090
:1013000092E00E947702CE0101960E94F30365E409
:1013100071E0CE0101960E948A03F82ECE0101965B
:101320000E949F03FF2089F10E946D016093770264
:10133000709378028093790290937A0230927602C9
:10134000209275028FE892E00E94750285E192E09A
:101350000E94750260917702709178028091790203
:1013600090917A020E947B038FE892E00E947502BE
:101370008FE192E00E947502809175029091760251
:101380000E94990285E090E047CECE0101960E942E
:10139000F3036AE471E0CE0101960E948A03F82EFD
:1013A000CE0101960E949F03FF2061F20E946D0111
:1013B00060937702709378028093790290937A0217
:1013C00082E090E09093760280937502BBCF80918B
:1013D00004019091050120917502309176028217E7
:1013E0009307C9F4309274022092730287E090E070
:1013F00090939802809397028FE892E00E94750282
:1014000088E292E00E9475028091730290917402CA
:101410000E94990257CE8336910559F49093740235
:10142000809373020E94760B1093980200939702A8
:10143000E3CF109274021092730280910201909196
:1014400003018130910519F486E090E0D1CF892B1A
:1014500059F3D2CF0E946D016093770270937802A6
:101460008093790290937A028FE892E00E9475024D
:1014700086E392E00E947502609177027091780293
:101480008091790290917A020E947B0360E070E083
:10149000CB01C0907702D0907802E0907902F09072
:1014A0007A029B01AC012C193D094E095F096901C3
:1014B0007A0120916F023091700240917102509137
:1014C0007202A8EEB3E00E94110DC616D706E80618
:1014D000F9061CF40E946D01DCCF0E946D0160933F
:1014E0007702709378028093790290937A028FE862
:1014F00092E00E9475028CE392E00E947502609176
:101500007702709178028091790290917A020E941C
:101510007B031093980200939702D4CD0E946D0133
:1015200060937702709378028093790290937A02A5
:10153000809175029091760281309105B1F431E08D
:1015400035B960916B0270916C0280916D0290913F
:101550006E020E94000E0E94920115B88FE892E080
:101560000E94750283E492E0C8CF0297B9F784E045
:1015700085B9E7CF0E946D0160937702709378027E
:101580008093790290937A028FE892E00E9475022C
:101590008AE492E00E94750260917702709178026D
:1015A0008091790290917A020E947B0380910001E0
:1015B00090910101019690930101809300019F9306
:1015C0008F9343E951E05F934F938FE892E09F93AD
:1015D0008F930E943A108FE892E00E9475020E9459
:1015E0006D014AE00E94100289E991E00E947502B3
:1015F00080910001909101010E94990289E992E095
:101600000E94BE000F900F900F900F900F900F90C0
:10161000892B21F089E992E00E949C003092980287
:10162000209297024FCD0E946D016B017C018FE8E3
:1016300092E00E94750284E592E00E947502C70163
:10164000B6010E94850283E090E0E6CC86E393E059
:101650000C949F038F929F92AF92BF92CF92DF9292
:10166000EF92FF92CF93DF93EC01688179818A81B9
:101670009B81611571058105910521F464E279ED85
:101680008BE597E02DE133EF41E050E00E94F20C52
:1016900049015A019B01AC01A7EAB1E40E94110D76
:1016A0006B017C01ACEEB4EFA50194010E941F0D0B
:1016B000C60ED71EE81EF91EF7FE06C081E0C81A46
:1016C000D108E10880E8F80AC882D982EA82FB8260
:1016D000C701B6019F77DF91CF91FF90EF90DF9028
:1016E000CF90BF90AF909F908F9008958F929F92D0
:1016F000AF92BF92CF92DF92EF92FF92609106017C
:10170000709107018091080190910901611571059F
:101710008105910521F464E279ED8BE597E02DE1F7
:1017200033EF41E050E00E94F20C49015A019B0165
:10173000AC01A7EAB1E40E94110D6B017C01ACEE93
:10174000B4EFA50194010E941F0DC60ED71EE81E1E
:10175000F91EF7FE06C081E0C81AD108E10880E84A
:10176000F80AC0920601D0920701E0920801F092B7
:101770000901C701B6019F77FF90EF90DF90CF90EE
:10178000BF90AF909F908F900895609306017093E3
:101790000701809308019093090108950E94100C9D
:1017A00008F481E00895E89409C097FB3EF4909511
:1017B0008095709561957F4F8F4F9F4F9923A9F02A
:1017C000F92F96E9BB279395F695879577956795B9
:1017D000B795F111F8CFFAF4BB0F11F460FF1BC0FD
:1017E0006F5F7F4F8F4F9F4F16C0882311F096E990
:1017F00011C0772321F09EE8872F762F05C066233E
:1018000071F096E8862F70E060E02AF09A95660FF6
:10181000771F881FDAF7880F9695879597F90895AF
:10182000990F0008550FAA0BE0E8FEEF16161706F1
:10183000E807F907C0F012161306E407F50798F059
:10184000621B730B840B950B39F40A2661F0232B72
:10185000242B252B21F408950A2609F4A140A695EE
:101860008FEF811D811D08950E94470C0C94B80CC8
:101870000E94AA0C38F00E94B10C20F0952311F0C0
:101880000C94A10C0C94A70C11240C94EC0C0E9449
:10189000C90C70F3959FC1F3950F50E0551F629FDF
:1018A000F001729FBB27F00DB11D639FAA27F00DB9
:1018B000B11DAA1F649F6627B00DA11D661F829FE0
:1018C0002227B00DA11D621F739FB00DA11D621FC5
:1018D000839FA00D611D221F749F3327A00D611DE2
:1018E000231F849F600D211D822F762F6A2F1124C4
:1018F0009F5750409AF0F1F088234AF0EE0FFF1FF7
:10190000BB1F661F771F881F91505040A9F79E3F4D
:10191000510580F00C94A10C0C94EC0C5F3FE4F3A7
:10192000983ED4F3869577956795B795F795E795A3
:101930009F5FC1F7FE2B880F911D9695879597F9AC
:10194000089597F99F6780E870E060E008959FEF41
:1019500080EC089500240A94161617061806090646
:10196000089500240A941216130614060506089515
:10197000092E0394000C11F4882352F0BB0F40F49D
:10198000BF2B11F460FF04C06F5F7F4F8F4F9F4FDD
:10199000089557FD9058440F551F59F05F3F71F05F
:1019A0004795880F97FB991F61F09F3F79F08795C6
:1019B0000895121613061406551FF2CF4695F1DF4F
:1019C00008C0161617061806991FF1CF86957105DF
:1019D000610508940895E894BB2766277727CB0113
:1019E00097F90895052E97FB1EF400940E94090DA7
:1019F00057FD07D00E945B0D07FC03D04EF40C94FA
:101A0000090D50954095309521953F4F4F4F5F4FB1
:101A1000089590958095709561957F4F8F4F9F4F5A
:101A200008950E947D0DA59F900DB49F900DA49FD9
:101A3000800D911D11240895B7FF0C94110D0E9483
:101A4000110D821B930B08952F923F924F925F923C
:101A50006F927F928F929F92AF92BF92CF92DF92BE
:101A6000EF92FF920F931F93CF93DF93CDB7DEB723
:101A7000CA1BDB0B0FB6F894DEBF0FBECDBF0994B7
:101A80002A88398848885F846E847D848C849B840E
:101A9000AA84B984C884DF80EE80FD800C811B811C
:101AA000AA81B981CE0FD11D0FB6F894DEBF0FBE4B
:101AB000CDBFED010895A1E21A2EAA1BBB1BFD01AB
:101AC0000DC0AA1FBB1FEE1FFF1FA217B307E4071D
:101AD000F50720F0A21BB30BE40BF50B661F771F75
:101AE000881F991F1A9469F7609570958095909555
:101AF0009B01AC01BD01CF010895A29FB001B39F2E
:101B0000C001A39F700D811D1124911DB29F700D06
:101B1000811D1124911D08955058BB27AA270E94AA
:101B2000A40D0C94B80C0E94AA0C38F00E94B10CC1
:101B300020F039F49F3F19F426F40C94A70C0EF40E
:101B4000E095E7FB0C94A10CE92F0E94C90C58F317
:101B5000BA17620773078407950720F079F4A6F592
:101B60000C94EB0C0EF4E0950B2EBA2FA02D0B016C
:101B7000B90190010C01CA01A0011124FF27591BD2
:101B800099F0593F50F4503E68F11A16F040A22FD8
:101B9000232F342F4427585FF3CF46953795279549
:101BA000A795F0405395C9F77EF41F16BA0B620B48
:101BB000730B840BBAF09150A1F0FF0FBB1F661F8F
:101BC000771F881FC2F70EC0BA0F621F731F841FD2
:101BD00048F4879577956795B795F7959E3F08F0F8
:101BE000B0CF9395880F08F09927EE0F97958795BA
:101BF00008950E94000E6894B1110C94EC0C0895A5
:101C00000E94D10C88F09F5798F0B92F9927B751AF
:101C1000B0F0E1F0660F771F881F991F1AF0BA9590
:101C2000C9F714C0B13091F00E94EB0CB1E00895F7
:101C30000C94EB0C672F782F8827B85F39F0B93FE9
:101C4000CCF3869577956795B395D9F73EF4909543
:101C50008095709561957F4F8F4F9F4F08950E949B
:101C6000100C08F48FEF08950E94100C880B990B4C
:101C70000895EE0FFF1F0590F491E02D09940F9346
:101C80001F93CF93DF938230910510F482E090E0B0
:101C9000E0913E03F0913F0330E020E0B0E0A0E0AF
:101CA000309799F42115310509F44AC0281B390BE6
:101CB00024303105D8F58A819B816115710589F140
:101CC000FB0193838283FE0111C040815181028117
:101CD000138148175907E0F04817590799F41097EE
:101CE00061F012960C93129713961C933296CF01C3
:101CF000DF91CF911F910F91089500933E031093B0
:101D00003F03F4CF2115310551F04217530738F046
:101D1000A901DB019A01BD01DF01F801C1CFEF018B
:101D2000F9CF90933F0380933E03CDCFFE01E20FA6
:101D3000F31F819391932250310939832883D7CFA0
:101D400020913C0330913D03232B41F420910C0161
:101D500030910D0130933D0320933C0320910A0103
:101D600030910B012115310541F42DB73EB740915B
:101D70000E0150910F01241B350BE0913C03F091B3
:101D80003D03E217F307A0F42E1B3F0B281739077A
:101D900078F0AC014E5F5F4F2417350748F04E0FC7
:101DA0005F1F50933D0340933C03819391939FCFDA
:101DB000F0E0E0E09CCFCF93DF930097E9F0FC01E7
:101DC000329713821282A0913E03B0913F03ED013E
:101DD00030E020E01097A1F420813181820F931F21
:101DE00020913C0330913D032817390709F061C069
:101DF000F0933D03E0933C03DF91CF910895EA0116
:101E0000CE17DF07E8F54A815B819E014115510538
:101E1000B1F7E901FB83EA8349915991C40FD51FBA
:101E2000EC17FD0761F4808191810296840F951F64
:101E3000E90199838883828193819B838A83F0E07F
:101E4000E0E012968D919C9113970097B9F52D9132
:101E50003C911197CD010296820F931F20913C0374
:101E600030913D032817390739F6309751F5109214
:101E70003F0310923E03B0933D03A0933C03BCCFBD
:101E8000D383C28340815181840F951FC817D9071E
:101E900061F44E5F5F4F88819981480F591F5183CC
:101EA00040838A819B81938382832115310509F0C8
:101EB000B0CFF0933F03E0933E039ECFFD01DC01E2
:101EC000C0CF13821282D7CFB0E0A0E0EAE6FFE0F5
:101ED0000C94260D8C01009751F4CB010E943F0E0B
:101EE0008C01C801CDB7DEB7E0E10C94420DFC01D6
:101EF000E60FF71F9C0122503109E217F30708F49F
:101F00009DC0D901CD91DC911197C617D70798F0E4
:101F1000C530D10530F3CE0104978617970708F333
:101F2000C61BD70B2297C193D1936D937C93CF019E
:101F30000E94DB0ED6CF5B01AC1ABD0A4C018C0EA1
:101F40009D1EA0913E03B0913F03512C412CF12CDA
:101F5000E12C109731F580913C0390913D03881559
:101F6000990509F05CC04616570608F058C08091E4
:101F70000A0190910B01009741F48DB79EB74091F3
:101F80000E0150910F01841B950BE817F90708F01B
:101F900055C0F0933D03E0933C03F90171836083E6
:101FA000A0CF8D919C91119712966C9012971396D9
:101FB0007C901397A815B90559F56C0142E0C40E41
:101FC000D11CCA14DB0420F1AC014A195B09DA0107
:101FD0001296159780F06282738251834083D901F3
:101FE0006D937C93E114F10471F0D7011396FC9387
:101FF000EE93129776CF22968C0F9D1FF901918355
:102000008083F301EFCFF0933F03E0933E0369CF6A
:102010004816590608F42C017D01D3019ACFCB0153
:102020000E943F0E7C01009749F0AE01B8010E946A
:102030002110C8010E94DB0E870153CF10E000E0A1
:1020400050CFFB01DC0102C001900D924150504085
:10205000D8F70895FB01DC018D91019080190110E2
:10206000D9F3990B0895FB01DC0101900D9200203A
:10207000E1F70895AEE0B0E0E0E4F0E10C94320D59
:102080000D891E8986E08C831A8309838FEF9FE771
:102090009E838D83AE01475E5F4F6F89788DCE0141
:1020A00001960E945D102F813885020F131FF801E1
:1020B00010822E96E4E00C944E0DABE0B0E0E3E627
:1020C000F0E10C94240D7C013B018A01FC01178294
:1020D0001682838181FFC8C1CE0101965C01F701A0
:1020E0009381F30193FD859193FF81913F018823B3
:1020F00009F453C1853239F493FD859193FF8191A1
:102100003F01853229F4B70190E00E944D12E7CFDC
:10211000912C212C312CFFE1F31538F08B3211F189
:1021200090F4803209F1833229F137FC3CC020ED74
:10213000280F2A3050F536FE20C08AE0989E200DE8
:102140001124922E06C08D3291F0803371F768947D
:1021500030F8F30193FD859193FF81913F01811147
:10216000DACF21C0689431F8689432F8F2CF6894DD
:1021700033F8EFCF689434F8ECCFEAE02E9E200DD0
:102180001124222E689435F8E4CF8E3229F436FCDF
:1021900004C1689436F8DDCF8C3619F4689437F8AA
:1021A000D8CF8836B1F2982F9F7D95549330E0F0C8
:1021B0008336A1F18337C1F1833509F063C028016B
:1021C000F2E04F0E511CF801C080D180692D70E003
:1021D00036FC02C06FEF7FEFC6010E9437124C0140
:1021E000689437F882010AC00C5F1F4FFFE3F98340
:1021F00088248394912C6501E89437F833FE2DC030
:10220000522C8114910471F5552009F468CFB7015F
:1022100080E290E00E944D125A94F6CFF80180813E
:1022200089830E5F1F4FE4CF2801F2E04F0E511C4F
:10223000F801C080D180692D70E036FC02C06FEFDC
:102240007FEFC6010E9442124C018201D5CFB70137
:1022500080E290E00E944D122A942814190409F09B
:10226000B0F7CECFF60137FC859137FE81916F0133
:10227000B70190E00E944D1251105A94F1E08F1A6C
:102280009108BFCF843619F0893609F077C0F8017C
:1022900037FE6BC060817181828193810C5F1F4F1B
:1022A000F32DFF763F2E97FF09C09095809570958E
:1022B00061957F4F8F4F9F4F689437F82AE030E049
:1022C000A5010E947D12C82ECA188C2C432C36FE04
:1022D0000CC0E89440F8C91440F434FE05C032FC48
:1022E00003C0F32DFE7E4F2E892C44FE95C0FE01C7
:1022F000EC0DF11D8081803309F087C0242D297EEB
:10230000422E842D8870582E43FC95C040FE8FC00D
:102310009C2C821418F42C0C922C981844FE91C01A
:10232000B70180E390E00E944D1242FE09C088E7A9
:1023300090E041FE02C088E590E0B7010E944D1296
:10234000C91408F48AC0CA94D12C9FEFC91AD90ABB
:10235000CA0CDB1CF60182916F01B70190E00E946C
:102360004D12AC14BD04B1F74FCF60817181072EBF
:10237000000C880B990B0E5F1F4F92CFD32CE89463
:10238000D4F82AE030E0853739F1232D297FD22E89
:102390008F3601F148F48835A9F0F70186819781DD
:1023A0002B96E2E10C94400D803749F08837A9F76D
:1023B000D4FE02C06894D2F820E130E00DC06894E9
:1023C000D4F8F6CF34FE03C0822F8660D82E20E1E9
:1023D00032E002C028E030E0F801D7FE0FC0608193
:1023E0007181828193810C5F1F4FA5010E947D1234
:1023F000C82ECA183D2CE89437F867CF60817181E8
:1024000090E080E00E5F1F4FF0CF42FC02C083944B
:1024100078CF8394839475CF842D867809F471CF17
:10242000F6CFB70180E290E00E944D1283948214AF
:10243000C0F3512C73CF522C5818821408F46ECF6D
:10244000F8CF842D867809F47BCF8BE241FE80E2C1
:1024500047FC8DE2B70190E071CFB70180E390E0D7
:102460000E944D129A946CCF8FEF9FEF99CFFC0191
:102470000590615070400110D8F7809590958E0FAF
:102480009F1F0895FC016150704001900110D8F722
:10249000809590958E0F9F1F08950F931F93CF9354
:1024A000DF93182F092FEB018B8181FD09C01FEFEE
:1024B0000FEF812F902FDF91CF911F910F910895F2
:1024C00082FF14C02E813F818C819D81281739079E
:1024D0003CF4E881F981CF010196998388831083C8
:1024E0008E819F8101969F838E83E3CFE885F98556
:1024F000812F0995892BA1F3DACFFA01AA27283079
:1025000051F1203181F1E8946F936E7F6E5F7F4FC0
:102510008F4F9F4FAF4FB1E03ED0B4E03CD0670F3C
:10252000781F891F9A1FA11D680F791F8A1F911D8F
:10253000A11D6A0F711D811D911DA11D20D009F4DF
:1025400068943F912AE0269F11243019305D319321
:10255000DEF6CF010895462F4770405D4193B3E00A
:102560000FD0C9F7F6CF462F4F70405D4A3318F0B1
:10257000495D31FD4052419302D0A9F7EACFB4E062
:10258000A6959795879577956795BA95C9F700971A
:102590006105710508959B01AC010A2E06945795BB
:1025A000479537952795BA95C9F7620F731F841F12
:1025B000951FA01D089510E0C5E3D0E004C0FE0102
:1025C0000E94390E2196C633D107C9F7F894FFCF80
:1025D0000100010002000100000000004003800033
:1025E00000000000000160008D004D01BE009C0055
:1025F000B0000D0A006E616E00696E66006F76664F
:102600000063656E7465720063656E7465725F6108
:102610007564696F006C6566740072696768740040
:102620006E6F6E650073657269616C5F657374616E
:10263000626C69736865640052455754494D452082
:1026400000544F54494D452000484F4C4454494D87
:10265000454D494E2000484F4C4454494D454D414D
:1026600058200025303464200020545249414C4FFA
:102670004E00545249414C54595045200047495648
:1026800045544F2000415544494F44555220006362
:10269000656E746572206E6F7365706F6B65005345
:1026A0005441544533005354494D4F4E2000454149
:1026B000524C594445505F303120004541524C59ED
:1026C0004445505F303220004541524C59444550FA
:1026D0005F303320005354494D4F4646200063611C
:1026E00073652034005245535054494D45200052E3
:1026F0004553504449522000545249414C4F55547F
:10270000434F4D452000544F4F4E2000544F4F46ED
:102710004620005245574F4E2000545249414C45E7
:102720004E442000454E44484F4C4454494D4520AA
:022730000000A7
:00000001FF
