:100000000C9462000C9440050C9419050C948A0021
:100010000C948A000C948A000C948A000C948A0038
:100020000C948A000C948A000C948A000C948A0028
:100030000C948A000C948A000C948A000C948A0018
:100040000C94CF040C948A000C949D040C947704B7
:100050000C948A000C948A000C948A000C948A00F8
:100060000C948A000C948A000000000024002700F1
:100070002A0000000000250028002B0000000000DE
:1000800023002600290004040404040404040202DA
:100090000202020203030303030301020408102007
:1000A0004080010204081020010204081020000012
:1000B0000008000201000003040700000000000027
:1000C0000000860B11241FBECFEFD8E0DEBFCDBFEE
:1000D00012E0A0E0B1E0E6EDF2E202C005900D9280
:1000E000A831B107D9F722E0A8E1B2E001C01D9222
:1000F000A63FB207E1F710E0C2E6D0E004C02197C6
:10010000FE010E94C20EC136D107C9F70E946705E1
:100110000C9469110C940000AF92BF92CF92DF92C1
:10012000EF92FF920F931F93CF93DF936C017B01AC
:100130008B01040F151FEB015E01AE18BF08C0173D
:10014000D10759F06991D601ED91FC910190F081B0
:10015000E02DC6010995892B79F7C501DF91CF9173
:100160001F910F91FF90EF90DF90CF90BF90AF90D5
:100170000895FC01538D448D252F30E0842F90E0AD
:10018000821B930B541710F0CF9608950197089592
:10019000FC01918D828D981761F0A28DAE0FBF2F5B
:1001A000B11D5D968C91928D9F5F9F73928F90E0B1
:1001B00008958FEF9FEF0895FC01918D828D981720
:1001C00031F0828DE80FF11D858D90E008958FEF5D
:1001D0009FEF0895FC01918D228D892F90E0805C26
:1001E0009F4F821B91098F739927089589E592E0AB
:1001F0000E94EA0021E0892B09F420E0822F089573
:1002000080E090E0892B29F00E94F60081110C9487
:1002100000000895FC01A48DA80FB92FB11DA35AA9
:10022000BF4F2C91848D90E001968F739927848F16
:10023000A689B7892C93A089B1898C918370806439
:100240008C93938D848D981306C00288F389E02DDA
:1002500080818F7D80830895EF92FF920F931F938B
:10026000CF93DF93EC0181E0888F9B8D8C8D981369
:100270001AC0E889F989808185FF15C09FB7F89475
:10028000EE89FF896083E889F989808183708064C1
:1002900080839FBF81E090E0DF91CF911F910F910C
:1002A000FF90EF900895F62E0B8D10E00F5F1F4F1B
:1002B0000F731127E02E8C8D8E110CC00FB607FC2A
:1002C000FACFE889F989808185FFF5CFCE010E94B8
:1002D0000A01F1CFEB8DEC0FFD2FF11DE35AFF4F1B
:1002E000F0829FB7F8940B8FEA89FB898081806246
:1002F000CFCFCF93DF93EC01888D8823B9F0AA8903
:10030000BB89E889F9898C9185FD03C0808186FDD0
:100310000DC00FB607FCF7CF8C9185FFF2CF80811F
:1003200085FFEDCFCE010E940A01E9CFDF91CF9189
:100330000895833081F028F4813099F08230A9F05B
:1003400008958730A9F08830C9F08430B1F48091E5
:1003500080008F7D03C0809180008F778093800024
:10036000089584B58F7784BD089584B58F7DFBCFC4
:100370008091B0008F778093B00008958091B00095
:100380008F7DF9CFCF93DF93282F30E0F901E2552D
:10039000FF4F8491F901E656FF4FD491F901EA57D6
:1003A000FF4FC491CC23A1F081110E949901EC2F41
:1003B000F0E0EE0FFF1FE458FF4FA591B491EC91D0
:1003C000ED2381E090E009F480E0DF91CF91089582
:1003D00080E090E0FACF1F93CF93DF93282F30E097
:1003E000F901E255FF4F8491F901E656FF4FD49190
:1003F000F901EA57FF4FC491CC23A9F0162F8111C0
:100400000E949901EC2FF0E0EE0FFF1FEE58FF4F16
:10041000A591B4918FB7F894EC91111108C0D095C3
:10042000DE23DC938FBFDF91CF911F910895DE2BE8
:10043000F8CFCF93DF9390E0FC01E656FF4F249175
:100440008A579F4FFC0184918823C9F090E0880F60
:10045000991FFC01E859FF4FA591B491FC01EE589A
:10046000FF4FC591D49161110DC09FB7F8948C9145
:10047000209582238C938881282328839FBFDF9136
:10048000CF910895623051F49FB7F8943C91822F38
:10049000809583238C93E8812E2BEFCF8FB7F89430
:1004A000EC912E2B2C938FBFEACF3FB7F89480911D
:1004B0001D0290911E02A0911F02B091200226B54C
:1004C000A89B05C02F3F19F00196A11DB11D3FBF8C
:1004D000BA2FA92F982F8827BC01CD01620F711D5B
:1004E000811D911D42E0660F771F881F991F4A9555
:1004F000D1F708952FB7F8946091190270911A02FC
:1005000080911B0290911C022FBF08950F931F939F
:100510000E947A0260936102709362028093630288
:100520009093640289E592E00E94DC0097FF1DC071
:100530000E947A020091610210916202209163028E
:1005400030916402601B710B820B930B00915D0272
:1005500010915E0220915F02309160026017710776
:1005600082079307F8F28FEF9FEF1F910F91089585
:10057000089589B129B190E09595879595958795CE
:1005800030E043E0359527954A95E1F7822780FDD5
:1005900014C080913F0290914002A0914102B0911D
:1005A00042020196A11DB11D80933F02909340022B
:1005B000A0934102B0934202089580913F0290912E
:1005C0004002A0914102B09142020197A109B109F4
:1005D000EBCF89B129B190E033E0959587953A95B5
:1005E000E1F730E03595279535952795822780FFEF
:1005F00014C080913F0290914002A0914102B091BD
:1006000042020196A11DB11D80933F0290934002CA
:10061000A0934102B0934202089580913F029091CD
:100620004002A0914102B09142020197A109B10993
:10063000EBCFFC0101900020E9F73197AF01481B97
:10064000590BBC0189E592E00C948C008F929F922B
:10065000AF92BF920F931F93CF93DF93CDB7DEB7C7
:10066000A1970FB6F894DEBF0FBECDBF19A24230DE
:1006700008F44AE08E010F5D1F4F842E912CB12C9F
:10068000A12CA50194010E94E40DE62FB901CA0135
:10069000EA30F4F4E05DD801EE938D01232B242B96
:1006A000252B79F790E080E0109719F0CD010E949A
:1006B0001903A1960FB6F894DEBF0FBECDBFDF9130
:1006C000CF911F910F91BF90AF909F908F90089501
:1006D000E95CE1CF0C941903CF92DF92EF92FF9285
:1006E000CF93DF936C01990FEE08FF08F7FE1FC050
:1006F0006DE289E592E00E942C01EC0166277727E4
:10070000CB016C197D098E099F094AE00E942603DE
:10071000C80FD91F80E291E00E9419038C0F9D1F22
:10072000DF91CF91FF90EF90DF90CF9008954AE056
:10073000C701B6010E942603EC01ECCF4F925F92F5
:100740006F927F928F929F92AF92BF92CF92DF92E1
:10075000EF92FF926B017C01AC019B010E94BD0EE8
:100760008823C1F083E291E00E9419037C0180E2BA
:1007700091E00E9419038E0D9F1DFF90EF90DF9076
:10078000CF90BF90AF909F908F907F906F905F9031
:100790004F90089546015701E894B7F82FEF3FEFC7
:1007A0004FE75FE7C501B4010E94BD0E81110DC086
:1007B0002FEF3FEF4FE75FE7C501B4010E94570CF1
:1007C00018161CF487E291E0CFCF2FEF3FEF4FE7F1
:1007D0005FE4C701B6010E94B80E18161CF48BE244
:1007E00091E0C2CF2FEF3FEF4FE75FECC701B601BB
:1007F0000E94570C87FDF3CF20E030E0A901C7012C
:10080000B6010E94570CB12CA12C87FF0AC06DE2E3
:1008100089E592E00E942C015C01F7FAF094F7F868
:10082000F0942AE037ED43EA5BE3C701B6010E948A
:10083000160E2B013C010E94890E6B017C010E9467
:100840005C0C9B01AC01C301B2010E94150E2B018F
:100850003C014AE0C701B6010E9426037C01EA0C74
:10086000FB1C6EE289E592E00E942C01E80EF91E65
:1008700020E030E040E251E4C301B2010E94BD0C2F
:100880002B013C010E94890E4B01B12CA12C4AE0A6
:10089000C501B4010E942603E80EF91EC501B4018A
:1008A0000E945C0C9B01AC01C301B2010E94150EB9
:1008B00020E030E040E251E40E94BD0C0E94890E2D
:1008C00090E080E04AE00E942603E80EF91E4FCF38
:1008D000CF93DF934AE00E942603EC0180E291E08F
:1008E0000E9419038C0F9D1FDF91CF9108951F92D5
:1008F0000F920FB60F9211242F933F934F935F9354
:100900006F937F938F939F93AF93BF93EF93FF93D7
:1009100089E592E00E940A01FF91EF91BF91AF91AA
:100920009F918F917F916F915F914F913F912F9107
:100930000F900FBE0F901F9018951F920F920FB639
:100940000F9211242F938F939F93EF93FF93E09136
:100950006902F0916A028081E0916F02F091700269
:1009600082FD1BC09081809172028F5F8F732091F6
:100970007302821741F0E0917202F0E0E75AFD4FF6
:10098000958F80937202FF91EF919F918F912F919C
:100990000F900FBE0F901F9018958081F4CF1F927B
:1009A0000F920FB60F9211242F933F938F939F9323
:1009B000AF93BF938091190290911A02A0911B02EC
:1009C000B0911C023091180223E0230F2D3758F507
:1009D0000196A11DB11D20931802809319029093D6
:1009E0001A02A0931B02B0931C0280911D029091E9
:1009F0001E02A0911F02B09120020196A11DB11DFF
:100A000080931D0290931E02A0931F02B0932002B8
:100A1000BF91AF919F918F913F912F910F900FBEFA
:100A20000F901F90189526E8230F0296A11DB11D67
:100A3000D2CF1F920F920FB60F9211242F933F9394
:100A40004F935F936F937F938F939F93AF93BF93D6
:100A5000EF93FF93E0910201F09103010995FF915B
:100A6000EF91BF91AF919F918F917F916F915F9126
:100A70004F913F912F910F900FBE0F901F9018959F
:100A80001F920F920FB60F9211242F933F934F9303
:100A90005F936F937F938F939F93AF93BF93EF93E6
:100AA000FF93E0910001F09101010995FF91EF9111
:100AB000BF91AF919F918F917F916F915F914F9176
:100AC0003F912F910F900FBE0F901F901895CF93CD
:100AD000DF93CDB7DEB76C970FB6F894DEBF0FBECD
:100AE000CDBF789484B5826084BD84B5816084BDB7
:100AF00085B5826085BD85B5816085BD80916E00BC
:100B0000816080936E0010928100809181008260EC
:100B10008093810080918100816080938100809129
:100B200080008160809380008091B1008460809318
:100B3000B1008091B00081608093B00080917A0014
:100B4000846080937A0080917A00826080937A003A
:100B500080917A00816080937A0080917A00806829
:100B600080937A001092C10060E085E00E94190233
:100B7000E0916902F0916A0282E08083E09165026F
:100B8000F09166021082E0916702F091680287E6B8
:100B9000808310927102E0916D02F0916E0286E006
:100BA0008083E0916B02F0916C0280818061808390
:100BB000E0916B02F0916C02808188608083E0910B
:100BC0006B02F0916C02808180688083E0916B02FF
:100BD000F0916C0280818F7D808389E592E00E9494
:100BE000C8008FE291E00E94190380E291E00E9428
:100BF000190310E000E05801AA0CBB1CAA0CBB1C96
:100C000021E030E02C0F3D1FA20EB31E89E592E0DB
:100C10000E94EA001816190674F70E948602FC0169
:100C200097FD77C18D32910509F04CC0412C512CB4
:100C300020E8622E2FE3722EC12CD12C7601912C4C
:100C4000812CE130F10559F1ED32F10509F447C08D
:100C5000EE32F10509F446C0CF01C0970A97F8F4C7
:100C6000AAE0B0E0A70196010E949A0D6F01FF0F64
:100C7000EE08FF08C60ED71EE81EF91E30E3C31AA1
:100C8000D108E108F108992051F02DEC3CEC4CEC36
:100C90005DE3C301B2010E94BD0C2B013C0189E55B
:100CA00092E00E94C8000E948602FC01C0970A9749
:100CB00040F2EE32F105C9F4992019F2882049F189
:100CC000982C19C0C0970A9708F4B0CFEE32F105FE
:100CD00009F4ACCF89E592E00E94C8009ECF882439
:100CE0008394DDCF99249394DACFE130F10509F4B0
:100CF000A8CF882041F0F094E094D094C094C11C17
:100D0000D11CE11CF11CC701B6010E945E0C9920A8
:100D100041F0C701B6010E945E0CA30192010E943E
:100D2000BD0CD5016D937D938D939D935D010F5FF8
:100D30001F4F053011050CF469CF49805A806B8034
:100D40007C80409221025092220260922302709293
:100D500024028D809E80AF80B884C501B4010E94BA
:100D6000820E60932502709326028093270290934F
:100D70002802C984DA84EB84FC84C0922D02D092CC
:100D80002E02E0922F02F09230022D853E854F8593
:100D900058892D8B3E8B4F8B588F20934702309371
:100DA00048024093490250934A0289899A89AB8943
:100DB000BC89898F9A8FAB8FBC8F80934B029093A5
:100DC0004C02A0934D02B0934E0282E491E00E9447
:100DD0006A03C301B2010E949E038BE491E00E946A
:100DE0006A03C501B4010E949E0383E591E00E945D
:100DF0006A03C701B6010E949E038DE591E00E943F
:100E00006A036D897E898F89988D0E949E038AE688
:100E100091E00E946A03698D7A8D8B8D9C8D0E9472
:100E20009E0362E082E00E94190262E083E00E9479
:100E3000190289EE92E09093010180930001809164
:100E400069008C7F816080936900E89A89EB92E069
:100E5000909303018093020180916900837F8460F5
:100E600080936900E99A61E089E00E94190280910B
:100E700005018F93809104018F9387E791E09F9301
:100E80008F938FE492E09F938F930E94C80E8FE41C
:100E900092E00E946A030E9455024AE00E942603E3
:100EA0008DE791E00E946A03809104019091050111
:100EB0000E946C0381E090E0909358028093570267
:100EC00089E592E00E94C80089E592E00E94C8008E
:100ED0000F900F900F900F900F900F9009E010E07F
:100EE00022242394312CE0915702F091580231973B
:100EF000E930F10508F017C1E058F84F0C94C20E24
:100F00008D07AC0828099109B6094D0A940AE80A28
:100F10002D0B60E070E0CB0104CF89E592E00E94E8
:100F2000C800F12CE12C6701CC0CDD1CCC0CDD1CC5
:100F3000A1E0B0E0AC0FBD1FCA0EDB1E89E592E058
:100F40000E94EA001816190674F70E948602FC0136
:100F500097FDFEC08D32910521F0C0970A9708F0E9
:100F6000EFC0812C912C5401712CE130F105D9F0A6
:100F7000ED32F10509F4E9C0CF01C0970A9798F462
:100F8000AAE0B0E0A50194010E949A0D4F01FF0F65
:100F9000AA08BB08860E971EA81EB91EB0E38B1ABE
:100FA0009108A108B10889E592E00E94C8000E945A
:100FB0008602FC01C0970A97C0F2E130F105A9F260
:100FC000772041F0B094A09490948094811C911C5F
:100FD000A11CB11CC501B4010E945E0CF601619315
:100FE0007193819391936F01FFEFEF1AFF0A23E052
:100FF000E216F1040CF4A2CF49805A806B807C8009
:10100000C301B2010E94820E70930901609308012E
:101010008D809E80AF80B884C501B4010E94820E8D
:101020007093070160930601C984DA84EB84FC8421
:10103000C701B6010E94820E70935602609355025A
:101040008FE492E00E946A0386E891E00E946A03BE
:10105000C301B2010E949E038FE492E00E946A03E2
:1010600081E991E00E946A03C501B4010E949E03D8
:101070008FE492E00E946A0389E991E00E946A038A
:10108000C701B6010E949E0360914B0270914C0211
:1010900080914D0290914E020E94820E4B015C01A4
:1010A00060914702709148028091490290914A02F2
:1010B0000E94820E6B017C01C814D904EA04FB046F
:1010C00074F48C189D08AE08BF080E94FF0BA501A0
:1010D00094010E947B0DC60ED71EE81EF91EC701A3
:1010E000B6010E945E0C60934302709344028093A9
:1010F0004502909346028FE492E00E946A0383EADD
:1011000091E00E946A0360914302709144028091D1
:101110004502909146020E949E0342E050E05093A7
:1011200058024093570280E090E0892B09F4DBCE0F
:101130000E94F600882309F4D6CE0E940000D3CE88
:1011400089E592E00E94C80000CF772473942BCFEA
:10115000812C912C54013ECF80913F02909140020E
:10116000A0914102B091420280933B0290933C02D5
:10117000A0933D02B0933E020E947A022B013C01F3
:10118000C12CD12C7601C701B601641975098609F5
:1011900097090E945E0C20914302309144024091D5
:1011A0004502509146020E94570C87FF2EC00E94B4
:1011B0007A026B017C0180903F0290904002A090E7
:1011C0004102B09042028092370290923802A0927F
:1011D0003902B0923A0280913B0290913C02A09178
:1011E0003D02B0913E0288169906AA06BB0659F246
:1011F0000E947A022B013C0180923B0290923C02B9
:10120000A0923D02B0923E02BECF0E945502609372
:1012100033027093340280933502909336028FE448
:1012200092E00E946A038DEA91E00E946A03609155
:1012300033027091340280913502909136020E94FF
:10124000680483E090E090935802809357026BCF3C
:1012500085E00E94C2010197F9F40E945502609353
:1012600033027093340280933502909336028FE4F8
:1012700092E00E946A0389EB91E00E946A03609108
:1012800033027091340280913502909136020E94AF
:10129000680484E090E0D7CF0E947A026B017C0161
:1012A0006091330270913402809135029091360240
:1012B00028EE33E040E050E00E94E40DC21AD30A69
:1012C000E40AF50A8091550290915602092E000C0D
:1012D000AA0BBB0B8C159D05AE05BF0508F023CFEF
:1012E0000E9455026093330270933402809335025A
:1012F000909336028FE492E00E946A0381EC91E0C1
:101300000E946A0360913302709134028091350229
:10131000909136020E94680410935802009357027D
:1013200002CF85E00E94C201892B09F0FCCE0E9409
:101330005502609333027093340280933502909388
:1013400036028FE492E00E946A038FEC91E00E94E3
:101350006A0360913302709134028091350290915A
:1013600036020E94680485E090E06DCF40903F0215
:1013700050904002609041027090420240923B02C5
:1013800050923C0260923D0270923E0280912D028A
:1013900090912E02A0912F02B09130028D8B9E8BE6
:1013A000AF8BB88F8090370290903802A0903902AE
:1013B000B0903A02F12CE12CB701F7FE04C0662789
:1013C00077276E197F09072E000C880B990B0E9456
:1013D0005E0C2D893E894F89588D0E94570C87FFDE
:1013E0000CC080903F0290904002A0904102B090CB
:1013F00042027401E418F508DFCF80923702909220
:101400003802A0923902B0923A02F0923202E0928F
:1014100031020E945502609333027093340280932C
:101420003502909336028FE492E00E946A0388EDC1
:1014300091E00E946A0360913302709134028091BE
:101440003502909136020E94680480913102909199
:10145000320297FF1BC0A2E0B0E0B0932C02A09331
:101460002B028FE492E00E946A0382EE91E00E94D8
:101470006A0380912B0290912C020E946C03E6E09B
:10148000F0E0F0935802E09357024DCE02974CF3F0
:1014900030922C0220922B02E4CF8091080190918F
:1014A000090120912B0230912C0282179307C9F475
:1014B00030922A022092290228E030E0309358022C
:1014C000209357028FE492E00E946A038BEE91E032
:1014D0000E946A038091290290912A020E946C0363
:1014E00022CE8336910559F490932A0280932902E3
:1014F0000E94FF0B1093580200935702E3CF109203
:101500002A021092290280910601909107018130F0
:10151000910539F447E050E0509358024093570248
:10152000D1CF892B39F3CECF0E945502609333027D
:101530007093340280933502909336028FE492E0E8
:101540000E946A0389EF91E00E946A03609133026E
:101550007091340280913502909136020E946804A5
:1015600060E070E0CB01C0903302D0903402E09094
:101570003502F09036029B01AC012C193D094E0951
:101580005F0969017A01209125023091260240917C
:10159000270250912802A8EEB3E00E949A0DC616C9
:1015A000D706E806F9061CF40E945502DCCF0E941B
:1015B0005502609333027093340280933502909306
:1015C00036028FE492E00E946A038FEF91E098CE9A
:1015D0000E94550260933302709334028093350267
:1015E0009093360261E089E00E94EB016091210254
:1015F0007091220280912302909124020E94890E10
:101600006B017C010E9455024B015C01C114D104A5
:10161000E104F104B9F00E945502681979098A09B8
:101620009B09683E73408105910580F331E0C31A40
:10163000D108E108F10848EE840E43E0941EA11C95
:10164000B11CE4CF60E089E00E94EB018FE492E0FE
:101650000E946A0386E092E053CE0E945502609396
:1016600033027093340280933502909336028FE4F4
:1016700092E00E946A038DE092E00E946A0360910A
:1016800033027091340280913502909136020E94AB
:1016900068048091040190910501019690930501E1
:1016A000809304019F938F9387E791E09F938F939B
:1016B0008FE492E09F938F930E94C80E8FE492E094
:1016C0000E946A030E9455024AE00E9426038DE7A9
:1016D00091E00E946A0380910401909105010E94AB
:1016E0006C0389E592E00E94EA000F900F900F9042
:1016F0000F900F900F90892B21F089E592E00E94C6
:10170000C80030925802209257020DCDE9E5F2E070
:101710001382128288EE93E0A0E0B0E08483958388
:10172000A683B78382E191E09183808385EC90E08A
:101730009587848784EC90E09787868780EC90E09B
:10174000918B808B81EC90E0938B828B82EC90E08C
:10175000958B848B86EC90E0978B868B118E128E06
:10176000138E148E08958F929F92AF92BF92CF9254
:10177000DF92EF92FF92CF93DF93EC016881798142
:101780008A819B81611571058105910521F464E2CF
:1017900079ED8BE597E02DE133EF41E050E00E94D9
:1017A0007B0D49015A019B01AC01A7EAB1E40E94FB
:1017B0009A0D6B017C01ACEEB4EFA50194010E947F
:1017C000A80DC60ED71EE81EF91EF7FE06C081E062
:1017D000C81AD108E10880E8F80AC882D982EA82EA
:1017E000FB82C701B6019F77DF91CF91FF90EF9009
:1017F000DF90CF90BF90AF909F908F9008958F9281
:101800009F92AF92BF92CF92DF92EF92FF92609140
:101810000A0170910B0180910C0190910D016115ED
:1018200071058105910521F464E279ED8BE597E07E
:101830002DE133EF41E050E00E947B0D49015A0158
:101840009B01AC01A7EAB1E40E949A0D6B017C01F7
:10185000ACEEB4EFA50194010E94A80DC60ED71EF0
:10186000E81EF91EF7FE06C081E0C81AD108E1089B
:1018700080E8F80AC0920A01D0920B01E0920C01B4
:10188000F0920D01C701B6019F77FF90EF90DF90B6
:10189000CF90BF90AF909F908F90089560930A0172
:1018A00070930B0180930C0190930D0108950E9499
:1018B000990C08F481E00895E89409C097FB3EF480
:1018C00090958095709561957F4F8F4F9F4F99238D
:1018D000A9F0F92F96E9BB279395F695879577950B
:1018E0006795B795F111F8CFFAF4BB0F11F460FFCB
:1018F0001BC06F5F7F4F8F4F9F4F16C0882311F023
:1019000096E911C0772321F09EE8872F762F05C036
:10191000662371F096E8862F70E060E02AF09A95D1
:10192000660F771F881FDAF7880F9695879597F9C6
:101930000895990F0008550FAA0BE0E8FEEF161660
:101940001706E807F907C0F012161306E407F507B3
:1019500098F0621B730B840B950B39F40A2661F027
:10196000232B242B252B21F408950A2609F4A140CA
:10197000A6958FEF811D811D08950E94D00C0C94B7
:10198000410D0E94330D38F00E943A0D20F095234E
:1019900011F00C942A0D0C94300D11240C94750D3B
:1019A0000E94520D70F3959FC1F3950F50E0551FA3
:1019B000629FF001729FBB27F00DB11D639FAA27A4
:1019C000F00DB11DAA1F649F6627B00DA11D661FF3
:1019D000829F2227B00DA11D621F739FB00DA11D14
:1019E000621F839FA00D611D221F749F3327A00DCE
:1019F000611D231F849F600D211D822F762F6A2F6A
:101A000011249F5750409AF0F1F088234AF0EE0FCE
:101A1000FF1FBB1F661F771F881F91505040A9F7FB
:101A20009E3F510580F00C942A0D0C94750D5F3F7C
:101A3000E4F3983ED4F3869577956795B795F79537
:101A4000E7959F5FC1F7FE2B880F911D96958795AF
:101A500097F9089597F99F6780E870E060E008952E
:101A60009FEF80EC089500240A94161617061806B6
:101A70000906089500240A94121613061406050692
:101A80000895092E0394000C11F4882352F0BB0F23
:101A900040F4BF2B11F460FF04C06F5F7F4F8F4F86
:101AA0009F4F089557FD9058440F551F59F05F3FC1
:101AB00071F04795880F97FB991F61F09F3F79F070
:101AC00087950895121613061406551FF2CF4695F2
:101AD000F1DF08C0161617061806991FF1CF869574
:101AE0007105610508940895E894BB276627772758
:101AF000CB0197F90895052E97FB1EF400940E94E0
:101B0000920D57FD07D00E94E40D07FC03D04EF460
:101B10000C94920D50954095309521953F4F4F4F25
:101B20005F4F089590958095709561957F4F8F4F89
:101B30009F4F08950E94060EA59F900DB49F900D93
:101B4000A49F800D911D11240895B7FF0C949A0D48
:101B50000E949A0D821B930B08952F923F924F92F1
:101B60005F926F927F928F929F92AF92BF92CF922D
:101B7000DF92EF92FF920F931F93CF93DF93CDB736
:101B8000DEB7CA1BDB0B0FB6F894DEBF0FBECDBFAE
:101B900009942A88398848885F846E847D848C847F
:101BA0009B84AA84B984C884DF80EE80FD800C8188
:101BB0001B81AA81B981CE0FD11D0FB6F894DEBF6B
:101BC0000FBECDBFED010895A1E21A2EAA1BBB1BCB
:101BD000FD010DC0AA1FBB1FEE1FFF1FA217B307F9
:101BE000E407F50720F0A21BB30BE40BF50B661F0F
:101BF000771F881F991F1A9469F7609570958095D3
:101C000090959B01AC01BD01CF010895A29FB00149
:101C1000B39FC001A39F700D811D1124911DB29F20
:101C2000700D811D1124911D08955058BB27AA27BE
:101C30000E942D0E0C94410D0E94330D38F00E942D
:101C40003A0D20F039F49F3F19F426F40C94300D2E
:101C50000EF4E095E7FB0C942A0DE92F0E94520D3B
:101C600058F3BA17620773078407950720F079F4D1
:101C7000A6F50C94740D0EF4E0950B2EBA2FA02D42
:101C80000B01B90190010C01CA01A0011124FF2729
:101C9000591B99F0593F50F4503E68F11A16F04024
:101CA000A22F232F342F4427585FF3CF4695379523
:101CB0002795A795F0405395C9F77EF41F16BA0BE8
:101CC000620B730B840BBAF09150A1F0FF0FBB1F96
:101CD000661F771F881FC2F70EC0BA0F621F731FDF
:101CE000841F48F4879577956795B795F7959E3F3C
:101CF00008F0B0CF9395880F08F09927EE0F9795CD
:101D0000879508950E94890E6894B1110C94750D01
:101D100008950E945A0D88F09F5798F0B92F99277F
:101D2000B751B0F0E1F0660F771F881F991F1AF0C6
:101D3000BA95C9F714C0B13091F00E94740DB1E0AA
:101D400008950C94740D672F782F8827B85F39F0A9
:101D5000B93FCCF3869577956795B395D9F73EF45F
:101D600090958095709561957F4F8F4F9F4F089507
:101D70000E94990C08F48FEF08950E94990C880B2B
:101D8000990B0895EE0FFF1F0590F491E02D099433
:101D9000AEE0B0E0EEECFEE00C94BB0D0D891E89C8
:101DA00086E08C831A8309838FEF9FE79E838D8360
:101DB000AE01475E5F4F6F89788DCE0101960E941C
:101DC000EB0E2F813885020F131FF80110822E961B
:101DD000E4E00C94D70DABE0B0E0E1EFFEE00C9452
:101DE000AD0D7C013B018A01FC01178216828381C3
:101DF00081FFC8C1CE0101965C01F7019381F30117
:101E000093FD859193FF81913F01882309F453C18C
:101E1000853239F493FD859193FF81913F0185329D
:101E200029F4B70190E00E94DB10E7CF912C212C20
:101E3000312CFFE1F31538F08B3211F190F4803240
:101E400009F1833229F137FC3CC020ED280F2A30FC
:101E500050F536FE20C08AE0989E200D1124922E67
:101E600006C08D3291F0803371F7689430F8F30139
:101E700093FD859193FF81913F018111DACF21C0BC
:101E8000689431F8689432F8F2CF689433F8EFCF61
:101E9000689434F8ECCFEAE02E9E200D1124222E17
:101EA000689435F8E4CF8E3229F436FC04C1689486
:101EB00036F8DDCF8C3619F4689437F8D8CF8836E9
:101EC000B1F2982F9F7D95549330E0F08336A1F1C5
:101ED0008337C1F1833509F063C02801F2E04F0E6A
:101EE000511CF801C080D180692D70E036FC02C021
:101EF0006FEF7FEFC6010E94C5104C01689437F860
:101F000082010AC00C5F1F4FFFE3F983882483948A
:101F1000912C6501E89437F833FE2DC0522C8114C2
:101F2000910471F5552009F468CFB70180E290E083
:101F30000E94DB105A94F6CFF801808189830E5FEE
:101F40001F4FE4CF2801F2E04F0E511CF801C08072
:101F5000D180692D70E036FC02C06FEF7FEFC601C3
:101F60000E94D0104C018201D5CFB70180E290E0F1
:101F70000E94DB102A942814190409F0B0F7CECF80
:101F8000F60137FC859137FE81916F01B70190E032
:101F90000E94DB1051105A94F1E08F1A9108BFCFC4
:101FA000843619F0893609F077C0F80137FE6BC026
:101FB00060817181828193810C5F1F4FF32DFF76C9
:101FC0003F2E97FF09C090958095709561957F4F42
:101FD0008F4F9F4F689437F82AE030E0A5010E94A8
:101FE0000B11C82ECA188C2C432C36FE0CC0E8945A
:101FF00040F8C91440F434FE05C032FC03C0F32D90
:10200000FE7E4F2E892C44FE95C0FE01EC0DF11D85
:102010008081803309F087C0242D297E422E842DB3
:102020008870582E43FC95C040FE8FC09C2C8214B3
:1020300018F42C0C922C981844FE91C0B70180E340
:1020400090E00E94DB1042FE09C088E790E041FE6C
:1020500002C088E590E0B7010E94DB10C91408F4C3
:102060008AC0CA94D12C9FEFC91AD90ACA0CDB1CAA
:10207000F60182916F01B70190E00E94DB10AC1471
:10208000BD04B1F74FCF60817181072E000C880B22
:10209000990B0E5F1F4F92CFD32CE894D4F82AE00F
:1020A00030E0853739F1232D297FD22E8F3601F18B
:1020B00048F48835A9F0F701868197812B96E2E1F3
:1020C0000C94C90D803749F08837A9F7D4FE02C0B7
:1020D0006894D2F820E130E00DC06894D4F8F6CFCF
:1020E00034FE03C0822F8660D82E20E132E002C089
:1020F00028E030E0F801D7FE0FC060817181828155
:1021000093810C5F1F4FA5010E940B11C82ECA18A6
:102110003D2CE89437F867CF6081718190E080E0D2
:102120000E5F1F4FF0CF42FC02C0839478CF8394A0
:10213000839475CF842D867809F471CFF6CFB701DB
:1021400080E290E00E94DB1083948214C0F3512C53
:1021500073CF522C5818821408F46ECFF8CF842D08
:10216000867809F47BCF8BE241FE80E247FC8DE26A
:10217000B70190E071CFB70180E390E00E94DB10DF
:102180009A946CCF8FEF9FEF99CFFC01059061502F
:1021900070400110D8F7809590958E0F9F1F08957D
:1021A000FC016150704001900110D8F78095909526
:1021B0008E0F9F1F08950F931F93CF93DF93182FB8
:1021C000092FEB018B8181FD09C01FEF0FEF812FDC
:1021D000902FDF91CF911F910F91089582FF14C02E
:1021E0002E813F818C819D81281739073CF4E8813D
:1021F000F981CF0101969983888310838E819F8115
:1022000001969F838E83E3CFE885F985812F099519
:10221000892BA1F3DACFFA01AA27283051F1203116
:1022200081F1E8946F936E7F6E5F7F4F8F4F9F4F6A
:10223000AF4FB1E03ED0B4E03CD0670F781F891FAC
:102240009A1FA11D680F791F8A1F911DA11D6A0F7A
:10225000711D811D911DA11D20D009F468943F912D
:102260002AE0269F11243019305D3193DEF6CF012C
:102270000895462F4770405D4193B3E00FD0C9F7F2
:10228000F6CF462F4F70405D4A3318F0495D31FD5F
:102290004052419302D0A9F7EACFB4E0A6959795B2
:1022A000879577956795BA95C9F700976105710588
:1022B00008959B01AC010A2E0694579547953795D2
:1022C0002795BA95C9F7620F731F841F951FA01D2C
:0622D0000895F894FFCF11
:1022D600B802B8020100010002000100000000007F
:1022E60000002C018C00B9007901EA00C800DC006E
:1022F6000D0A006E616E00696E66006F7666007389
:10230600657269616C5F65737461626C6973686537
:10231600640052455754494D452000544F54494D89
:102326004520004445424F554E43452000484F4CFA
:102336004454494D454D494E2000484F4C4454495C
:102346004D454D415820002530346420002054521C
:1023560049414C4F4E00545249414C545950452026
:102366000047495645544F2000415544494F44556E
:10237600522000484F4C4454494D4520005748458B
:10238600454C5354494C4C20005354494D4F4E2014
:10239600004E4F415544494F4556454E5420005333
:1023A60054494D4F464620005245535054494D45D9
:1023B6002000524553504449522000545249414C42
:1023C6004F5554434F4D452000544F4F4E20005417
:1023D6004F4F464620005245574F4E200054524913
:0823E600414C454E442000006B
:00000001FF
