:100000000C9462000C94AC040C9485040C948A004B
:100010000C948A000C948A000C948A000C948A0038
:100020000C948A000C948A000C948A000C948A0028
:100030000C948A000C948A000C948A000C948A0018
:100040000C943B040C948A000C9409040C94E30374
:100050000C948A000C948A000C948A000C948A00F8
:100060000C948A000C948A000000000024002700F1
:100070002A0000000000250028002B0000000000DE
:1000800023002600290004040404040404040202DA
:100090000202020203030303030301020408102007
:1000A0004080010204081020010204081020000012
:1000B0000008000201000003040700000000000027
:1000C00000006B0711241FBECFEFD8E0DEBFCDBF0D
:1000D00011E0A0E0B1E0EEE8FFE002C005900D9273
:1000E000A034B107D9F722E0A0E4B1E001C01D922D
:1000F000A430B207E1F710E0C2E6D0E004C02197D7
:10010000FE010E94BA07C136D107C9F70E94D30485
:100110000C94C5070C940000CF92DF92EF92FF92EF
:100120000F931F93CF93DF936C017A018B01C0E093
:10013000D0E0CE15DF0589F0D8016D918D01D60193
:10014000ED91FC910190F081E02DC6010995892B7C
:1001500011F47E0102C02196ECCFC701DF91CF914F
:100160001F910F91FF90EF90DF90CF900895089529
:1001700080E090E00895FC01538D448D252F30E000
:10018000842F90E0821B930B541710F0CF960895A4
:1001900001970895FC01918D828D981761F0828DF1
:1001A000DF01A80FB11D5D968C91928D9F5F9F73AB
:1001B000928F90E008958FEF9FEF0895FC01918D4D
:1001C000828D981731F0828DE80FF11D858D90E0BA
:1001D00008958FEF9FEF0895FC01918D228D892F57
:1001E00090E0805C9F4F821B91098F73992708953F
:1001F00087E691E00E94EC0021E0892B09F420E0E1
:10020000822F0895FC01848DDF01A80FB11DA35A30
:10021000BF4F2C91848D90E001968F739927848F26
:10022000A689B7892C93A089B1898C9180648C931D
:10023000938D848D981306C00288F389E02D808108
:100240008F7D80830895EF92FF920F931F93CF933A
:10025000DF93EC0181E0888F9B8D8C8D981305C016
:10026000E889F989808185FD24C0F62E0B8D10E088
:100270000F5F1F4F0F731127E02E8C8DE8120CC0FB
:100280000FB607FCFACFE889F989808185FFF5CFA1
:10029000CE010E940201F1CF8B8DFE01E80FF11D0E
:1002A000E35AFF4FF0820B8FEA89FB8980818062DD
:1002B00007C0EE89FF896083E889F98980818064BD
:1002C000808381E090E0DF91CF911F910F91FF90AB
:1002D000EF900895CF93DF93EC01888D8823C9F0C8
:1002E000EA89FB89808185FD05C0A889B9898C913F
:1002F00086FD0FC00FB607FCF5CF808185FFF2CFDA
:10030000A889B9898C9185FFEDCFCE010E940201A9
:10031000E7CFDF91CF91089580E090E0892B29F01D
:100320000E94F80081110C9400000895833081F040
:1003300028F4813099F08230A1F008958730A9F037
:100340008830B9F08430D1F4809180008F7D03C073
:10035000809180008F7780938000089584B58F7797
:1003600002C084B58F7D84BD08958091B0008F77E1
:1003700003C08091B0008F7D8093B0000895CF932B
:10038000DF93282F30E0F901E255FF4F8491F90106
:10039000E656FF4FD491F901EA57FF4FC491CC23A1
:1003A00091F081110E949601EC2FF0E0EE0FFF1FFB
:1003B000E458FF4FA591B491EC91ED2381E090E0DA
:1003C00021F480E002C080E090E0DF91CF910895B9
:1003D000CF93DF9382E00E94BF01EC0183E00E9493
:1003E000BF01CC0FDD1F8C2B9D2B20914001309144
:1003F0004101220F331F220F331F282B392B2D30A1
:10040000310549F02430310531F02230310519F041
:100410002B303105A1F4409161015091620160914E
:100420006301709164014F5F5F4F6F4F7F4F409347
:1004300061015093620160936301709364012E30F7
:10044000310549F0A901475051094230510518F0D2
:1004500021303105A1F44091610150916201609118
:100460006301709164014150510961097109409320
:1004700061015093620160936301709364019093F2
:10048000410180934001DF91CF9108951F93CF9355
:10049000DF93282F30E0F901E255FF4F8491F901F5
:1004A000E656FF4FD491F901EA57FF4FC491CC2390
:1004B000C9F0162F81110E949601EC2FF0E0EE0F8B
:1004C000FF1FEE58FF4FA591B4918FB7F89411110B
:1004D00005C09C91ED2FE095E92302C0EC91ED2B36
:1004E000EC938FBFDF91CF911F910895CF93DF934E
:1004F00090E0FC01E656FF4F2491FC01EA57FF4FC4
:100500008491882361F190E0880F991FFC01E859DC
:10051000FF4FC591D491FC01EE58FF4FA591B491C6
:10052000611109C09FB7F894888120958223888340
:10053000EC912E230BC0623061F49FB7F8943881A0
:10054000822F809583238883EC912E2B2C939FBF41
:1005500006C08FB7F894E8812E2B28838FBFDF91D8
:10056000CF9108953FB7F894809147019091480149
:10057000A0914901B0914A0126B5A89B05C02F3F23
:1005800019F00196A11DB11D3FBFBA2FA92F982FB9
:100590008827820F911DA11DB11DBC01CD0142E034
:1005A000660F771F881F991F4A95D1F708958F927C
:1005B0009F92AF92BF92CF92DF92EF92FF926B0128
:1005C0007C010E94B2024B015C01C114D104E10420
:1005D000F104F1F00E94B202DC01CB018819990903
:1005E000AA09BB09883E9340A105B10570F321E03B
:1005F000C21AD108E108F10888EE880E83E0981E3F
:10060000A11CB11CC114D104E104F10419F7DDCF20
:10061000FF90EF90DF90CF90BF90AF909F908F9022
:1006200008952FB7F894609143017091440180912F
:100630004501909146012FBF08950895009769F0F4
:10064000FC0101900020E9F73197AF01481B590BDD
:10065000BC0187E691E00C948C0080E090E0089566
:100660008F929F92AF92BF920F931F93CF93DF937E
:10067000CDB7DEB7A1970FB6F894DEBF0FBECDBFE2
:1006800019A2423008F44AE08E010F5D1F4F842EFC
:10069000912CA12CB12CA50194010E949807E62F62
:1006A000B901CA0101501109EA3014F4E05D01C03A
:1006B000E95CD801EC93232B242B252B61F7C8018F
:1006C0000E941E03A1960FB6F894DEBF0FBECDBFE9
:1006D000DF91CF911F910F91BF90AF909F908F901E
:1006E0000895CF92DF92EF92FF92CF93DF936B0149
:1006F0007C01E0916701F09168010190F081E02DAB
:100700006DE287E691E00995EC0166277727CB013A
:100710006C197D098E099F094AE00E9430038C0FF5
:100720009D1FDF91CF91FF90EF90DF90CF900895C4
:10073000CF93DF930E941E03EC0188E191E00E94B9
:100740001E038C0F9D1FDF91CF910895CF93DF93F0
:1007500097FF03C00E94710303C04AE00E94300368
:10076000EC0188E191E00E941E038C0F9D1FDF9138
:10077000CF910895CF93DF93BC01990F880B990B0C
:1007800097FF03C00E94710303C04AE00E94300338
:10079000EC0188E191E00E941E038C0F9D1FDF9108
:1007A000CF910895CF93DF934AE00E943003EC018C
:1007B00088E191E00E941E038C0F9D1FDF91CF9175
:1007C00008950E94C0071F920F920FB60F92112436
:1007D0002F933F934F935F936F937F938F939F9349
:1007E000AF93BF93EF93FF9387E691E00E940201DE
:1007F000FF91EF91BF91AF919F918F917F916F91F9
:100800005F914F913F912F910F900FBE0F901F90CE
:1008100018951F920F920FB60F9211242F938F935A
:100820009F93EF93FF93E0917701F091780180819E
:10083000E0917D01F0917E0182FD12C09081809156
:1008400080018F5F8F7320918101821751F0E091B9
:100850008001F0E0E959FE4F958F8093800101C03F
:100860008081FF91EF919F918F912F910F900FBEFB
:100870000F901F9018951F920F920FB60F92112490
:100880002F933F938F939F93AF93BF938091430197
:1008900090914401A0914501B091460130914201EF
:1008A00023E0230F2D3720F40196A11DB11D05C0B3
:1008B00026E8230F0296A11DB11D209342018093CB
:1008C000430190934401A0934501B0934601809168
:1008D000470190914801A0914901B0914A010196C8
:1008E000A11DB11D8093470190934801A093490138
:1008F000B0934A01BF91AF919F918F913F912F91FA
:100900000F900FBE0F901F9018951F920F920FB669
:100910000F9211242F933F934F935F936F937F9385
:100920008F939F93AF93BF93EF93FF93E091020157
:10093000F09103010995FF91EF91BF91AF919F91C4
:100940008F917F916F915F914F913F912F910F9078
:100950000FBE0F901F9018951F920F920FB60F9217
:1009600011242F933F934F935F936F937F938F93B4
:100970009F93AF93BF93EF93FF93E0910001F091AA
:1009800001010995FF91EF91BF91AF919F918F91D7
:100990007F916F915F914F913F912F910F900FBE7B
:1009A0000F901F901895789484B5826084BD84B5AB
:1009B000816084BD85B5826085BD85B5816085BD5A
:1009C00080916E00816080936E0010928100809112
:1009D000810082608093810080918100816080939A
:1009E0008100809180008160809380008091B100BF
:1009F00084608093B1008091B00081608093B000EA
:100A000080917A00846080937A0080917A0082607D
:100A100080937A0080917A00816080937A0080913F
:100A20007A00806880937A001092C10060E085E0CF
:100A30000E947602E0917701F091780182E0808354
:100A4000E0917301F09174011082E0917501F091D1
:100A500076018FEC808310927F01E0917B01F09111
:100A60007C0186E08083E0917901F0917A018081B8
:100A700080618083E0917901F0917A0180818860C2
:100A80008083E0917901F0917A0180818068808390
:100A9000E0917901F0917A0180818F7D80838BE1F3
:100AA00091E00E94980387E691E00E94CA00813697
:100AB000D1F760E082E00E94760260E083E00E946D
:100AC000760261E089E00E94760261E082E00E94A5
:100AD000460261E083E00E94460228EE31E0309356
:100AE000010120930001809169008C7F81608093D7
:100AF0006900E89A30930301209302018091690014
:100B0000837F846080936900E99A64E670E080E006
:100B100090E00E94D70283E291E00E94980381E076
:100B200090E0909366018093650102E010E0C1E0DF
:100B3000D0E080916501909166018130910599F135
:100B4000029709F0C5C180E391E00E94980387E312
:100B500091E00E94980360915D0170915E01809127
:100B60005F01909160010E94A60380915D019091C8
:100B70005E01A0915F01B09160016C017D0125E0F3
:100B8000C20ED11CE11CF11CAC01BD014550510944
:100B9000610971098091510190915201A091530115
:100BA000B0915401A4C089E291E00E949803809121
:100BB000610190916201A0916301B0916401809301
:100BC0005D0190935E01A0935F01B093600110926C
:100BD000590110925A0110925B0110925C010E941F
:100BE00011036093550170935601809357019093C0
:100BF00058018091590190915A01A0915B01B091E7
:100C00005C014091550150915601609157017091DE
:100C10005801841B950BA60BB70B8E359140A1058F
:100C2000B105DCF50E9411036093590170935A01DC
:100C300080935B0190935C01C0906101D090620150
:100C4000E0906301F0906401C0925101D092520192
:100C5000E0925301F092540180915D0190915E0108
:100C6000A0915F01B0916001C816D906EA06FB06A3
:100C700009F4BFCF0E941103609355017093560190
:100C80008093570190935801C0925D01D0925E010C
:100C9000E0925F01F0926001ACCF80916101909190
:100CA0006201A0916301B091640180935D01909312
:100CB0005E01A0935F01B093600180935101909316
:100CC0005201A0935301B093540110936601009315
:100CD0006501FEC08C159D05AE05BF056CF48091C5
:100CE000610190916201A0916301B0916401481784
:100CF00059076A077B0774F380935101909352015F
:100D0000A0935301B0935401809104019091050187
:100D10000E94BA0360915101709152018091530178
:100D2000909154010E94A603C0905101D0905201AD
:100D3000E0905301F090540140915D0150915E01AB
:100D400060915F01709160018091040190910501B3
:100D5000C416D506E606F706C4F58130910509F0FC
:100D600062C00E94B20260934D0170934E01809365
:100D70004F01909350010E94D20361E089E00E94EC
:100D800046026FE070E080E090E00E94D70260E0F1
:100D900089E00E9446026091510170915201809158
:100DA0005301909154010E94A60380914B019091B0
:100DB0004C01019690934C0180934B010E94BA0321
:100DC000109205011092040175C04C155D056E0569
:100DD0007F054CF5009739F50E94B20260934D01F2
:100DE00070934E0180934F01909350010E94D20363
:100DF00061E089E00E9446026FE070E080E090E0F0
:100E00000E94D70260E089E00E944602D09305016B
:100E1000C09304016091510170915201809153017E
:100E2000909154013AC0029709F044C00E94B20266
:100E300060934D0170934E0180934F019093500148
:100E40000E94D20361E089E00E9446026FE070E0F8
:100E500080E090E00E94D70260E089E00E944602B4
:100E60006091510170915201809153019091540110
:100E700021E030E0C0905D01D0905E01E0905F0124
:100E8000F09060016C157D058E059F0514F020E043
:100E900030E030930501209304010E94A603809165
:100EA0004B0190914C01019690934C0180934B0122
:100EB0000E94BA030E94110360935501709356017A
:100EC0008093570190935801D0936601C0936501B8
:100ED0000E948C012ECEE7E6F1E01382128288EEAA
:100EE00093E0A0E0B0E084839583A683B7838AE093
:100EF00091E09183808385EC90E09587848784ECF2
:100F000090E09787868780EC90E0918B808B81ECD6
:100F100090E0938B828B82EC90E0958B848B86ECB7
:100F200090E0978B868B118E128E138E148E0895FF
:100F3000A1E21A2EAA1BBB1BFD010DC0AA1FBB1FDD
:100F4000EE1FFF1FA217B307E407F50720F0A21B4F
:100F5000B30BE40BF50B661F771F881F991F1A94BC
:100F600069F760957095809590959B01AC01BD01E6
:100F7000CF010895EE0FFF1F0590F491E02D099425
:0E0F800081E090E0F8940C94C507F894FFCF40
:100F8E001D031D0302000000000023018C00BB00A6
:100F9E006A01EC00CA00DE000D0A00617264756918
:100FAE006E6F0073746172740073746174653100D6
:100FBE0073746174653200486F6C6454696D6500BA
:00000001FF
