:100000000C9462000C9434030C945B030C948A00EF
:100010000C948A000C948A000C948A000C948A0038
:100020000C948A000C948A000C948A000C948A0028
:100030000C948A000C948A000C948A000C948A0018
:100040000C9482030C948A000C9476060C94A806F7
:100050000C948A000C948A000C948A000C948A00F8
:100060000C948A000C948A00000000080002010031
:100070000003040700000000000000000102040863
:100080001020408001020408102001020408102002
:10009000040404040404040402020202020203032E
:1000A00003030303000000002300260029000000D2
:1000B0000000250028002B0000000000240027007D
:1000C0002A00D80611241FBECFEFD8E0DEBFCDBF77
:1000D00011E0A0E0B1E0EAE4F1E102C005900D9288
:1000E000AA33B107D9F721E0AAE3B1E001C01D921C
:1000F000AE3FB207E1F710E0C4ECD0E004C02297B5
:10010000FE010E949F08C23CD107C9F70E946B08FC
:100110000C94A3080C940000CF93DF9380910C0102
:100120000E940805EC0180910A010E940805FE0169
:10013000EE0FFF1FE82BF92B20915601309157014C
:10014000220F331F220F331F2E2B3F2B2D30310553
:1001500049F02430310531F02230310519F02B30CF
:100160003105A1F440915201509153016091540125
:10017000709155014F5F5F4F6F4F7F4F409352011A
:100180005093530160935401709355012E30310503
:1001900039F0C9010797029718F021303105A1F411
:1001A0004091520150915301609154017091550159
:1001B0004150510961097109409352015093530113
:1001C0006093540170935501F0935701E0935601E9
:1001D000DF91CF91089580914C0190914D01813034
:1001E0009105A1F0029709F0CAC140913C015091DC
:1001F0003D0160913E0170913F01809148019091D5
:100200004901A0914A01B0914B01A2C080915201D5
:1002100090915301A0915401B091550180933C01FC
:1002200090933D01A0933E01B0933F011092400195
:100230001092410110924201109243010E94CC039E
:100240006093440170934501809346019093470168
:100250008091400190914101A0914201B0914301F0
:1002600040914401509145016091460170914701D0
:10027000841B950BA60BB70B40910401509105010F
:10028000662757FD6095762F84179507A607B70751
:100290000CF043C00E94CC03609340017093410175
:1002A00080934201909343018091520190915301B8
:1002B000A0915401B0915501809348019093490158
:1002C000A0934A01B0934B0140913C0150913D01F4
:1002D00060913E0170913F0184179507A607B7070B
:1002E00009F4B6CF0E94CC0360934401709345019A
:1002F0008093460190934701809148019091490174
:10030000A0914A01B0914B0180933C0190933D0133
:10031000A0933E01B0933F019BCF809152019091F9
:100320005301A0915401B091550180933C019093E9
:100330003D01A0933E01B0933F018093480190930B
:100340004901A0934A01B0934B0182E090E013C1B0
:10035000481759076A077B0749F480915201909129
:100360005301A0915401B0915501F2CF80934801FF
:1003700090934901A0934A01B0934B01209102014F
:100380003091030184179507A607B7070CF04FC0FB
:100390002115310509F04BC00E94D803AB01BC0107
:1003A00040934E0150934F0160935001709351015F
:1003B0002AE030E081E691E00E94580861E08091F7
:1003C00008010E94D20460910601709107018827FC
:1003D00077FD8095982F0E94FB0360E080910801D3
:1003E0000E94D204409148015091490160914A0114
:1003F00070914B012AE030E081E691E00E943908DB
:1004000060913A0170913B016F5F7F4F70933B01A8
:1004100060933A014AE050E081E691E00E942108B1
:1004200081E090E0909303018093020198C0481707
:1004300059076A077B07B4F52130310599F50E9409
:10044000D803AB01BC0140934E0150934F01609320
:100450005001709351012AE030E081E691E00E9462
:10046000580861E0809108010E94D2046091060161
:1004700070910701882777FD8095982F0E94FB03D4
:1004800060E0809108010E94D20410920301109252
:100490000201409148015091490160914A017091D7
:1004A0004B0147C02230310509F059C00E94D803E2
:1004B000AB01BC0140934E0150934F01609350013A
:1004C000709351012AE030E081E691E00E945808E3
:1004D00061E0809108010E94D20460910601709150
:1004E0000701882777FD8095982F0E94FB0360E025
:1004F000809108010E94D204409148015091490125
:1005000060914A0170914B0121E030E080913C0103
:1005100090913D01A0913E01B0913F0148175907CC
:100520006A077B0714F020E030E03093030120934A
:1005300002012AE030E081E691E00E9439086091F2
:100540003A0170913B016F5F7F4F70933B01609365
:100550003A014AE050E081E691E00E9421080E94C1
:10056000CC036093440170934501809346019093BE
:10057000470181E090E090934D0180934C010895F4
:1005800060E0809100010E94990426E040E855E275
:1005900060E070E081E691E00E94140661E681E689
:1005A00091E00E94760781E691E00E944A0581363B
:1005B000D1F760E080910C010E94990460E0809185
:1005C0000A010E94990461E0809108010E94990447
:1005D00061E080910C010E94D20461E080910A01E7
:1005E0000E94D20441E050E06CE870E080E00E949C
:1005F000140341E050E06CE870E081E00E941403D5
:1006000064E670E080E090E00E94FB0362E171E04C
:1006100081E691E00E94640781E090E090934D01B3
:1006200080934C01089508958230E8F4E82FF0E0BB
:10063000EE0FFF1FE25FFE4F71836083813041F058
:10064000809169008C7F842B80936900E89A0895DB
:1006500080916900440F551F440F551F837F842BE1
:1006600080936900E99A08951F920F920FB60F9236
:1006700011242F933F934F935F936F937F938F93A7
:100680009F93AF93BF93EF93FF93E0910E01F0918F
:100690000F010995FF91EF91BF91AF919F918F91BC
:1006A0007F916F915F914F913F912F910F900FBE6E
:1006B0000F901F9018951F920F920FB60F92112452
:1006C0002F933F934F935F936F937F938F939F935A
:1006D000AF93BF93EF93FF93E0911001F09111015D
:1006E0000995FF91EF91BF91AF919F918F917F916C
:1006F0006F915F914F913F912F910F900FBE0F908F
:100700001F9018951F920F920FB60F9211242F93DE
:100710003F938F939F93AF93BF9380915901909193
:100720005A01A0915B01B0915C013091580123E026
:10073000230F2D3720F40196A11DB11D05C026E819
:10074000230F0296A11DB11D2093580180935901DA
:1007500090935A01A0935B01B0935C0180915D017D
:1007600090915E01A0915F01B09160010196A11D81
:10077000B11D80935D0190935E01A0935F01B093E2
:100780006001BF91AF919F918F913F912F910F90F9
:100790000FBE0F901F9018952FB7F89460915901D4
:1007A00070915A0180915B0190915C012FBF089577
:1007B0003FB7F89480915D0190915E01A0915F0137
:1007C000B091600126B5A89B05C02F3F19F0019696
:1007D000A11DB11D3FBF6627782F892F9A2F620F69
:1007E000711D811D911D42E0660F771F881F991FA3
:1007F0004A95D1F708958F929F92AF92BF92CF9270
:10080000DF92EF92FF926B017C010E94D8034B01B3
:100810005C01C114D104E104F104F1F00E947A08F2
:100820000E94D803681979098A099B09683E7340B8
:100830008105910570F321E0C21AD108E108F108A1
:1008400088EE880E83E0981EA11CB11CC114D1044F
:10085000E104F10429F7DDCFFF90EF90DF90CF9016
:10086000BF90AF909F908F900895789484B58260E8
:1008700084BD84B5816084BD85B5826085BD85B544
:10088000816085BDEEE6F0E0808181608083E1E8F3
:10089000F0E010828081826080838081816080832B
:1008A000E0E8F0E0808181608083E1EBF0E080812E
:1008B00084608083E0EBF0E0808181608083EAE700
:1008C000F0E0808184608083808182608083808189
:1008D000816080838081806880831092C100089548
:1008E000833081F028F4813099F08230A1F00895AE
:1008F0008730A9F08830B9F08430D1F4809180003D
:100900008F7D03C0809180008F7780938000089551
:1009100084B58F7702C084B58F7D84BD08958091A2
:10092000B0008F7703C08091B0008F7D8093B000BE
:100930000895CF93DF9390E0FC01E458FF4F24919A
:10094000FC01E057FF4F8491882349F190E0880F24
:10095000991FFC01E854FF4FA591B49182559F4F18
:10096000FC01C591D4919FB7611108C0F8948C9196
:10097000209582238C93888182230AC0623051F4AF
:10098000F8948C91322F309583238C938881822B1D
:10099000888304C0F8948C91822B8C939FBFDF9145
:1009A000CF9108950F931F93CF93DF931F92CDB7ED
:1009B000DEB7282F30E0F901E859FF4F8491F901A3
:1009C000E458FF4F1491F901E057FF4F04910023C1
:1009D000C9F0882321F069830E9470046981E02FA7
:1009E000F0E0EE0FFF1FE255FF4FA591B4919FB7C6
:1009F000F8948C91611103C01095812301C0812B63
:100A00008C939FBF0F90DF91CF911F910F9108950D
:100A1000CF93DF93282F30E0F901E859FF4F8491FD
:100A2000F901E458FF4FD491F901E057FF4FC49109
:100A3000CC2391F081110E947004EC2FF0E0EE0FB6
:100A4000FF1FEC55FF4FA591B4912C912D2381E010
:100A500090E021F480E002C080E090E0DF91CF914F
:100A60000895FC01818D228D90E0805C9F4F821B58
:100A700091098F7399270895FC01918D828D9817A4
:100A800031F0828DE80FF11D858D90E008958FEF94
:100A90009FEF0895FC01918D828D981761F0828DF2
:100AA000DF01A80FB11D5D968C91928D9F5F9F73A2
:100AB000928F90E008958FEF9FEF08958EEC96E06F
:100AC000892B49F080E090E0892B29F00E94CE0626
:100AD00081110C9400000895FC01848DDF01A80FA2
:100AE000B11DA35ABF4F2C91848D90E001968F7356
:100AF0009927848FA689B7892C93A089B1898C9175
:100B000080648C93938D848D981306C00288F3893A
:100B1000E02D80818F7D80830895CF93DF93EC015A
:100B2000888D8823C9F0EA89FB89808185FD05C00D
:100B3000A889B9898C9186FD0FC00FB607FCF5CF47
:100B4000808185FFF2CFA889B9898C9185FFEDCF8F
:100B5000CE010E946C05E7CFDF91CF910895CF922F
:100B6000DF92FF920F931F93CF93DF931F92CDB726
:100B7000DEB76C0181E0D60158968C9358975B964E
:100B80009C915B975C968C915C97981307C05096EC
:100B9000ED91FC915197808185FD2EC0F601038D6A
:100BA00010E00F5F1F4F0F731127F02EF601848D99
:100BB000F81211C00FB607FCF9CFD6015096ED918F
:100BC000FC915197808185FFF1CFC60169830E9416
:100BD0006C056981EBCF838DE80FF11DE35AFF4F60
:100BE0006083D6015B960C935B975296ED91FC91D6
:100BF0005397808180620CC0D6015696ED91FC918E
:100C0000579760835096ED91FC9151978081806455
:100C1000808381E090E00F90DF91CF911F910F9141
:100C2000FF90DF90CF900895BF92CF92DF92EF9226
:100C3000FF92CF93DF93EC016A017B01B22EE8892A
:100C4000F98982E08083411581EE580761057105BD
:100C5000A1F060E079E08DE390E0A70196010E94A9
:100C60007B0821503109410951095695479537951F
:100C70002795211580E1380798F0E889F9891082D5
:100C800060E874E88EE190E0A70196010E947B087D
:100C900021503109410951095695479537952795B6
:100CA000EC85FD853083EE85FF852083188EEC89E9
:100CB000FD89B082EA89FB89808180618083EA892D
:100CC000FB89808188608083EA89FB8980818068D4
:100CD0008083EA89FB8980818F7D8083DF91CF913A
:100CE000FF90EF90DF90CF90BF9008951F920F92EA
:100CF0000FB60F9211242F938F939F93EF93FF932F
:100D0000E0917101F09172018081E0917701F091A1
:100D1000780182FD12C0908180917A018F5F8F737C
:100D200020917B01821751F0E0917A01F0E0EF59B8
:100D3000FE4F958F80937A0101C08081FF91EF91E2
:100D40009F918F912F910F900FBE0F901F9018952C
:100D50001F920F920FB60F9211242F933F934F9330
:100D60005F936F937F938F939F93AF93BF93EF9313
:100D7000FF9381E691E00E946C05FF91EF91BF9196
:100D8000AF919F918F917F916F915F914F913F9123
:100D90002F910F900FBE0F901F90189581E691E054
:100DA0000E94310521E0892B09F420E0822F08956B
:100DB000109264011092630188EE93E0A0E0B0E02D
:100DC0008093650190936601A0936701B0936801D9
:100DD0008CE191E0909362018093610185EC90E059
:100DE00090936E0180936D0184EC90E0909370017C
:100DF00080936F0180EC90E0909372018093710179
:100E000081EC90E0909374018093730182EC90E008
:100E1000909376018093750186EC90E09093780131
:100E20008093770110927A0110927B0110927C01DD
:100E300010927D010895CF92DF92EF92FF920F936F
:100E40001F93CF93DF937C016A01EB0100E010E078
:100E50000C151D0571F06991D701ED91FC91019080
:100E6000F081E02DC7010995892B19F00F5F1F4F05
:100E7000EFCFC801DF91CF911F910F91FF90EF90BD
:100E8000DF90CF9008956115710581F0DB010D9021
:100E90000020E9F7AD0141505109461B570BDC0119
:100EA000ED91FC910280F381E02D099480E090E0C7
:100EB0000895DC01ED91FC910190F081E02D099401
:100EC00068E271E00C9443070F931F93CF93DF9375
:100ED000EC010E9443078C01CE010E946007800F45
:100EE000911FDF91CF911F910F9108950F931F9341
:100EF000CF93DF93EC010E9459078C01CE010E9431
:100F00006007800F911FDF91CF911F910F9108957E
:100F10008F929F92AF92BF92DF92EF92FF920F93C8
:100F20001F93CF93DF93CDB7DEB7A1970FB6F89499
:100F3000DEBF0FBECDBF7C01F42FD52ECB0119A291
:100F4000223008F42AE08E010F5D1F4F822E912C73
:100F5000A12CB12C6F2F7D2DA50194010E947B083F
:100F6000F22FD32ECA01015011096A3014F4E0E3C4
:100F700001C0E7E3E60FD801EC93232B242B252BAC
:100F800049F7B801C7010E944307A1960FB6F8942C
:100F9000DEBF0FBECDBFDF91CF911F910F91FF90AC
:100FA000EF90DF90BF90AF909F908F900895CF9279
:100FB000DF92EF92FF920F931F93CF93DF93EC0199
:100FC0006A017B012115310579F4E881F9810190ED
:100FD000F081E02D642FDF91CF911F910F91FF9051
:100FE000EF90DF90CF9009942A303105E9F477FF34
:100FF0001AC06DE20E9459078C0144275527BA0197
:101000004C195D096E097F092AE0CE010E9488070C
:10101000800F911FDF91CF911F910F91FF90EF9063
:10102000DF90CF9008952AE0B701A601CE01DF91AD
:10103000CF911F910F91FF90EF90DF90CF900C9484
:1010400088070F931F93CF93DF93EC019A01AB01B5
:10105000662757FD6095762F0E94D7078C01CE0139
:101060000E946007800F911FDF91CF911F910F9118
:1010700008950F931F93CF93DF93EC010E94D7073E
:101080008C01CE010E946007800F911FDF91CF91EC
:101090001F910F9108952115310541F4DC01ED9167
:1010A000FC910190F081E02D642F09940C94880745
:1010B0000F931F93CF93DF93EC010E944B088C0199
:1010C000CE010E946007800F911FDF91CF911F9189
:1010D0000F91089508950E9435040E946A080E94A5
:1010E000C002CEE5D5E00E94EB002097E1F30E941C
:1010F0005E05F9CF0895A1E21A2EAA1BBB1BFD01C4
:101100000DC0AA1FBB1FEE1FFF1FA217B307E407E6
:10111000F50720F0A21BB30BE40BF50B661F771F3E
:10112000881F991F1A9469F760957095809590951E
:101130009B01AC01BD01CF010895EE0FFF1F05908B
:0A114000F491E02D0994F894FFCF1C
:10114A0005000200E803320009000300020013034D
:10115A00130373746172740000000000AF051B076B
:10116A0031054A053C058D050D0A006E616E006960
:0A117A006E66006F7666002E00001E
:00000001FF
