:100000000C9462000C9432050C940B050C948A003D
:100010000C948A000C948A000C948A000C948A0038
:100020000C948A000C948A000C948A000C948A0028
:100030000C948A000C948A000C948A000C948A0018
:100040000C94C1040C948A000C948F040C946904E1
:100050000C948A000C948A000C948A000C948A00F8
:100060000C948A000C948A000000000024002700F1
:100070002A0000000000250028002B0000000000DE
:1000800023002600290004040404040404040202DA
:100090000202020203030303030301020408102007
:1000A0004080010204081020010204081020000012
:1000B0000008000201000003040700000000000027
:1000C0000000EC0811241FBECFEFD8E0DEBFCDBF8B
:1000D00011E0A0E0B1E0EAECF3E102C005900D927E
:1000E000AE35B107D9F722E0AEE5B1E001C01D920F
:1000F000AC32B207E1F710E0C2E6D0E004C02197CD
:10010000FE010E94D809C136D107C9F70E945905DE
:100110000C94E3090C940000CF92DF92EF92FF92CF
:100120000F931F93CF93DF936C017A018B01C0E093
:10013000D0E0CE15DF0589F0D8016D918D01D60193
:10014000ED91FC910190F081E02DC6010995892B7C
:1001500011F47E0102C02196ECCFC701DF91CF914F
:100160001F910F91FF90EF90DF90CF900895FC01C9
:10017000918D828D981761F0828DDF01A80FB11DDE
:100180005D968C91928D9F5F9F73928F90E0089502
:100190008FEF9FEF0895FC01918D828D981731F0BC
:1001A000828DE80FF11D858D90E008958FEF9FEF10
:1001B0000895FC01918D228D892F90E0805C9F4FE6
:1001C000821B91098F73992708958FE891E00E940F
:1001D000D90021E0892B09F420E0822F0895FC0149
:1001E000848DDF01A80FB11DA35ABF4F2C91848DC0
:1001F00090E001968F739927848FA689B7892C93F5
:10020000A089B1898C9180648C93938D848D98138F
:1002100006C00288F389E02D80818F7D8083089558
:10022000EF92FF920F931F93CF93DF93EC0181E046
:10023000888F9B8D8C8D981305C0E889F989808102
:1002400085FD24C0F62E0B8D10E00F5F1F4F0F733E
:100250001127E02E8C8DE8120CC00FB607FCFACFE8
:10026000E889F989808185FFF5CFCE010E94EF00F2
:10027000F1CF8B8DFE01E80FF11DE35AFF4FF082A5
:100280000B8FEA89FB898081806207C0EE89FF8934
:100290006083E889F98980818064808381E090E0CF
:1002A000DF91CF911F910F91FF90EF900895CF9321
:1002B000DF93EC01888D8823C9F0EA89FB8980816E
:1002C00085FD05C0A889B9898C9186FD0FC00FB640
:1002D00007FCF5CF808185FFF2CFA889B9898C9181
:1002E00085FFEDCFCE010E94EF00E7CFDF91CF91E8
:1002F000089580E090E0892B29F00E94E5008111AB
:100300000C9400000895833081F028F4813099F036
:100310008230A1F008958730A9F08830B9F0843098
:10032000D1F4809180008F7D03C0809180008F7711
:1003300080938000089584B58F7702C084B58F7D47
:1003400084BD08958091B0008F7703C08091B00084
:100350008F7D8093B0000895CF93DF93282F30E0F6
:10036000F901E255FF4F8491F901E656FF4FD49110
:10037000F901EA57FF4FC491CC2391F081110E94FB
:100380008301EC2FF0E0EE0FFF1FE458FF4FA59123
:10039000B491EC91ED2381E090E021F480E002C083
:1003A00080E090E0DF91CF910895CF93DF9382E0DA
:1003B0000E94AC01EC0183E00E94AC01CC0FDD1F78
:1003C0008C2B9D2B20915E0130915F01220F331FFA
:1003D000220F331F282B392B2D30310549F02430C3
:1003E000310531F02230310519F02B303105A1F4FF
:1003F00040918701509188016091890170918A0133
:100400004F5F5F4F6F4F7F4F40938701509388013D
:100410006093890170938A012E30310549F0A9015A
:10042000475051094230510518F021303105A1F4EF
:1004300040918701509188016091890170918A01F2
:100440004150510961097109409387015093880116
:100450006093890170938A0190935F0180935E019C
:10046000DF91CF9108951F93CF93DF93282F30E032
:10047000F901E255FF4F8491F901E656FF4FD491FF
:10048000F901EA57FF4FC491CC23C9F0162F81110F
:100490000E948301EC2FF0E0EE0FFF1FEE58FF4F9C
:1004A000A591B4918FB7F894111105C09C91ED2FCF
:1004B000E095E92302C0EC91ED2BEC938FBFDF9127
:1004C000CF911F910895CF93DF9390E0FC01E65602
:1004D000FF4F2491FC01EA57FF4F8491882361F17B
:1004E00090E0880F991FFC01E859FF4FC591D49106
:1004F000FC01EE58FF4FA591B491611109C09FB75F
:10050000F8948881209582238883EC912E230BC058
:10051000623061F49FB7F8943881822F80958323ED
:100520008883EC912E2B2C939FBF06C08FB7F89435
:10053000E8812E2B28838FBFDF91CF9108953FB79D
:10054000F8948091650190916601A0916701B09146
:10055000680126B5A89B05C02F3F19F00196A11D83
:10056000B11D3FBFBA2FA92F982F8827820F911D49
:10057000A11DB11DBC01CD0142E0660F771F881F90
:10058000991F4A95D1F708958F929F92AF92BF928B
:10059000CF92DF92EF92FF926B017C010E949F024B
:1005A0004B015C01C114D104E104F104F1F00E949B
:1005B0009F02DC01CB0188199909AA09BB09883E71
:1005C0009340A105B10570F321E0C21AD108E108FA
:1005D000F10888EE880E83E0981EA11CB11CC1149E
:1005E000D104E104F10419F7DDCFFF90EF90DF9023
:1005F000CF90BF90AF909F908F9008952FB7F894B1
:100600006091610170916201809163019091640138
:100610002FBF08950F931F930E94FE0260939701CE
:10062000709398018093990190939A01E0918F01C2
:10063000F09190010084F185E02D8FE891E009951B
:1006400097FF1FC00E94FE02009197011091980130
:100650002091990130919A01DC01CB01801B910B13
:10066000A20BB30B0091930110919401209195017D
:100670003091960180179107A207B307B8F28FEF68
:100680009FEF1F910F910895FF920F931F93CF93A8
:10069000DF9300D000D0CDB7DEB70E940A03FC0183
:1006A00097FD11C08D32910591F0C0970A9778F0AF
:1006B000E0918F01F09190010680F781E02D8FE8A5
:1006C00091E00995EACF60E070E0CB014CC020E0FA
:1006D00030E0A901F12CE130F105F1F0ED32F10546
:1006E000C9F0CF01C0970A97B8F4AAE0B0E00E9421
:1006F00094098F01FF0F220B330BDC01CB01800F1C
:10070000911FA21FB31F9C01AD0120533109410964
:10071000510902C0FF24F394E0918F01F091900100
:100720000680F781E02D8FE891E029833A834B839F
:100730005C8309950E940A03FC01C09729813A81D4
:100740004B815C810A9738F2E130F10521F2FF20FC
:1007500041F066277727CB01621B730B840B950B47
:1007600002C0CA01B9010F900F900F900F90DF9156
:10077000CF911F910F91FF9008950895009769F010
:10078000FC0101900020E9F73197AF01481B590B9C
:10079000BC018FE891E00C948C0080E090E008951B
:1007A000CF93DF930E94BE03EC0182E291E00E94AE
:1007B000BE038C0F9D1FDF91CF9108958F929F9262
:1007C000AF92BF920F931F93CF93DF93CDB7DEB756
:1007D000A1970FB6F894DEBF0FBECDBF19A242306D
:1007E00008F44AE08E010F5D1F4F842E912CA12C3E
:1007F000B12CA50194010E94A709E62FB901CA01F5
:1008000001501109EA3014F4E05D01C0E95CD8013F
:10081000EC93232B242B252B61F7C8010E94BE03E8
:10082000A1960FB6F894DEBF0FBECDBFDF91CF917A
:100830001F910F91BF90AF909F908F900895CF928E
:10084000DF92EF92FF92CF93DF936C01990FEE0846
:10085000FF08F7FE1AC0E0918F01F091900101901E
:10086000F081E02D6DE28FE891E00995EC016627BB
:100870007727CB016C197D098E099F094AE00E94F8
:10088000DE037C01EC0EFD1E06C04AE0C701B60186
:100890000E94DE037C0182E291E00E94BE038E0D85
:1008A0009F1DDF91CF91FF90EF90DF90CF90089543
:1008B000CF93DF934AE00E94DE03EC0182E291E0F5
:1008C0000E94BE038C0F9D1FDF91CF9108950E945F
:1008D000DE091F920F920FB60F9211242F933F93B0
:1008E0004F935F936F937F938F939F93AF93BF9338
:1008F000EF93FF938FE891E00E94EF00FF91EF915B
:10090000BF91AF919F918F917F916F915F914F9127
:100910003F912F910F900FBE0F901F9018951F922F
:100920000F920FB60F9211242F938F939F93EF93F3
:10093000FF93E0919F01F091A0018081E091A501DA
:10094000F091A60182FD12C090818091A8018F5F75
:100950008F732091A901821751F0E091A801F0E076
:10096000E157FE4F958F8093A80101C08081FF91D0
:10097000EF919F918F912F910F900FBE0F901F902D
:1009800018951F920F920FB60F9211242F933F9339
:100990008F939F93AF93BF93809161019091620178
:1009A000A0916301B09164013091600123E0230FB5
:1009B0002D3720F40196A11DB11D05C026E8230F97
:1009C0000296A11DB11D2093600180936101909357
:1009D0006201A0936301B0936401809165019091DD
:1009E0006601A0916701B09168010196A11DB11D3A
:1009F0008093650190936601A0936701B0936801AD
:100A0000BF91AF919F918F913F912F910F900FBE0A
:100A10000F901F9018951F920F920FB60F921124EE
:100A20002F933F934F935F936F937F938F939F93F6
:100A3000AF93BF93EF93FF93E0910201F091030115
:100A40000995FF91EF91BF91AF919F918F917F9108
:100A50006F915F914F913F912F910F900FBE0F902B
:100A60001F9018951F920F920FB60F9211242F937B
:100A70003F934F935F936F937F938F939F93AF9326
:100A8000BF93EF93FF93E0910001F091010109956D
:100A9000FF91EF91BF91AF919F918F917F916F9156
:100AA0005F914F913F912F910F900FBE0F901F902C
:100AB0001895CF93DF9300D000D000D0CDB7DEB72C
:100AC000789484B5826084BD84B5816084BD85B529
:100AD000826085BD85B5816085BD80916E00816035
:100AE00080936E00109281008091810082608093DB
:100AF00081008091810081608093810080918000DD
:100B00008160809380008091B10084608093B10007
:100B10008091B00081608093B00080917A00846001
:100B200080937A0080917A00826080937A0080912D
:100B30007A00816080937A0080917A008068809347
:100B40007A001092C10060E085E00E946302E091AB
:100B50009F01F091A00182E08083E0919B01F091E0
:100B60009C011082E0919D01F0919E018FEC8083A9
:100B70001092A701E091A301F091A40186E0808387
:100B8000E091A101F091A201808180618083E091D8
:100B9000A101F091A201808188608083E091A10190
:100BA000F091A201808180688083E091A101F091A1
:100BB000A20180818F7D80838FE891E00E945701A0
:100BC000E0918F01F09190010190F081E02D61E6BC
:100BD0008FE891E0099582E291E00E94BE038FE8E0
:100BE00091E00E94B7008136D1F78FE891E00E9432
:100BF000570100E010E06801CC0CDD1CE12CF12C69
:100C00008FE891E00E94D90018161906A4F70E94F7
:100C10004403F701EC0DFD1D21E030E02C0F3D1FDA
:100C2000E20FF31F718360830F5F1F4F32E0E30E0B
:100C3000F11C0330110524F3C980DA80D09207013A
:100C4000C0920601EB80FC80F0920501E092040165
:100C50000D811E81109309010093080185E291E046
:100C60000E94BE03C6010E941F048EE291E00E9412
:100C7000BE03C7010E941F0486E391E00E94BE03E9
:100C8000C8010E941F0460E082E00E94630260E0ED
:100C900083E00E94630261E089E00E94630261E0F8
:100CA00082E00E94330261E083E00E94330225ED7E
:100CB00031E03093010120930001809169008C7F25
:100CC000816080936900E89A3093030120930201C8
:100CD00080916900837F846080936900E99A64E66B
:100CE00070E080E090E00E94C40280E491E00E9405
:100CF000D00381E090E090938E0180938D0194E089
:100D0000292E312C24EF422E55245394612C712C22
:100D100032E0A32EB12C43E0842E912C80918D01E2
:100D200090918E018330910509F4EEC054F5813025
:100D3000910509F442C0029709F04BC280918701E6
:100D400090918801A0918901B0918A0180938301DB
:100D500090938401A0938501B093860110927F0146
:100D60001092800110928101109282010E94FE0275
:100D700060937B0170937C0180937D0190937E0151
:100D800084C08430910509F402C1059709F021C29D
:100D90001092690110926A0110926B0110926C011D
:100DA0000E94FE026B017C0160937B0170937C01C9
:100DB00080937D0190937E01DCC18FE891E00E94D9
:100DC000D900181619060CF004C20E94440370934F
:100DD0000D0160930C010E94440370930B0160931A
:100DE0000A0180910C0190910D010E941F040E9444
:100DF0006709A30192010E947509DC01CB018851AA
:100E00009C4FAF4FBF4F90938C0180938B01B0925A
:100E10008E01A0928D01DDC10E94FE0260937F01D0
:100E2000709380018093810190938201C09087012B
:100E3000D0908801E0908901F0908A01C0927701FA
:100E4000D0927801E0927901F0927A018091830149
:100E500090918401A0918501B0918601C816D906B0
:100E6000EA06FB0691F00E94FE0260937B017093FC
:100E70007C0180937D0190937E01C0928301D0928A
:100E80008401E0928501F092860140917F015091AA
:100E90008001609181017091820180917B0190912C
:100EA0007C01A0917D01B0917E01481B590B6A0B1A
:100EB0007B0B80918B0190918C01092E000CAA0B69
:100EC000BB0B481759076A077B070CF4A5CF0E9494
:100ED0009F026093730170937401809375019093E6
:100EE000760186E491E00E94D003609173017091D5
:100EF000740180917501909176010E94580490923E
:100F00008E0180928D0165C185E00E94AC019093B5
:100F1000720180937101019709F05BC10E949F02E9
:100F200060937301709374018093750190937601BF
:100F30000E9458048091710190917201019741F4CF
:100F400085E00E94AC019093720180937101F2CF11
:100F50008091710190917201892B41F485E00E948A
:100F6000AC019093720180937101F2CF0E949F02B5
:100F7000609373017093740180937501909376016F
:100F80000E94580430928E0120928D0122C181E589
:100F900091E00E94D00340918701509188016091B7
:100FA000890170918A014093830150938401609379
:100FB0008501709386014093770150937801609387
:100FC000790170937A01E0910801F09109016A01B9
:100FD0007B0180E090E09C0197FF04C0222733272B
:100FE000281B390B2E173F0764F4C0908701D0905F
:100FF0008801E0908901F0908A01C601841B950B5D
:10100000EACFC0927701D0927801E0927901F09214
:101010007A019093700180936F0197FF58C00E94EE
:101020009F02609373017093740180937501909394
:1010300076010E94580480916F01909170010E9486
:101040001F0480910C0190910D0121E081309105E8
:1010500009F020E040910A0150910B014130510507
:1010600049F4222339F080E090E00E941F0485E0DB
:1010700090E0ABC0452B29F4222319F080E090E0EA
:1010800023C08336910549F40E94670910926E01CE
:1010900010926D0183E690E017C0029709F099C0A5
:1010A00061E089E00E9433026091060170910701BE
:1010B000072E000C880B990B0E94C40260E089E0A7
:1010C0000E94330281E090E00E941F0478C0892BC7
:1010D00009F47FC00E949F026093730170937401B2
:1010E00080937501909376010E94580480916F015E
:1010F000909170010E941F0400910C0110910D014C
:1011000081E00230110509F080E020910A01309160
:101110000B012130310511F48111A5CF232B11F4DE
:101120008111ACCF0336110509F4AECF01301105A2
:1011300009F04FC061E089E00E943302609106012E
:1011400070910701072E000C880B990B0E94C402B6
:1011500060E089E00E94330281E090E00E941F0479
:1011600080E491E00E94D00310938E0100938D01E2
:1011700030C08091690190916A01A0916B01B0919A
:101180006C01AC01BD014C195D096E097F098091AC
:10119000040190910501092E000CAA0BBB0B481706
:1011A00059076A077B075CF40E94FE02609369019D
:1011B00070936A0180936B0190936C01DACF80E4A5
:1011C00091E00E94D00381E090E090938E018093A3
:1011D0008D010E947901A2CDEFE8F1E01382128225
:1011E00088EE93E0A0E0B0E084839583A683B78384
:1011F00086E191E09183808385EC90E095878487F8
:1012000084EC90E09787868780EC90E0918B808BD0
:1012100081EC90E0938B828B82EC90E0958B848BB9
:1012200086EC90E0978B868B118E128E138E148E27
:1012300008958F929F92AF92BF92CF92DF92EF92DA
:10124000FF92CF93DF93EC01688179818A819B8142
:10125000611571058105910521F464E279ED8BE555
:1012600097E02DE133EF41E050E00E94750949011C
:101270005A019B01AC01A7EAB1E40E9494096B01F9
:101280007C01ACEEB4EFA50194010E94A209DC013F
:10129000CB018C0D9D1DAE1DBF1DB7FF03C0019777
:1012A000A109B04888839983AA83BB83BC01CD017F
:1012B0009F77DF91CF91FF90EF90DF90CF90BF901D
:1012C000AF909F908F9008950E94190908958EE025
:1012D00091E00E941909089560930E0170930F0127
:1012E00080931001909311010895052E97FB1EF431
:1012F00000940E948C0957FD07D00E94A70907FCA3
:1013000003D04EF40C948C0950954095309521955E
:101310003F4F4F4F5F4F0895909580957095619521
:101320007F4F8F4F9F4F08950E94C909A59F900D31
:10133000B49F900DA49F800D911D11240895B7FFB7
:101340000C9494090E949409821B930B0895A1E2C6
:101350001A2EAA1BBB1BFD010DC0AA1FBB1FEE1F2F
:10136000FF1FA217B307E407F50720F0A21BB30B7A
:10137000E40BF50B661F771F881F991F1A9469F7F6
:1013800060957095809590959B01AC01BD01CF0152
:101390000895A29FB001B39FC001A39F700D811D4E
:1013A0001124911DB29F700D811D1124911D08956E
:1013B000EE0FFF1F0590F491E02D099481E090E07D
:0A13C000F8940C94E309F894FFCFB1
:1013CA00BD03BD03881332000500010002000100BD
:1013DA0000000000000010018C00D900B700CB000B
:1013EA0057010D0A0052455754494D452000544FA4
:1013FA0054494D4520004445424F554E434520002F
:10140A007374617274006D6F7573655374696C6C73
:0E141A000077616974466F725265737000004E
:00000001FF
