:100000000C9462000C94CF030C94F6030C948A00B9
:100010000C948A000C948A000C948A000C948A0038
:100020000C948A000C948A000C948A000C948A0028
:100030000C948A000C948A000C948A000C948A0018
:100040000C941D040C948A000C9411070C94430723
:100050000C948A000C948A000C948A000C948A00F8
:100060000C948A000C948A00000000080002010031
:100070000003040700000000000000000102040863
:100080001020408001020408102001020408102002
:10009000040404040404040402020202020203032E
:1000A00003030303000000002300260029000000D2
:1000B0000000250028002B0000000000240027007D
:1000C0002A00730711241FBECFEFD8E0DEBFCDBFDB
:1000D00011E0A0E0B1E0E8E1F4E102C005900D928A
:1000E000A435B107D9F722E0A4E5B1E001C01D9223
:1000F000A232B207E1F710E0C4ECD0E004C02297CE
:10010000FE010E949209C23CD107C9F70E9434093E
:100110000C940A0A0C940000CF93DF938091100195
:100120000E94A305EC0180910E010E94A305FE012F
:10013000EE0FFF1FE82BF92B209178013091790108
:10014000220F331F220F331F2E2B3F2B2D30310553
:1001500049F02430310531F02230310519F02B30CF
:100160003105A1F4409174015091750160917601BF
:10017000709177014F5F5F4F6F4F7F4F40937401D6
:100180005093750160937601709377012E3031059D
:1001900039F0C9010797029718F021303105A1F411
:1001A00040917401509175016091760170917701D1
:1001B00041505109610971094093740150937501CF
:1001C0006093760170937701F0937901E093780161
:1001D000DF91CF91089560E080910A010E9434057B
:1001E00026E040E855E260E070E085E891E00E949A
:1001F000AF0661E685E891E00E94110885E891E08C
:100200000E94E5058136D1F760E0809110010E94DF
:10021000340560E080910E010E94340561E0809118
:100220000C010E94340561E0809110010E946D056F
:1002300061E080910E010E946D0541E050E06CE8A4
:1002400070E080E00E94AF0341E050E06CE870E0B5
:1002500081E00E94AF0364E670E080E090E00E94DD
:10026000960466E171E085E891E00E94FF0781E075
:1002700090E090936D0180936C010895CF93DF938C
:1002800080916C0190916D018330910509F4F1C06A
:1002900054F58130910509F440C0029709F05BC222
:1002A0008091740190917501A0917601B0917701D0
:1002B0008093540190935501A0935601B093570138
:1002C00010925E0110925F01109260011092610124
:1002D0000E946704609362017093630180936401DC
:1002E0009093650183C08430910509F412C105978C
:1002F00009F031C210925A0110925B0110925C0118
:1003000010925D010E946704609362017093630123
:100310008093640190936501E6C185E891E00E94B5
:10032000CC05181619060CF016C285E891E00E945B
:10033000E50590935901809358014AE050E0BC01D3
:1003400085E891E00E94BC082CED35E040E050E0EB
:1003500068EE73E080E090E00E94170970937B01E3
:1003600060937A0182E090E0F2C10E94670460939A
:100370005E0170935F0180936001909361018091B1
:10038000740190917501A0917601B09177018093ED
:10039000660190936701A0936801B0936901409151
:1003A0005401509155016091560170915701841785
:1003B0009507A607B707D1F00E9467046093620112
:1003C000709363018093640190936501809166014D
:1003D00090916701A0916801B091690180935401E7
:1003E00090935501A0935601B093570180915E01FF
:1003F00090915F01A0916001B09161014091620113
:10040000509163016091640170916501841B950BAB
:10041000A60BB70B40917A0150917B01662757FDDF
:100420006095762F84179507A607B7070CF49DCF24
:100430000E94730460936E0170936F01809370014A
:10044000909371016CE171E085E891E00E94FF07F3
:1004500040916E0150916F01609170017091710136
:100460002AE030E085E891E00E94E10883E090E036
:100470006EC180910A010E94A30590936B01809345
:100480006A01019709F067C10E947304AB01BC01C6
:1004900040936E0150936F016093700170937101EE
:1004A0002AE030E085E891E00E94E10880916A014D
:1004B00090916B01019749F480910A010E94A30574
:1004C00090936B0180936A01F1CF80916A019091C2
:1004D0006B01892B49F480910A010E94A305909336
:1004E0006B0180936A01F1CF0E947304AB01BC01E0
:1004F00040936E0150936F0160937001709371018E
:100500002AE030E085E891E00E94E10884E090E094
:100510001EC167E271E085E891E00E94FF078091CB
:10052000740190917501A0917601B091770180934B
:10053000540190935501A0935601B09357018093B5
:10054000660190936701A0936801B0936901C0911F
:100550000801D0910901AC01BD0120E030E0F901B2
:1005600037FF04C0EE27FF27E21BF30BEC17FD0754
:1005700064F440917401509175016091760170911D
:1005800077019A01281B390BEACF409366015093FB
:100590006701609368017093690130937301209340
:1005A000720137FF4EC00E947304AB01BC0140933F
:1005B0006E0150936F0160937001709371012AE096
:1005C00030E085E891E00E94E1086091720170914D
:1005D00073014AE050E085E891E00E94BC088091F8
:1005E0005801909159018130910559F44AE050E049
:1005F00060E070E085E891E00E94BC0885E090E052
:10060000A6C0029709F0A7C061E080910C010E948A
:100610006D056091040170910501882777FD809533
:10062000982F0E94960460E080910C010E946D0555
:100630004AE050E061E070E085E891E00E94BC088B
:100640007EC0232B09F487C00E947304AB01BC0158
:1006500040936E0150936F0160937001709371012C
:100660002AE030E085E891E00E94E10860917201A3
:10067000709173014AE050E085E891E00E94BC0867
:10068000C0915801D0915901C230D10509F4AECFC3
:10069000C130D10509F05FC061E080910C010E947A
:1006A0006D056091040170910501882777FD8095A3
:1006B000982F0E94960460E080910C010E946D05C5
:1006C0004AE050E061E070E085E891E00E94BC08FB
:1006D00066E171E085E891E00E94FF07D0936D012B
:1006E000C0936C0138C080915A0190915B01A09138
:1006F0005C01B0915D014091620150916301609194
:10070000640170916501841B950BA60BB70B40919A
:10071000060150910701662757FD6095762F8417D3
:100720009507A607B7075CF40E94670460935A0117
:1007300070935B0180935C0190935D01D4CF66E17F
:1007400071E085E891E00E94FF0781E090E09093DE
:100750006D0180936C01DF91CF91089508958230EF
:10076000E8F4E82FF0E0EE0FFF1FEE5EFE4F71831E
:100770006083813041F0809169008C7F842B80936D
:100780006900E89A089580916900440F551F440F4D
:10079000551F837F842B80936900E99A08951F92E7
:1007A0000F920FB60F9211242F933F934F935F93A5
:1007B0006F937F938F939F93AF93BF93EF93FF9329
:1007C000E0911201F09113010995FF91EF91BF9112
:1007D000AF919F918F917F916F915F914F913F91D9
:1007E0002F910F900FBE0F901F9018951F920F9290
:1007F0000FB60F9211242F933F934F935F936F93F4
:100800007F938F939F93AF93BF93EF93FF93E09169
:100810001401F09115010995FF91EF91BF91AF91EE
:100820009F918F917F916F915F914F913F912F9108
:100830000F900FBE0F901F9018951F920F920FB63A
:100840000F9211242F933F938F939F93AF93BF9356
:1008500080917D0190917E01A0917F01B0918001F6
:1008600030917C0123E0230F2D3720F40196A11D48
:10087000B11D05C026E8230F0296A11DB11D2093CE
:100880007C0180937D0190937E01A0937F01B093C2
:1008900080018091810190918201A0918301B091AA
:1008A00084010196A11DB11D809381019093820165
:1008B000A0938301B0938401BF91AF919F918F91D9
:1008C0003F912F910F900FBE0F901F9018952FB74B
:1008D000F89460917D0170917E0180917F019091EB
:1008E00080012FBF08953FB7F894809181019091C6
:1008F0008201A0918301B091840126B5A89B05C017
:100900002F3F19F00196A11DB11D3FBF6627782F1B
:10091000892F9A2F620F711D811D911D42E0660F74
:10092000771F881F991F4A95D1F708958F929F923C
:10093000AF92BF92CF92DF92EF92FF926B017C0158
:100940000E9473044B015C01C114D104E104F10461
:10095000F1F00E9443090E947304681979098A0919
:100960009B09683E73408105910570F321E0C21A2E
:10097000D108E108F10888EE880E83E0981EA11CDA
:10098000B11CC114D104E104F10429F7DDCFFF90BB
:10099000EF90DF90CF90BF90AF909F908F90089591
:1009A000789484B5826084BD84B5816084BD85B54A
:1009B000826085BD85B5816085BDEEE6F0E0808111
:1009C00081608083E1E8F0E0108280818260808332
:1009D000808181608083E0E8F0E0808181608083B5
:1009E000E1EBF0E0808184608083E0EBF0E08081E7
:1009F00081608083EAE7F0E0808184608083808189
:100A00008260808380818160808380818068808330
:100A10001092C1000895833081F028F4813099F05C
:100A20008230A1F008958730A9F08830B9F0843081
:100A3000D1F4809180008F7D03C0809180008F77FA
:100A400080938000089584B58F7702C084B58F7D30
:100A500084BD08958091B0008F7703C08091B0006D
:100A60008F7D8093B0000895CF93DF9390E0FC01D9
:100A7000E458FF4F2491FC01E057FF4F84918823F5
:100A800049F190E0880F991FFC01E854FF4FA591B0
:100A9000B49182559F4FFC01C591D4919FB76111CC
:100AA00008C0F8948C91209582238C9388818223AE
:100AB0000AC0623051F4F8948C91322F3095832320
:100AC0008C938881822B888304C0F8948C91822B2C
:100AD0008C939FBFDF91CF9108950F931F93CF9376
:100AE000DF931F92CDB7DEB7282F30E0F901E85928
:100AF000FF4F8491F901E458FF4F1491F901E05739
:100B0000FF4F04910023C9F0882321F069830E94DC
:100B10000B056981E02FF0E0EE0FFF1FE255FF4F5C
:100B2000A591B4919FB7F8948C91611103C0109571
:100B3000812301C0812B8C939FBF0F90DF91CF91B8
:100B40001F910F910895CF93DF93282F30E0F90183
:100B5000E859FF4F8491F901E458FF4FD491F9010E
:100B6000E057FF4FC491CC2391F081110E940B05F7
:100B7000EC2FF0E0EE0FFF1FEC55FF4FA591B49165
:100B80002C912D2381E090E021F480E002C080E0F0
:100B900090E0DF91CF910895FC01818D228D90E04E
:100BA000805C9F4F821B91098F7399270895FC01E8
:100BB000918D828D981731F0828DE80FF11D858D12
:100BC00090E008958FEF9FEF0895FC01918D828D45
:100BD000981761F0828DDF01A80FB11D5D968C9191
:100BE000928D9F5F9F73928F90E008958FEF9FEF9C
:100BF000089589E697E0892B49F080E090E0892B01
:100C000029F00E94690781110C9400000895FC01ED
:100C1000848DDF01A80FB11DA35ABF4F2C91848D85
:100C200090E001968F739927848FA689B7892C93BA
:100C3000A089B1898C9180648C93938D848D981355
:100C400006C00288F389E02D80818F7D808308951E
:100C5000CF93DF93EC01888D8823C9F0EA89FB8963
:100C6000808185FD05C0A889B9898C9186FD0FC05A
:100C70000FB607FCF5CF808185FFF2CFA889B9892F
:100C80008C9185FFEDCFCE010E940706E7CFDF9163
:100C9000CF910895CF92DF92FF920F931F93CF933E
:100CA000DF931F92CDB7DEB76C0181E0D601589675
:100CB0008C9358975B969C915B975C968C915C9714
:100CC000981307C05096ED91FC915197808185FD56
:100CD0002EC0F601038D10E00F5F1F4F0F73112719
:100CE000F02EF601848DF81211C00FB607FCF9CF73
:100CF000D6015096ED91FC915197808185FFF1CFFF
:100D0000C60169830E9407066981EBCF838DE80FD6
:100D1000F11DE35AFF4F6083D6015B960C935B97FE
:100D20005296ED91FC915397808180620CC0D60160
:100D30005696ED91FC91579760835096ED91FC91FA
:100D4000519780818064808381E090E00F90DF91F3
:100D5000CF911F910F91FF90DF90CF900895BF9298
:100D6000CF92DF92EF92FF92CF93DF93EC016A0173
:100D70007B01B22EE889F98982E08083411581EEFA
:100D8000580761057105A1F060E079E08DE390E01E
:100D9000A70196010E9444092150310941095109D6
:100DA0005695479537952795211580E1380798F096
:100DB000E889F989108260E874E88EE190E0A70183
:100DC00096010E9444092150310941095109569563
:100DD000479537952795EC85FD853083EE85FF8512
:100DE0002083188EEC89FD89B082EA89FB89808195
:100DF00080618083EA89FB89808188608083EA89B9
:100E0000FB89808180688083EA89FB8980818F7D6E
:100E10008083DF91CF91FF90EF90DF90CF90BF90D4
:100E200008951F920F920FB60F9211242F938F9354
:100E30009F93EF93FF93E0919501F091960180814C
:100E4000E0919B01F0919C0182FD12C09081809104
:100E50009E018F5F8F7320919F01821751F0E09167
:100E60009E01F0E0EB57FE4F958F80939E0101C0ED
:100E70008081FF91EF919F918F912F910F900FBEE5
:100E80000F901F9018951F920F920FB60F9211247A
:100E90002F933F934F935F936F937F938F939F9382
:100EA000AF93BF93EF93FF9385E891E00E9407060D
:100EB000FF91EF91BF91AF919F918F917F916F9132
:100EC0005F914F913F912F910F900FBE0F901F9008
:100ED000189585E891E00E94CC0521E0892B09F462
:100EE00020E0822F0895109288011092870188EEE9
:100EF00093E0A0E0B0E08093890190938A01A093F1
:100F00008B01B0938C0187E391E0909386018093ED
:100F1000850185EC90E0909392018093910184EC9F
:100F200090E0909394018093930180EC90E09093F3
:100F300096018093950181EC90E0909398018093C5
:100F4000970182EC90E090939A018093990186EC4E
:100F500090E090939C0180939B0110929E011092CF
:100F60009F011092A0011092A1010895CF92DF92EB
:100F7000EF92FF920F931F93CF93DF937C016A014F
:100F8000EB0100E010E00C151D0571F06991D7012F
:100F9000ED91FC910190F081E02DC7010995892B1D
:100FA00019F00F5F1F4FEFCFC801DF91CF911F9155
:100FB0000F91FF90EF90DF90CF900895611571052C
:100FC00081F0DB010D900020E9F7AD01415051099E
:100FD000461B570BDC01ED91FC910280F381E02D63
:100FE000099480E090E00895DC01ED91FC9101907E
:100FF000F081E02D099463E471E00C94DE070F9317
:101000001F93CF93DF93EC010E94DE078C01CE018A
:101010000E94FB07800F911FDF91CF911F910F91CD
:1010200008950F931F93CF93DF93EC010E94F40771
:101030008C01CE010E94FB07800F911FDF91CF91A1
:101040001F910F9108958F929F92AF92BF92DF925E
:10105000EF92FF920F931F93CF93DF93CDB7DEB73D
:10106000A1970FB6F894DEBF0FBECDBF7C01F42F61
:10107000D52ECB0119A2223008F42AE08E010F5D93
:101080001F4F822E912CA12CB12C6F2F7D2DA501ED
:1010900094010E944409F22FD32ECA010150110974
:1010A0006A3014F4E0E301C0E7E3E60FD801EC9303
:1010B000232B242B252B49F7B801C7010E94DE07FB
:1010C000A1960FB6F894DEBF0FBECDBFDF91CF91D2
:1010D0001F910F91FF90EF90DF90BF90AF909F9086
:1010E0008F900895CF92DF92EF92FF920F931F930C
:1010F000CF93DF93EC016A017B012115310579F46F
:10110000E881F9810190F081E02D642FDF91CF918A
:101110001F910F91FF90EF90DF90CF9009942A30AC
:101120003105E9F477FF1AC06DE20E94F4078C01E3
:1011300044275527BA014C195D096E097F092AE039
:10114000CE010E942308800F911FDF91CF911F9144
:101150000F91FF90EF90DF90CF9008952AE0B701B4
:10116000A601CE01DF91CF911F910F91FF90EF90DB
:10117000DF90CF900C9423080F931F93CF93DF93AE
:10118000EC019A01AB01662757FD6095762F0E940E
:1011900072088C01CE010E94FB07800F911FDF9126
:1011A000CF911F910F9108952115310541F4DC0174
:1011B000ED91FC910190F081E02D642F09940C9445
:1011C00023080F931F93CF93DF93EC010E94D40861
:1011D0008C01CE010E94FB07800F911FDF91CF9100
:1011E0001F910F910895CF93DF9300D000D0CDB71A
:1011F000DEB79B01AC01611571058105910569F0B0
:1012000069833A834B835C830E94F40929813A8184
:101210004B815C810E94660903C060E070E0CB01F5
:101220000F900F900F900F90DF91CF910895CF9274
:10123000DF92EF92FF926B017C01621773078407C4
:10124000950764F4CA01B9016C197D098E099F09DB
:101250000E94F3086C0D7D1D8E1D9F1DFF90EF9069
:10126000DF90CF90089508950E94D0040E94330922
:101270000E94EB00C9EFD5E00E943E012097E1F308
:101280000E94F905F9CF0895A1E21A2EAA1BBB1BF3
:10129000FD010DC0AA1FBB1FEE1FFF1FA217B30742
:1012A000E407F50720F0A21BB30BE40BF50B661F58
:1012B000771F881F991F1A9469F76095709580951C
:1012C00090959B01AC01BD01CF010895052E97FBC0
:1012D0001EF400940E947D0957FD07D00E94440926
:1012E00007FC03D04EF40C947D0950954095309541
:1012F00021953F4F4F4F5F4F089590958095709582
:1013000061957F4F8F4F9F4F08950E949609A59F2B
:10131000900DB49F900DA49F800D911D11240895F0
:10132000EE0FFF1F0590F491E02D0994A29FB001EC
:10133000B39FC001A39F700D811D1124911DB29F09
:10134000700D811D1124911D08958F929F92AF926F
:10135000BF92CF92DF92EF92FF92CF93DF93EC0197
:10136000688179818A819B8161157105810591056B
:1013700021F464E279ED8BE597E02DE133EF41E074
:1013800050E00E94660949015A019B01AC01A7EA9D
:10139000B1E40E9485096B017C01ACEEB4EFA501BC
:1013A00094010E94050AC60ED71EE81EF91EF7FE1C
:1013B00006C081E0C81AD108E10880E8F80AC882AE
:1013C000D982EA82FB82C701B6019F77DF91CF9174
:1013D000FF90EF90DF90CF90BF90AF909F908F9055
:1013E00008950E94A509089580E091E00E94A50952
:1013F000089560930001709301018093020190931E
:1014000003010895B7FF0C9485090E948509821B8A
:08141000930B0895F894FFCF3F
:1014180001000000320088130500050009000300E0
:101428000200AE03AE037374617274006D6F75735E
:10143800655374696C6C0077616974466F725265A4
:10144800737000000000004A06B607CC05E505D712
:101458000528060D0A006E616E00696E66006F76DB
:0414680066002E00EC
:00000001FF
