:100000000C9462000C9404050C94DD040C948A009A
:100010000C948A000C948A000C948A000C948A0038
:100020000C948A000C948A000C948A000C948A0028
:100030000C948A000C948A000C948A000C948A0018
:100040000C9493040C948A000C9461040C943B046B
:100050000C948A000C948A000C948A000C948A00F8
:100060000C948A000C948A000000000024002700F1
:100070002A0000000000250028002B0000000000DE
:1000800023002600290004040404040404040202DA
:100090000202020203030303030301020408102007
:1000A0004080010204081020010204081020000012
:1000B0000008000201000003040700000000000027
:1000C0000000A40811241FBECFEFD8E0DEBFCDBFD3
:1000D00011E0A0E0B1E0E0ECF3E102C005900D9288
:1000E000A036B107D9F722E0A0E6B1E001C01D9229
:1000F000AC32B207E1F710E0C2E6D0E004C02197CD
:10010000FE010E94D809C136D107C9F70E942B050C
:100110000C94DE090C940000AF92BF92CF92DF9254
:10012000EF92FF920F931F93CF93DF936C017B01AC
:100130008B01040F151FEB015E01AE18BF08C0173D
:10014000D10759F06991D601ED91FC910190F081B0
:10015000E02DC6010995892B79F7C501DF91CF9173
:100160001F910F91FF90EF90DF90CF90BF90AF90D5
:100170000895FC01538D448D252F30E0842F90E0AD
:10018000821B930B541710F0CF9608950197089592
:10019000FC01918D828D981761F0A28DAE0FBF2F5B
:1001A000B11D5D968C91928D9F5F9F73928F90E0B1
:1001B00008958FEF9FEF0895FC01918D828D981720
:1001C00031F0828DE80FF11D858D90E008958FEF5D
:1001D0009FEF0895FC01918D228D892F90E0805C26
:1001E0009F4F821B91098F73992708958FE891E0A3
:1001F0000E94EA0021E0892B09F420E0822F089573
:1002000080E090E0892B29F00E94F60081110C9487
:1002100000000895FC01A48DA80FB92FB11DA35AA9
:10022000BF4F2C91848D90E001968F739927848F16
:10023000A689B7892C93A089B1898C918370806439
:100240008C93938D848D981306C00288F389E02DDA
:1002500080818F7D80830895EF92FF920F931F938B
:10026000CF93DF93EC0181E0888F9B8D8C8D981369
:100270001AC0E889F989808185FF15C09FB7F89475
:10028000EE89FF896083E889F989808183708064C1
:1002900080839FBF81E090E0DF91CF911F910F910C
:1002A000FF90EF900895F62E0B8D10E00F5F1F4F1B
:1002B0000F731127E02E8C8D8E110CC00FB607FC2A
:1002C000FACFE889F989808185FFF5CFCE010E94B8
:1002D0000A01F1CFEB8DEC0FFD2FF11DE35AFF4F1B
:1002E000F0829FB7F8940B8FEA89FB898081806246
:1002F000CFCFCF93DF93EC01888D8823B9F0AA8903
:10030000BB89E889F9898C9185FD03C0808186FDD0
:100310000DC00FB607FCF7CF8C9185FFF2CF80811F
:1003200085FFEDCFCE010E940A01E9CFDF91CF9189
:100330000895833081F028F4813099F08230A9F05B
:1003400008958730A9F08830C9F08430B1F48091E5
:1003500080008F7D03C0809180008F778093800024
:10036000089584B58F7784BD089584B58F7DFBCFC4
:100370008091B0008F778093B00008958091B00095
:100380008F7DF9CFCF93DF93282F30E0F901E2552D
:10039000FF4F8491F901E656FF4FD491F901EA57D6
:1003A000FF4FC491CC23A1F081110E949901EC2F41
:1003B000F0E0EE0FFF1FE458FF4FA591B491EC91D0
:1003C000ED2381E090E009F480E0DF91CF91089582
:1003D00080E090E0FACFCF93DF9382E00E94C201E9
:1003E000EC0183E00E94C201CC0FDD1F8C2B9D2B02
:1003F0002091600130916101220F331F220F331FC2
:10040000282B392B2D30310549F02430310531F0BE
:100410002230310519F02B303105A1F440918701CC
:10042000509188016091890170918A014F5F5F4FFF
:100430006F4F7F4F409387015093880160938901EC
:1004400070938A012E30310549F0A90147505109B6
:100450004230510518F021303105A1F44091870157
:10046000509188016091890170918A014150510930
:100470006109710940938701509388016093890154
:1004800070938A019093610180936001DF91CF9115
:1004900008951F93CF93DF93282F30E0F901E255A1
:1004A000FF4F8491F901E656FF4FD491F901EA57C5
:1004B000FF4FC491CC23A9F0162F81110E949901FE
:1004C000EC2FF0E0EE0FFF1FEE58FF4FA591B49117
:1004D0008FB7F894EC91111108C0D095DE23DC930E
:1004E0008FBFDF91CF911F910895DE2BF8CFCF936F
:1004F000DF9390E0FC01E656FF4F24918A579F4F0F
:10050000FC0184918823D1F090E0880F991FFC01B1
:10051000E859FF4FA591B491FC01EE58FF4FC591EA
:10052000D49161110EC09FB7F8948C91E22FE095A1
:100530008E238C932881E223E8839FBFDF91CF91A4
:1005400008958FB7F894EC91E22BEC938FBFF6CF20
:100550003FB7F8948091670190916801A09169017B
:10056000B0916A0126B5A89B05C02F3F19F00196EE
:10057000A11DB11D3FBFBA2FA92F982F8827BC01FD
:10058000CD01620F711D811D911D42E0660F771F25
:10059000881F991F4A95D1F708958F929F92AF9225
:1005A000BF92CF92DF92EF92FF926B017C010E948B
:1005B000A8024B015C01C114D104E104F104B9F0BB
:1005C0000E94A802681979098A099B09683E73404C
:1005D0008105910580F321E0C21AD108E108F108F4
:1005E00088EE880E83E0981EA11CB11CE4CFFF901A
:1005F000EF90DF90CF90BF90AF909F908F90089535
:100600002FB7F89460916301709164018091650146
:10061000909166012FBF08950F931F930E940003CE
:1006200060939701709398018093990190939A0138
:100630008FE891E00E94DC0097FF1DC00E9400033C
:1006400000919701109198012091990130919A01A0
:10065000601B710B820B930B00919301109194011D
:1006600020919501309196016017710782079307D9
:10067000F8F28FEF9FEF1F910F910895CF92DF92C5
:10068000EF92FF92CF930E940C03FC0197FD4EC0A6
:100690008D32910521F0C0970A9708F040C0C12C17
:1006A000D12C7601C0E0E130F105D1F0ED32F10559
:1006B000D9F1CF01C0970A9798F4AAE0B0E0A7015A
:1006C00096010E9494096F01FF0FEE08FF08C60E05
:1006D000D71EE81EF91E80E3C81AD108E108F10808
:1006E0008FE891E00E94C8000E940C03FC01C097B3
:1006F0000A97C8F2E130F105B1F2CC2341F0F09451
:10070000E094D094C094C11CD11CE11CF11CC70121
:10071000B601CF91FF90EF90DF90CF9008958FE8D2
:1007200091E00E94C800AFCFC1E0DACFC12CD12C3C
:100730007601EDCF0895FC0101900020E9F7319793
:10074000AF01481B590BBC018FE891E00C948C0061
:100750008F929F92AF92BF920F931F93CF93DF938D
:10076000CDB7DEB7A1970FB6F894DEBF0FBECDBFF1
:1007700019A2423008F44AE08E010F5D1F4F842E0B
:10078000912CB12CA12CA50194010E94A709E62F60
:10079000B901CA01EA30F4F4E05DD801EE938D01AD
:1007A000232B242B252B79F790E080E0109719F06C
:1007B000CD010E949B03A1960FB6F894DEBF0FBE39
:1007C000CDBFDF91CF911F910F91BF90AF909F90C0
:1007D0008F900895E95CE1CFCF93DF930E949B0354
:1007E000EC0184E291E00E949B038C0F9D1FDF913E
:1007F000CF910895CF92DF92EF92FF92CF93DF9344
:100800006C01990FEE08FF08F7FE1FC06DE28FE83C
:1008100091E00E942C01EC0166277727CB016C192F
:100820007D098E099F094AE00E94A803C80FD91FBD
:1008300084E291E00E949B038C0F9D1FDF91CF917A
:10084000FF90EF90DF90CF9008954AE0C701B60186
:100850000E94A803EC01ECCFCF93DF934AE00E9403
:10086000A803EC0184E291E00E949B038C0F9D1F82
:10087000DF91CF9108951F920F920FB60F9211241E
:100880002F933F934F935F936F937F938F939F9398
:10089000AF93BF93EF93FF938FE891E00E940A011B
:1008A000FF91EF91BF91AF919F918F917F916F9148
:1008B0005F914F913F912F910F900FBE0F901F901E
:1008C00018951F920F920FB60F9211242F938F93AA
:1008D0009F93EF93FF93E0919F01F091A00180819E
:1008E000E091A501F091A60182FD1BC0908180914D
:1008F000A8018F5F8F732091A901821741F0E091C9
:10090000A801F0E0E157FE4F958F8093A801FF9179
:10091000EF919F918F912F910F900FBE0F901F908D
:1009200018958081F4CF1F920F920FB60F92112469
:100930002F933F938F939F93AF93BF9380916301C6
:1009400090916401A0916501B091660130916201BE
:1009500023E0230F2D3758F50196A11DB11D2093DB
:1009600062018093630190936401A0936501B09349
:1009700066018091670190916801A0916901B09131
:100980006A010196A11DB11D8093670190936801D2
:10099000A0936901B0936A01BF91AF919F918F912C
:1009A0003F912F910F900FBE0F901F90189526E842
:1009B000230F0296A11DB11DD2CF1F920F920FB629
:1009C0000F9211242F933F934F935F936F937F93D5
:1009D0008F939F93AF93BF93EF93FF93E0910201A7
:1009E000F09103010995FF91EF91BF91AF919F9114
:1009F0008F917F916F915F914F913F912F910F90C8
:100A00000FBE0F901F9018951F920F920FB60F9266
:100A100011242F933F934F935F936F937F938F9303
:100A20009F93AF93BF93EF93FF93E0910001F091F9
:100A300001010995FF91EF91BF91AF919F918F9126
:100A40007F916F915F914F913F912F910F900FBECA
:100A50000F901F901895CF93DF9300D000D000D057
:100A6000CDB7DEB7789484B5826084BD84B58160EB
:100A700084BD85B5826085BD85B5816085BD809169
:100A80006E00816080936E001092810080918100E1
:100A900082608093810080918100816080938100D9
:100AA000809180008160809380008091B10084609B
:100AB0008093B1008091B00081608093B0008091FC
:100AC0007A00846080937A0080917A0082608093BB
:100AD0007A0080917A00816080937A0080917A0018
:100AE000806880937A001092C10060E085E00E94E7
:100AF0007702E0919F01F091A00182E08083E09174
:100B00009B01F0919C011082E0919D01F0919E016A
:100B10008FEC80831092A701E091A301F091A401D2
:100B200086E08083E091A101F091A2018081806143
:100B30008083E091A101F091A2018081886080838F
:100B4000E091A101F091A201808180688083E09111
:100B5000A101F091A20180818F7D80838FE891E0D7
:100B60000E94790161E68FE891E00E942C0184E205
:100B700091E00E949B038FE891E00E94C8008136BB
:100B8000D1F78FE891E00E94790110E000E0780150
:100B9000EE0CFF1C81E090E08C0F9D1FE80EF91E0B
:100BA0008FE891E00E94EA006801EFEFCE1ADE0ABA
:100BB0001816190664F70E943E03F70161937193BA
:100BC0007F018601033011055CF3C980DA80D09281
:100BD0000701C0920601EB80FC80F0920501E092D3
:100BE00004010D811E81109309010093080187E221
:100BF00091E00E949B03C6010E94FA0380E391E00A
:100C00000E949B03C7010E94FA0388E391E00E94BF
:100C10009B03C8010E94FA038FE891E00E947901CA
:100C20008FE891E00E94C80060E082E00E947702B5
:100C300060E083E00E94770261E089E00E94770231
:100C400061E082E00E94490261E083E00E94490283
:100C50002BEE31E030930101209300018091690077
:100C60008C7F816080936900E89A30930301209320
:100C7000020180916900837F846080936900E99A12
:100C800064E670E080E090E00E94CD0282E491E0B2
:100C90000E94EC0381E090E090938E0180938D019F
:100CA00084EF482E55245394612C712C95E0292E05
:100CB000312C22E0A22EB12C33E0832E912C809196
:100CC0008D0190918E018330910509F418C194F43F
:100CD0008130910509F44DC0029709F475C0E0E038
:100CE000F0E0EF2B61F30E94F600882341F30E94AD
:100CF0000000E5CF8430910509F438C1059779F7F4
:100D000010926B0110926C0110926D0110926E01A5
:100D10000E9400036B017C01C0927B01D0927C0198
:100D2000E0927D01F0927E0140916B0150916C0147
:100D300060916D0170916E014C195D096E097F091A
:100D40008091040190910501092E000CAA0BBB0BA8
:100D5000481759076A077B070CF07DC10E94000302
:100D600060936B0170936C0180936D0190936E01A1
:100D7000DBCF8FE891E00E94EA00181619060CF00C
:100D8000AECF0E943E036B0170930D0160930C0186
:100D90000E943E0370930B0160930A01C6010E94FA
:100DA000FA030E941D09A30192010E94750968516E
:100DB0007C4F8F4F9F4F70938C0160938B01B0924B
:100DC0008E01A0928D018BCF809187019091880137
:100DD000A0918901B0918A0180938301909384014D
:100DE000A0938501B093860110927F01109280013B
:100DF00010928101109282010E94000360937B0196
:100E000070937C0180937D0190937E0140917F01DE
:100E100050918001609181017091820180917B01EC
:100E200090917C01A0917D01B0917E01481B590BEE
:100E30006A0B7B0B80918B0190918C01092E000C29
:100E4000AA0BBB0B481759076A077B07DCF50E9402
:100E5000000360937F0170938001809381019093E0
:100E60008201C0908701D0908801E0908901F090C4
:100E70008A01C0927701D0927801E0927901F092D4
:100E80007A018091830190918401A0918501B091B4
:100E90008601C816D906EA06FB0609F4B7CF0E94F8
:100EA000000360937B0170937C0180937D0190939C
:100EB0007E01C0928301D0928401E0928501F0927C
:100EC0008601A4CF0E94A8026093730170937401FD
:100ED000809375019093760188E491E00E94EC0381
:100EE0006091730170917401809175019091760108
:100EF0000E942C0490928E0180928D01F0CE85E0AC
:100F00000E94C2019093720180937101019709F0D0
:100F1000E6CE0E94A80260937301709374018093DF
:100F20007501909376010E942C048091710190913B
:100F30007201019741F485E00E94C2019093720111
:100F400080937101F2CF0E94A802609373017093A5
:100F5000740180937501909376010E942C0484E0C3
:100F600090E090938E0180938D01B9CE83E591E05E
:100F70000E94EC03409187015091880160918901A2
:100F800070918A014093830150938401609385019D
:100F900070938601E0910801F09109016A017B01DB
:100FA00090E080E09C0197FF04C022273327281B94
:100FB000390B2E173F0764F4C0908701D090880149
:100FC000E0908901F0908A01C601841B950BEACF5D
:100FD000C0927701D0927801E0927901F0927A0183
:100FE0009093700180936F0197FF5CC00E94A802EC
:100FF00060937301709374018093750190937601EF
:101000000E942C0480916F01909170010E94FA035C
:1010100080910C0190910D0121E08130910509F042
:1010200020E040910A0150910B014130510559F4E3
:10103000222349F090E080E00E94FA0330928E0172
:1010400020928D014CCE452B69F4222359F090E07B
:1010500080E00E94FA0382E491E00E94EC0381E0C8
:1010600090E07FCF8336910529F40E941D0983E625
:1010700090E0EFCF029709F032CE61E089E00E9464
:1010800049026091060170910701072E000C880B40
:10109000990B0E94CD0260E089E00E94490281E044
:1010A00090E0D7CF892B09F41ACE0E94A802609352
:1010B00073017093740180937501909376010E947F
:1010C0002C0480916F01909170010E94FA030091AD
:1010D0000C0110910D0181E00230110509F080E052
:1010E00020910A0130910B012130310511F4811159
:1010F000A1CF232B11F48111AACF0336110509F4D6
:10110000B4CF0130110509F0EACD61E089E00E9419
:1011100049026091060170910701072E000C880BAF
:10112000990B0E94CD0260E089E00E94490281E0B3
:1011300090E00E94FA0382E491E00E94EC03109395
:101140008E0100938D01CBCDEFE8F1E01382128286
:1011500088EE93E0A0E0B0E084839583A683B78314
:1011600086E191E09183808385EC90E09587848788
:1011700084EC90E09787868780EC90E0918B808B61
:1011800081EC90E0938B828B82EC90E0958B848B4A
:1011900086EC90E0978B868B118E128E138E148EB8
:1011A00008958F929F92AF92BF92CF92DF92EF926B
:1011B000FF92CF93DF93EC01688179818A819B81D3
:1011C000611571058105910521F464E279ED8BE5E6
:1011D00097E02DE133EF41E050E00E9475094901AD
:1011E0005A019B01AC01A7EAB1E40E9494096B018A
:1011F0007C01ACEEB4EFA50194010E94A209C60ED9
:10120000D71EE81EF91EF7FE06C081E0C81AD108F5
:10121000E10880E8F80AC882D982EA82FB82C70125
:10122000B6019F77DF91CF91FF90EF90DF90CF9045
:10123000BF90AF909F908F9008958F929F92AF92A2
:10124000BF92CF92DF92EF92FF9260910E01709168
:101250000F018091100190911101611571058105B7
:10126000910521F464E279ED8BE597E02DE133EF10
:1012700041E050E00E94750949015A019B01AC010F
:10128000A7EAB1E40E9494096B017C01ACEEB4EFD3
:10129000A50194010E94A209C60ED71EE81EF91EE0
:1012A000F7FE06C081E0C81AD108E10880E8F80A14
:1012B000C0920E01D0920F01E0921001F092110144
:1012C000C701B6019F77FF90EF90DF90CF90BF905E
:1012D000AF909F908F90089560930E0170930F01CF
:1012E00080931001909311010895052E97FB1EF431
:1012F00000940E948C0957FD07D00E94A70907FCA3
:1013000003D04EF40C948C0950954095309521955E
:101310003F4F4F4F5F4F0895909580957095619521
:101320007F4F8F4F9F4F08950E94C909A59F900D31
:10133000B49F900DA49F800D911D11240895B7FFB7
:101340000C9494090E949409821B930B0895A1E2C6
:101350001A2EAA1BBB1BFD010DC0AA1FBB1FEE1F2F
:10136000FF1FA217B307E407F50720F0A21BB30B7A
:10137000E40BF50B661F771F881F991F1A9469F7F6
:1013800060957095809590959B01AC01BD01CF0152
:101390000895A29FB001B39FC001A39F700D811D4E
:1013A0001124911DB29F700D811D1124911D08956E
:1013B000EE0FFF1F0590F491E02D0994F894FFCFF4
:1013C0009A039A038813320005000100020001000D
:1013D0000000000000002C018C00B9007901EA0037
:1013E000C800DC000D0A0052455754494D45200005
:1013F000544F54494D4520004445424F554E4345B6
:1014000020007374617274006D6F75736553746935
:101410006C6C0077616974466F725265737000007E
:00000001FF
